:020000040002F8
:1060000090600020C1630200C9630200CB630200FC
:10601000CD630200CF630200D163020000000000E4
:10602000000000000000000000000000D363020038
:10603000D563020000000000D7630200D9630200AC
:10604000F1660200DB630200D96A0200DB63020032
:10605000DB630200DB6302008D650200DB6302008C
:10606000DB630200DB630200DB630200DB63020030
:10607000DB630200DB630200DB630200DB63020020
:10608000DB63020049670200DB630200DB6302009E
:10609000DB630200DB630200B9670200DB6302001E
:1060A000DB630200DB630200DB630200DB630200F0
:1060B000DB630200DB630200000000000000000060
:1060C000DB630200DB630200DB630200DB630200D0
:1060D000DB630200DB630200DB6302000000000000
:1060E00000000000000000000000000000000000B0
:1060F00000000000000000000000000000000000A0
:10610000000000000000000000000000000000008F
:10611000000000000000000000000000000000007F
:10612000000000000000000000000000000000006F
:10613000000000000000000000000000000000005F
:10614000000000000000000000000000000000004F
:10615000000000000000000000000000000000003F
:10616000000000000000000000000000000000002F
:10617000000000000000000000000000000000001F
:10618000000000000000000000000000000000000F
:1061900000000000000000000000000000000000FF
:1061A00000000000000000000000000000000000EF
:1061B00000000000000000000000000000000000DF
:1061C00000000000000000000000000000000000CF
:1061D00000000000000000000000000000000000BF
:1061E00000000000000000000000000000000000AF
:1061F000000000000000000000000000000000009F
:10620000DFF80CD000F084F900480047558C0200FC
:106210009060002030B450E8012F93B2C489234429
:106220008489A34228BF1B1B0489A34202BFBFF37A
:106230002F8F002007E0C3EA020340E80134002C5E
:10624000E9D14FF001000A6030BC704750E8012FDF
:10625000C2EA024240E801210029F7D1704730B478
:1062600050E8022F1FFAA2F3C488A34202BFBFF373
:106270002F8F00200DE0C48923448489A34228BFC6
:106280001B1BC2EA034340E80234002CE8D14FF064
:1062900001000A6030BC704750E8022FC2EA224277
:1062A00040E802210029F7D17047034653E8022F46
:1062B000D988B2EB324F4FF0000017BF92B241EADB
:1062C000014142EA014104E05A68B2EB324F08BF93
:1062D000012043E80212002AE8D1704730B4044696
:1062E00054E8000F0D4644E80053002BF8D1156028
:1062F00030BC704730B4044654E8000F40EA010552
:1063000044E80053002BF7D1156030BC704730B41F
:10631000044654E8000F00EA010544E80053002B4E
:10632000F7D1156030BC704730B4044654E8000F14
:1063300080EA010544E80053002BF7D1156030BC1A
:10634000704730B4044654E8000F00EB010544E800
:106350000053002BF7D1156030BC704730B40446B1
:1063600054E8000FA0EB010544E80053002BF7D1DF
:10637000156030BC704770B404464FF0000054E81C
:10638000006F0D68AE4207BF44E80023012044E8D7
:1063900000630E60002B1CBF0020F0E770BC70474C
:1063A00030B4044654E8000F88422CBF451A054615
:1063B00044E80053002BF5D1156030BC7047000055
:1063C0000648804706480047FEE7FEE7FEE7FEE78F
:1063D000FEE7FEE7FEE7FEE7FEE7FEE7BD67020039
:1063E000016202002DE9F05F0546002092469B46BF
:1063F00088460646814640241BE0284641464746DB
:10640000224600F074F853465A46C01A914110D300
:1064100011461846224600F016F82D1A67EB0108BF
:106420004F4622460120002100F00DF817EB00092D
:106430004E41201EA4F10104DFDC484631462A46C5
:106440004346BDE8F09F202A04DB203A00FA02F11F
:10645000002070479140C2F1200320FA03F3194352
:1064600090407047004870472CCA020040EA010380
:106470009B0703D009E008C9121F08C0042AFAD2FA
:1064800003E011F8013B00F8013B521EF9D27047BE
:10649000D2B201E000F8012B491EFBD27047002266
:1064A000F6E710B513460A4604461946FFF7F0FF13
:1064B000204610BD421C10F8011B0029FBD1801A98
:1064C000704730B504460020034600E05B1C934251
:1064D00003D2E05CCD5C401BF8D030BD034611F820
:1064E000012B00F8012B002AF9D118467047202A09
:1064F00004DB203A21FA02F00021704721FA02F36E
:10650000D040C2F120029140084319467047000074
:10651000064C074D06E0E06840F0010394E80700F0
:1065200098471034AC42F6D3FFF76EFE00D302005A
:1065300020D3020070B58C1810F8015B15F007032A
:1065400001D110F8013B2A1106D110F8012B03E00C
:1065500010F8016B01F8016B5B1EF9D12B0705D414
:106560000023521E0DD401F8013BFAE710F8013B5D
:10657000CB1A921C03E013F8015B01F8015B521E79
:10658000F9D5A142D8D3002070BD00002DE9F04715
:1065900000268AB0DFF85091B0464FF48075012490
:1065A00037460696284603F0BFFA38B1D9F80403F7
:1065B000204203D0284603F0ADFA26432D1D640087
:1065C0007F1CADB2082FEDD34FF4BE74204603F00C
:1065D000ABFA48B1204603F09DFA46F0004606AA01
:1065E0000121002003F082FA404D16F0FF0F15D074
:1065F0000127002437420DD009EB8401D1F81005A2
:10660000D1F81015C0F3042055F82420C1F301413E
:1066100002B190477F00641C082CEBD3002E5FDA98
:106620004FF0FF30CDF8108054E0281910F8507F5B
:1066300090F9000027F0C008401C3BD007A9404655
:1066400002F0CDFC10B34FEA9719404601F0BAFCB6
:1066500055F820701FB1B9F1030F03D006E0B9F16E
:10666000030F27D104A9404602F0C1FC4FF0A0411E
:1066700001EB8800D0F8000706A9C0F3014A4046A4
:1066800002F0ADFC18B1BAF1020F03D012E0BAF17A
:10669000030F0FD1B9F1030F08D1BAF1020F1DD0CA
:1066A0000221404603F006FA761CF6B217B14946BD
:1066B0004046B847641C042CB7D3002E10D06A465D
:1066C0000121002003F012FA06990098884207D0B1
:1066D00006900498002634460790A6E70321E0E7D9
:1066E0000AB0BDE8F087000000600040CC36002012
:1066F00070B54FF48076304602F0D0FF114CB505EE
:1067000060B1304602F0D1FF0120C5F8080360797E
:1067100020B9012060712168002088474FF48276FB
:10672000304602F0BBFF00280AD0304602F0BDFF21
:106730000220C5F808032168BDE870400120084721
:1067400070BD00005C30002002490248091F096842
:1067500000680847CC30002000F0C4B970B50E4680
:10676000144900EB400001EBC0051446E86A1835F7
:1067700020B101280FD0022805D113E0284600F0EF
:10678000E5F9A04201D2002411E022463146284614
:1067900000F014FA0BE0284600F0D8F9A042F4D239
:1067A0000446F2E73146284600F0DBF9044620466D
:1067B00070BD0000043E002004F004B8F0B5B548F8
:1067C0000023021D0178101D01254FF08054062979
:1067D0000BD11678360708D10678C6F30316032EB8
:1067E00006D0042E04D0052E02D0062907D00EE0D4
:1067F000B4F82463A84FC6F304263E6002E016787E
:10680000360704D10678C6F30316032E02D00629F4
:1068100004D00FE0A24FA14E7E670EE01678360737
:1068200008D10678C6F30316032E06D0042E04D032
:10683000052E02D0062907D00EE0D4F84462994F05
:10684000C6F342363E6002E01678360704D1067879
:10685000C6F30316032E02D0062906D011E0924E8D
:10686000376827F0807737600EE01678360708D152
:106870000678C6F30316032E06D0042E04D0052E88
:1068800002D006290AD011E04FF08046C6F80C313C
:10689000C6F81031834E361F336002E01678360793
:1068A00004D10678C6F30316032E02D0062905D0BC
:1068B0000CE07C4F032664373E600AE0167836070A
:1068C00004D10678C6F30316032E02D006290DD094
:1068D00014E0764F05263E60744E78363560734E70
:1068E000083633603F263F1D3E6002E016783607CB
:1068F00004D10678C6F30316052E02D0062957D018
:1069000062E06B4E36686B4F3E60694E361D3668EE
:106910003F1D3E60664E083636683F1D3E60644E41
:106920000C3636683F1D3E60614E103636683F1D9E
:106930003E605F4E143636683F1D3E605C4E183632
:1069400036685C4F20373E60594E1C3636683F1D16
:106950003E60574E203636683F1D3E60544E24360A
:1069600036683F1D3E60524E283636683F1D3E60F9
:106970004F4E2C3636683F1D3E604D4E30363668E1
:106980004C4F40373E604A4E343636683F1D3E60BD
:10699000474E383636683F1D3E60454E3C363668B9
:1069A0003F1D3E60424E403636683F1D3E6002E06D
:1069B0001678360708D10678C6F30316032E06D0DC
:1069C000042E04D0052E02D0062907D019E0D4F8F1
:1069D0005812394A01F04F01116002E0117809079D
:1069E0000FD10078C0F30310032803D0042801D08E
:1069F000052806D131480168C90702D06FF00101AE
:106A00000160D4F83001062808D1D4F834010628F2
:106A100004D12B48016841F4806101602248743838
:106A2000016841F470010160BFF34F8FBFF36F8FB6
:106A30004FF01021D1F80002002803DBD1F8040246
:106A4000002822DA1F4A15601F480468002CFCD079
:106A50001524C1F800420568002DFCD0C1F804429D
:106A600001680029FCD0136001680029FCD0BFF345
:106A70004F8F0D48F0380168144A01F4E06111436A
:106A80000160BFF34F8F00BFFDE712491048086057
:106A9000F0BD0000E00F00F0403501400DF0ADBA50
:106AA00000C007403C050040FCED00E010560040EF
:106AB0000404001020C50040E40E00400004004023
:106AC0003C17004004E5014000E401400400FA05E1
:106AD0000090D003403100200148006800470000CA
:106AE0006430002010B5124C02202061606111A0BA
:106AF000A06104F17800E0614FF400702062002092
:106B0000A06260620BA1A164E06204F51E71E16401
:106B10001021A065C4E91410E06509A1E01DFFF78C
:106B2000DDFC08A12046FFF7D9FC2020A07110BD94
:106B3000043E00205465726D696E616C00000000B7
:106B40005254540053454747455200000269C168FA
:106B50008A4203D88068401A104400E0501A401E50
:106B600070472DE9F047C4681746894606464FF03E
:106B700000083069A04201D9051B02E0B168201A63
:106B80000D1AB0686D1E001BA84200D80546BD4214
:106B900000D33D4670682A4620444946FFF766FC0C
:106BA000B0687F1B2C44A844A944A04200D1002413
:106BB000F460002FDDD14046BDE8F0872DE9F041BB
:106BC00004468846D4E90207C51BE168606816469A
:106BD0000844B54206D94146FFF748FCB819E060C1
:106BE000BDE8F0812A464146FFF740FC761B08EBE2
:106BF000050132466068FFF739FCE660F0E7000007
:106C0000014A024900F026B8E3870200DC30002088
:106C100002E008C8121F08C1002AFAD17047704765
:106C2000002001E001C1121F002AFBD170470000C3
:106C30000121202803DA81400548014003E0402873
:106C400002DA2038814009B10120704700207047E6
:106C5000FC06FFBD2DE9F04116460F46044600250F
:106C600003E03946B047641C6D1C20780028F8D139
:106C70002846BDE8F08110B501220221002000F075
:106C80008DFF08B1072810D107220221012000F052
:106C900085FF08B1072808D100210A22084600F024
:106CA0007DFF08B1072800D1002010BD022000F0B0
:106CB00091BE000070B50024064D06E06868012111
:106CC00010F8340003F084FE641C28788442F5D365
:106CD000002070BD70300020F8B516460C46054601
:106CE0000A2A01D20720F8BD03F06CFF18B903F09F
:106CF00033FF0028F7D1134F102113487D603C70FB
:106D0000BE60FFF7CCFB0020C7E904000F4E0DE08A
:106D100005EBC4003168009181788DF8011000788E
:106D20000B4A694603F0A6FE0028DCD1641EE4B2DB
:106D3000EED2BDE8F84005480021064A001D00F0EB
:106D400087B80000703000209837002024C7020068
:106D50005D8902004182020072B603F087F900BF2C
:106D600002F0B2FF0028FBD111481249401AC408B2
:106D7000012000EB044010A103F0C0F811480068A6
:106D8000C00700D000BE022000EB04400EA103F0BB
:106D9000B5F8BFF34F8F0B48E43801680E4A01F491
:106DA000E06111430160BFF34F8F00BFFDE70000BA
:106DB000A8D3020030D30200466174616C20657272
:106DC000726F7200F0ED00E053797374656D20729C
:106DD00065736574000000000400FA050EB500211B
:106DE0000091CDE901106A4644F20100FFF7B4FFBB
:106DF0000EBD10B58268C368934203D001F0DEFC7B
:106E0000002010BD052010BD29B112B1531E134240
:106E100003D0092070470E20704701608380002155
:106E20008160C1600846704710B58268C3689A1ACD
:106E300083889A4203D801F0CBFC002010BD0420C7
:106E400010BD0000014801F03ABB00009030002066
:106E50003AB100680129426100D00021016100209F
:106E6000704707207047000038B5114808235822A2
:106E7000416800910F49006801F0FEFF002815D11C
:106E80000D4A69460D4801F01FFB04000ED1012197
:106E90000A4801F090FB0123094A1946074801F00E
:106EA000E6FA0649012008390870204638BD00007E
:106EB0002CC70200B8370020A1B902009030002092
:106EC000FFFF7F0070B50446007F0D4608B100202B
:106ED00070BDA26101F028FD401941F10001C4E933
:106EE0000201206900B125612146BDE87040002003
:106EF00005F090B8014600200877012005F08AB817
:106F000070B50A4E01460A48B578FFF772FF04468D
:106F10004DB10020B070711C0122C81D02F036FC7A
:106F200008B1FFF75BFF204670BD0000AC300020C9
:106F300010380020F0B5244E89B01F460D000446DD
:106F400072603FD0A888296882B22048FFF75CFFB2
:106F5000002835D1A889A96882B21C481030FFF7F3
:106F600053FF00282CD1202219496846FFF77EFAEA
:106F700060690690207C00B101208DF814008DF826
:106F80001C70607C00B10E208DF81500E068029046
:106F9000A068039020680190606800900A480D4A3C
:106FA0006946083002F0BEFB002809D1B0702068A5
:106FB000401C05D004490122491CC81D02F0E6FB13
:106FC00009B0F0BD0720FBE7AC30002010380020EE
:106FD00040C70200A5C1020010B501461048FFF7E6
:106FE00023FF040019D10F480F4A0178515C19B1F1
:106FF000001D04F077F802E00C3003F04DFF60B99B
:10700000084907480839FFF7F4FE30B9054901225D
:107010000839044802F0CAFB0446204610BD0000AF
:1070200020380020B43000205030002030B5EFF37D
:10703000108172B60D4A9468012324B103700029AF
:1070400000D162B630BD93604FF0E023D3F8805199
:10705000074C25401560C3F88041D3F88441546043
:107060005A17C3F8842100220270E8E73038002064
:10707000FC06FFBD0B498A68002A11D000280FD1F9
:10708000EFF3108072B60B684FF0E022C2F80031C7
:107090004B68C2F8043100228A60002800D162B631
:1070A00070470000303800202DE9F041064608689E
:1070B0000C46411C4FF0A0474FF0010506D005FAE1
:1070C00000F1C7F80815206802F0E0FC6068411C78
:1070D00002D0002102F0C8FC3168A069C1F8240583
:1070E000607D227D31681043C1F86C05D4E900123F
:1070F0003068C0F81425C0F80C15207D012815D182
:10710000A068411C02D0002102F0AEFCE068411CE6
:1071100005D08540C7F80855E06802F0B7FCD4E90F
:1071200002123068C0F80825C0F81015BDE8F081DB
:107130002DE9F041064608680C46411C4FF0A04777
:107140004FF0010506D005FA00F1C7F808152068D0
:1071500002F0A6FC6068411C02D0002102F08DFC08
:107160003168A069C1F82405607D217D326808433B
:10717000C2F86C05D4E900123068C0F80C15C0F8EC
:107180001425207D012815D1A068411C02D00021C2
:1071900002F073FCE068411C05D08540C7F8085533
:1071A000E06802F07DFCD4E902123068C0F80825DE
:1071B000C0F81015BDE8F08170B5C8B1C2B10024A7
:1071C000158803E0065D641C3444A4B2A54203D8CC
:1071D000061976789E4201D08C42F3D38C4207D2B6
:1071E000005DA31C401E9BB280B21C188C4201D9CA
:1071F000002070BD138070BD2DE9F0418AB00646B5
:107200000020ADF814001346102088468DF80400C5
:107210000D4606AA01A9184664DFA6B398BB9DF8DF
:107220000400022804D0042807D0102839D10DE02A
:1072300003208DF81000022003E005208DF81000D7
:1072400004208DF81100002404AF0FE007208DF812
:1072500010000620F5E73B5D05AA41463046FFF7E2
:10726000ABFF641CE4B20546022C04D2BDF8140046
:107270000028F0D003E0BDF81400002812D080B23E
:10728000064400240BE00CE030199DF8042006A908
:10729000FFF717F948B19DF80400204484B2AC42CE
:1072A000F2D300200AB0BDE8F0810120FAE7000027
:1072B00070B540B10C4D297839B1044604F0D6FAC6
:1072C00028B1002070BD0E2070BD082070BDE86898
:1072D000062807D20549226801EB8001401C0A609C
:1072E000E860EEE7042070BD40300020A0360020AA
:1072F00010B558B103684BB142683AB10449002057
:107300000124C8600C70C1E9013210BD0E2010BD0F
:1073100040300020002827D0002925D0134A1278B9
:10732000002A21D00A460188112911D0302907D01E
:10733000322909D0332917D1011D104603F0D2BFDD
:10734000011D104604F092B8011D104603F0DABE8C
:107350008088B2F8CA12884206D1002082F8C8029A
:107360004FF6FF70A2F8CA027047000040300020BC
:1073700048B1084A137843B1D26832B190F8C822B4
:107380002AB1112070470E2070470820704701F085
:1073900015B800004030002038B50288011D0446B1
:1073A0001F2A47D016DC102A1ED02B482B4BC01AA0
:1073B000C008032303EB0040112A2DD0132A33D039
:1073C0001B2A44D10979022941D1BDE8384024A1C2
:1073D00002F094BD212A31D03B2A39D0562A36D129
:1073E000A088132176DF11E0A1880022244800F054
:1073F00001F908B1FFF7F2FC072000F0F1FB08B13A
:10740000FFF7ECFCA1881F48FFF7B2FF00281ED051
:10741000BDE83840FFF7E2BC0B790A8801B01AA139
:10742000BDE8304002F075BD0023A0881A468521D2
:107430007FDFEBE731F8040B75DFE7E70020009012
:10744000A08869468FDF002801D0FFF7C7FC38BD50
:10745000A088132176DFD9E7A8D3020030D3020039
:10746000436F6E6E656374696F6E205265717565EA
:1074700073742074696D6564206F75742E0000004C
:10748000383400202C2A0020446973636F6E6E65C7
:10749000637465642E20636F6E6E5F68616E646CEA
:1074A000653A20307825782C20726561736F6E3ACA
:1074B000203078257800000010B51A4C01886068EB
:1074C00010290ED011292BD1401E606028D1FFF762
:1074D000D2FB002824D02168002921D0BDE810402B
:1074E0000847D0B900210122084600F057FB08B137
:1074F00007280FD107220221012000F04FFB08B11D
:10750000072807D104220221002000F047FB20B108
:10751000072802D0216801B188476068401C60607C
:1075200010BD00003830002070B506461A481B4ACE
:107530000D46801AC0080978032202EB004459B1B5
:10754000012922D0022926D1204615A102F0D6FC1D
:10755000BDE8704004F07ABB204615A102F0CEFCD5
:10756000698805F10E02304600F044F808B1FFF7D3
:1075700035FC304600F04AF908B1FFF72FFC2046F1
:10758000BDE870400FA102F0B9BCA989A868BDE8A8
:10759000704000F071B970BDA8D3020030D3020072
:1075A000446973636F6E6E65637465642E000000DA
:1075B000446973636F7665727920636F6D706C6573
:1075C00074652E00436F6E6E656374656420746F1E
:1075D000206465766963652077697468204E6F72F0
:1075E000646963205541525420536572766963651E
:1075F0002E00000050B141802AB15388C380138807
:10760000838092880281406901F0C0BD0E207047DE
:1076100030B5144B0D4604000FCB85B08DE80F003C
:107620001ED0EDB1A868D8B12146684662DF0028B7
:1076300014D120788DF812000120ADF810004FF61B
:10764000FF7060802868E060686820610020A0808A
:107650002081A868606104A8FFF72AFE05B030BD4C
:107660000E20FBE708C7020030B5024685B00800CF
:107670002DD0002A2BD041884FF6FF74A14226D08E
:107680009388994223D11588112D14D0392D1ED1FC
:10769000818800291BD053898B4218D1C1680029E9
:1076A00015D001218DF8001002F110010291D1894D
:1076B000ADF80C1008E08B4209D1C168002906D052
:1076C00002218DF800104480C2686946904705B0D9
:1076D00030BD30B585B00C46054614216846FEF72E
:1076E000DEFE207804F10E01002830D1A0880128A8
:1076F0002DD1A0792A78904229D1002217E002EBFF
:10770000C20031F81030022B02D0032B0ED105E05D
:1077100001EB40000089ADF8120007E001EB4000EA
:107720000389ADF80E304089ADF81000521C207A64
:107730009042E4D8E868002809D06088ADF80200DB
:1077400000208DF80000EA6869462846904705B099
:1077500030BD000070B588B015460E46040012D04A
:1077600020216846FEF79BFE19481A49401AC008B6
:10777000022101EB0040F42D07D917A102F0BEFB56
:10778000072008B070BD0E20FBE76288A2F57F439A
:10779000FF3B18D0154ACDE9022401208DF80000E6
:1077A0002289ADF812208DF81010ADF81650002285
:1077B000ADF8142006968DF811006288694660695C
:1077C00001F01CFDDDE70AA102F098FB0820D8E7D4
:1077D00050D3020030D30200436F6E74656E742084
:1077E000746F6F206C6F6E672E000000F1870200CF
:1077F000436F6E6E656374696F6E2068616E646C52
:107800006520696E76616C69642E000010B58AB0DF
:1078100058B34188A1F57F42FF3A28D0C18831B3DF
:10782000044620216846FEF73AFE01218DF820101B
:1078300000208DF821000F4ACDE902248DF80010B8
:10784000E288ADF812200222ADF81620ADF814003F
:107850008DF8101008A88DF81110069062886946FE
:10786000606901F0CBFC0AB010BD0E20FBE70820D8
:10787000F9E70000F18702002DE9F0410E460546C8
:107880001C481D490024401AC008012101EB004892
:107890000FE0285DFFF7A0FB070009D0112FF8D0FB
:1078A0004046224615A102F02DFB3846FFF796FA16
:1078B000641CB442EDD3A81910F8010C0D2804D1B2
:1078C0000A20FFF789FB1128FAD0324629461548CD
:1078D000FFF740FF04000BD0112CF6D040462246A3
:1078E00011A102F00FFB2046BDE8F041FFF776BA88
:1078F000BDE8F081A8D3020030D302006170705F50
:10790000756172745F707574206661696C6564205E
:10791000666F7220696E646578203078253034781F
:107920002E000000383400204661696C65642073C5
:10793000656E64696E67204E5553206D6573736183
:1079400067652E204572726F7220307825782E2060
:10795000000000000149085C704700002CC60200CE
:107960000649095C4FF0A040D0F81005C84010F05F
:10797000010000D0012080F0010070472CC60200F9
:107980002DE9FC410646C0074FF000050ED0104F10
:1079900000240122385D009500231146019502F074
:1079A0001BF8641C042CF4D300F046F8B0070DD586
:1079B000074E0024361D0022305D0323009511463A
:1079C000019502F009F8641C042CF4D3BDE8FC8195
:1079D00028C6020007490B5C4FF0A041D1F80425EE
:1079E0000120984020EA0203C1F808351040C1F890
:1079F0000C05704728C602000249085C012102F00C
:107A00006AB8000028C602000249085C002102F0A2
:107A100062B8000028C602000649095C4FF0A04089
:107A2000D0F80405C84010F0010000D0012080F01B
:107A30000100704728C6020010B500242046FFF759
:107A4000DBFF641C042CF9D310BD10B500242046C4
:107A5000FFF7DAFF641C042CF9D310BD10B5024601
:107A6000064B4FF0FF3000215C5C944201D1084688
:107A700010BD491C0429F7D310BD00002CC602001C
:107A800070B50C4E0C004FF0000530600BD001209B
:107A900000F06AF808B1022004E0002000F064F869
:107AA00000B10B202070706810B9FFF7E4F80546AC
:107AB000284670BD3830002010B5002000F0CAF90B
:107AC00008B1062806D1012000F0C4F908B1062843
:107AD00000D1002010BD00002DE9F0470D46814681
:107AE000FFF7BCFF0446042836D2DFF874801B4839
:107AF0001C4EA8F10C0725B3012D0ED0022D2BD161
:107B000004EB440030444578002D25D0B9680029A5
:107B100022D02846BDE8F047084704EB4401755CD5
:107B20000E44717849B10E4A4FF48041093A806899
:107B3000FFF7C8F908B987F80390B17808F804107E
:107B4000E2E78068FFF7D6F904EB4401314418F806
:107B500004008D78A842D7D0BDE8F08730C6020077
:107B60003430002070360020042801D2FFF7F8BE20
:107B700000207047042804D00A280CD1002002F00D
:107B80008BBB05481321408876DF082803D00028E6
:107B900001D0FFF723B970473834002070B50023B7
:107BA000042810D20D4D00EB4004012A02D1012916
:107BB0000CD00022094E00EB4000304461B1012995
:107BC00006D0022906D00723184670BD0E30C2B277
:107BD0002A55F9E74270F7E78270F5E77036002022
:107BE000044A014600201279D20702D0084600F06C
:107BF0004DB870472830002070B506461E48002456
:107C0000C0E90161B00720D50025012211462846B0
:107C1000FFF7C4FF6D1C0446042D02D2002CF4D0E3
:107C200013E094B940F2333204211448FFF754F8BA
:107C300004000AD1FFF73EF8040006D10F48104AAD
:107C40000021001FFFF704F90446F00712D00120BD
:107C5000FFF796FE74B909480A4A00210C38FFF76D
:107C6000F7F8040006D10548074A01210838FFF754
:107C7000EFF80446204670BD283000203CC60200C4
:107C8000597F02008D8B0200AD6C02002DE9F05F80
:107C90006E4C054600266078B34618B184F801B0F2
:107CA00000F05CFF6A4F4FF47A694FF4C87A4FF0E6
:107CB0000108182D69D2DFE805F00C13133847547A
:107CC000696E727B727BC58484848484B3B6B9BCCC
:107CD000C5C500F043FF3868FFF70CF906465CE0C5
:107CE0000020FFF799FE00284FF0000008D0FFF7B2
:107CF00083FE022D02D14FF4E16008E0484606E021
:107D0000FFF782FE022D01D1C82000E05046410C51
:107D1000C0034FF47A72801841F1000125705200BF
:107D20000023FEF75FFB01462AE00020FFF774FE08
:107D300000284FF0000004D0FFF75EFE4FF44870BB
:107D4000E5E7FFF761FEDFE70020FFF765FE0028AB
:107D50004FF0000002D0FFF74FFECFE7FFF754FED1
:107D6000D4E70020FFF758FE00284FF0000002D0B3
:107D7000FFF742FE01E0FFF747FE257040F6CD41D8
:107D800000223868FFF79EF8064646E00020FFF71D
:107D900021FE257008E0002051E025703DE084F8C8
:107DA00001800120FFF716FE002240F26661E8E73D
:107DB00084F801800120FFF70DFE00224FF40051EE
:107DC000DFE77868FFF796F80646D5F1110000D096
:107DD0002EB10220FFF710FE84F802B01DE001284A
:107DE00016D980B2C8214843C117C90341EA50419E
:107DF000C0034FF47A72801841F100015200002351
:107E0000FEF7F0FA014600227868FFF75BF80646B5
:107E10000220FFF7F9FD84F802803046BDE8F09FAC
:107E200000F09CFEB9E700F099FEB4E700F096FE82
:107E300004E000F093FE0020FFF7E6FD0120FFF7CD
:107E4000E3FDAAE7FFF701FEA7E7000028300020C6
:107E500030C60200012104F0B1BB00002DE9F84357
:107E60000546861C00208DF8000090460F464FF016
:107E700001096846FFF7DAF81B4C20683860D4E93E
:107E80000001401AA16804F21C47081A0EE0012103
:107E9000384601F036F800F08FFE0146384601F012
:107EA00030F8D4E90001401AA168081A401C864243
:107EB000EDD8B8F1000F03D0052065F3891002E07A
:107EC000062065F39F50A2682168114004EB8101F0
:107ED000C8602068304420609DF80000FFF7CAF8B1
:107EE0004846BDE8F8830000E039002070B50D4633
:107EF00004460A2902D10D21FFF7F8FFA068226885
:107F0000411CA1601554D4E90101814204D32046EB
:107F1000BDE8704001F067BC70BD0000034803C8B5
:107F2000814201D10120704700207047E0390020D4
:107F3000034630B5074800210478426806E000BFD8
:107F400002EBC10005789D4203D0491CA142F7DB3A
:107F5000002030BD7030002000780221FFF7BCBD4A
:107F600005494FF0FF32082841F8202002D3084489
:107F700080F8482070470000CC360020F0B54FF064
:107F8000FF3512B10023082601E008230C260C4C13
:107F900005E000BF54F823707F1C04D05B1CB34283
:107FA000F8D32846F0BD26185DB286F8305044F864
:107FB0002310002AF5D1E11881F84800F1E700000C
:107FC000CC3600200249084490F930007047000088
:107FD000CC36002030B589B00D46044620216846D5
:107FE000FEF75DFA94F8C602002300EB8001C1EBB6
:107FF000801094F8C51204EB400041B1491EC9B28B
:1080000001EBC10100EB4101498A491C00E0C18834
:10801000008961F30F0360F31F4303208DF8000014
:108020000548CDE90204054804932A46694680685C
:1080300001F0E4F809B030BD6D830200403000204B
:1080400070B5084C050009D010342168002907D00C
:1080500008682060496828468847F6E70834F4E74E
:1080600070BD0000B8360020054A012120B101286A
:1080700005D19170FFF7E4BF51700020FAE7704717
:10808000B836002010B5D0E90234D1E90220D11A67
:10809000A04101D3012010BD002010BD10B5024643
:1080A0000020138806E0546834F810408C4203D056
:1080B000401C80B28342F6D810BD000070B588B075
:1080C0000646002005900690ADF81410ADF8161085
:1080D0000190029001AA05A9304690DF050021D049
:1080E00002F014FC0346114811493246401AC108F7
:1080F000012000EB014004460E4901F00AFFBDF8E3
:10810000042012B9BDF8060028B1BDF8063020469B
:1081100009A101F0FEFEBDF808201AB1204616495B
:1081200001F0F0FE08B0284670BD000038D3020010
:1081300030D302001CCB0200546865207265717553
:1081400065737465642054582F5258207061636BB6
:108150006574206C656E67746820697320746F6F36
:10816000206C6F6E672062792025752F2575206F32
:1081700063746574732E000068CB020001460148E9
:10818000FFF7A7BA383400202DE9F04389B00F4635
:108190000546914620216846FEF781F995F8C6020A
:1081A00095F8C54200EB8001C1EB801005EB40065D
:1081B00004EBC40006EB40013279601C0A319042A6
:1081C00032D108AB0022284600F096FC78B310E0CC
:1081D000401EA04201D1002004E004EBC40006EBE5
:1081E00040001C308046024608AB284600F084FC64
:1081F00090B10020387004208DF8000008984A469D
:10820000CDE903500C4802900C486946806800F0A4
:10821000F5FF09B0BDE8F08395F8C5024146401C62
:10822000641C85F8C502E4B23079A042D0D80120A0
:1082300038700020EDE700006D8302004030002020
:1082400070B500240F4D10E0686800EBC40630786C
:1082500002F078FC7178012901D0012100E00021B1
:108260004140307800F030FA641C28788442EBDB1F
:10827000D5E90401084303D0BDE8704003F0E6BE31
:1082800070BD00007030002030B59FB00C46054630
:108290007C216846FEF703F9ADF8024003208DF813
:1082A0000000044801954168002901D068468847CC
:1082B0001FB030BD403000202DE9F041044690F859
:1082C000C602884600EB8001C1EB801004EB40063B
:1082D0001746304603F0CAFA050042D0D4F8CC0263
:1082E00006283ED204EBC0107622A0F8D272D4F851
:1082F000CC02314604EBC01000F53570FEF7B6F83D
:108300000026B8F1000F06D0D4F8CC0204EBC01060
:1083100080F8D06206E0D4F8CC12022004EBC11140
:1083200081F8D002D4F8CC0204EBC010C0F84C5352
:10833000D4F8CC020C4D401CC4F8CC02E968884249
:108340000FD12746002407E007EBC41101F5347074
:10835000D1F84C138847641CE8688442F4D3C7F80A
:10836000CC62BDE8F081000040300020F0B5154639
:108370009FB0002281F8C822074691F8C6020C4639
:1083800000EB8002C2EB801001EB400003F06EFABC
:10839000060009D07C2208496846FEF767F8ADF868
:1083A000025068460197B0471FB029462046BDE8F5
:1083B000F040FFF769BF00005CC60200F0B50D4653
:1083C00089B004464FF4BA61FEF769F82021684687
:1083D000FEF765F8154E2946B06800F0D7FE002874
:1083E00021D1A4F8CA52C4F8CC0284F8C70284F898
:1083F000C60284F8C5020E4801272A46006820609C
:1084000002208DF80000ADF810702068CDF8120041
:108410000848CDE902046946B06800F0EFFE002884
:1084200001D184F8C87209B0F0BD000040300020CE
:10843000A03600206D83020010B50021024800F034
:108440006BFD80F3100010BDFC3D00204FF4803226
:108450008A400168C1F848230068C0F808237047C3
:108460004FF4A07202EB810189B200F09DB92DE9B1
:10847000F04105460E464FF4A07000EB860081B235
:1084800028684FF48034B440984622F07F47C0F803
:1084900008432868C0F84843286801F0E8FF2868C6
:1084A00000EB8600C0F840752868C0F84443B8F176
:1084B000000F02D02868C0F80443BDE8F0810068CE
:1084C000D0F804057047000070B54379224C44F899
:1084D00023204279241D04EBC202204B1579204A47
:1084E0009A1AD3082DB10824022000EB03401DA1E5
:1084F0002EE002680D88C2F8085590F904208978AA
:10850000002A4FEA411106DA02F00F0202F1E022DE
:1085100082F8141D03E002F1E02282F8001490F9C1
:108520000410012201F01F0502FA05F5490989002E
:1085300001F1E021C1F80051417904EBC1010A7158
:10854000417944F831000320002400EB03400EA1E0
:1085500001F0D4FC204670BDC830002090D302004A
:1085600030D3020052544320696E7374616E6365A8
:1085700020616C726561647920696E697469616CEF
:10858000697A65642E0000005254433A20696E698E
:108590007469616C697A65642E00000090F90400CA
:1085A000012100F01F0291404009800000F1E0200D
:1085B000C0F8001270470A46022100F07BB84FF461
:1085C000827100F0F1B80068012101607047006815
:1085D0000121416070472DE9F05F07460C464FF4DA
:1085E000A07000EB84001FFA80FA38684FF48036E0
:1085F000A6409B4622F07F45C0F848633868C0F823
:1086000008633868D0F8048500EB8402D2F84095FE
:10861000C2F840855146386801F029FFA9EB0800EF
:1086200020F07F40012806D1102002F0C9F9514600
:10863000386801F01CFF3868D0F80485C0F844633E
:10864000A5EB080121F07F413868012900EB840087
:1086500010D0C0F840553868D0F804156FF07F4C42
:108660006A1A521E22F07F42ACEB0B03934217D3DF
:1086700062B118E06D1CC0F84055102002F0A0F95E
:108680003868D0F8040540450AD10CE000EB8400BE
:108690006D1CC0F840553868D0F80405884202D0F7
:1086A0000D20BDE8F09F01223146384600F002F867
:1086B0000020F6E70368C3F84413002A02D00068DC
:1086C000C0F80413704700002DE9F84F0E463449F6
:1086D000804601EB5001C007097801D00F0901E085
:1086E00001F00F074FF00009424601204946FDF70F
:1086F000AAFEDFF8B0A004460D46052F4ED2DFE8F3
:1087000007F003161B282C00002E47D001214046FD
:1087100003F0BAFB8DF800906846FEF787FC5046E0
:10872000D0E904120C431543CAE9044532E00EB106
:10873000022114E0002112E04EB10321404603F073
:10874000A3FB4046BDE8F84F012103F027BF0121FC
:1087500005E0002E22D1042101E02EB10321404684
:10876000BDE8F84F03F090BB0021404603F08CFBBE
:108770000021404603F012FF8DF800906846FEF796
:1087800055FC5046E243D0E904341A4024EA05017E
:10879000CAE904219DF80000FEF76CFCBDE8F88FE3
:1087A000983700207030002010B5006842581AB188
:1087B00001F05DFE012010BD002010BD826883889D
:1087C0001A4003689A5C0A708168491C816070478E
:1087D000C26883881A4003689954C168491CC16003
:1087E000704710B50446C0B2FEF7F6FB204610BD38
:1087F0000969002900D008477047000070B5088853
:108800000D46A0F52061773916D10C480C49401A65
:10881000C108032000EB01440AA1204601F06EFBD1
:10882000A88810A1C01E82B20D48134602802046BF
:10883000BDE8704001F06DBB70BD0000A8D3020020
:1088400030D30200415454204D545520657863685C
:10885000616E676520636F6D706C657465642E0072
:10886000282A0020426C65204E5553206D617820E7
:1088700064617461206C656E677468207365742030
:10888000746F2030782558282564290010B50949CF
:10889000094800F0C2FB08B1FEF7A0FAF72106482C
:1088A00000F0AFFB002803D0BDE81040FEF796BAF9
:1088B00010BD0000FD8702005034002070B50D4649
:1088C00001F11004C98A102901D9092070BD01F0F5
:1088D0003EFC686030B1E2880023A16801F09DFC95
:1088E000002070BD042070BD70B50D4601F110046C
:1088F00089690988102901D9092070BD891C01F0F6
:1089000026FC686068B100230222A16801F085FCA2
:10891000A068E16802230288686801F07EFC0020FC
:1089200070BD042070BD000010B50B48FFF7C7FDF7
:10893000094A083AD2E90434C018D2E9063244F1AF
:108940000001C31A71EB020204D24FF0807280184A
:1089500041F1000110BD00009030002010B5C0B200
:10896000FFF7E6FA0446007802F0ECF8014660787A
:10897000012801D0012000E0002090EA010F08D07A
:108980000449D1E90401084303D1BDE8104003F0D4
:108990005DBB10BD703000202DE9FC5F0E008346EA
:1089A000DDE90C47C6F1000098469246814600D4A6
:1089B0000846012503E000BF90FBFAF06D1C50450E
:1089C000FADAA84500D9454624B1002E01DB780724
:1089D00000D5641EB80702D5B8F1000F0AD0F80719
:1089E00008D13CB1A54205D220215846641EFFF7AC
:1089F0007DFAF6E7002E02DA4E462D2102E07807D6
:108A000003D52B215846FFF771FA07F0030002281F
:108A10000BD1B8F1000F08D13CB1A54205D23021ED
:108A20005846641EFFF762FAF6E7CDE90047434671
:108A300052463146584603F057FDBDE8FC9F000002
:108A400070B50D46044600684FF4887101F07EFF52
:108A50004FF49071206801F079FF4FF49271206813
:108A600001F074FF4FF4A271206801F06FFF4FF422
:108A7000AC71206801F06AFF20681149C0F8041346
:108A80002068690740F30730090E002806DA00F075
:108A90000F0000F1E02080F8141D03E000F1E02059
:108AA00080F800142068012140F3073000F01F0215
:108AB00091404009800000F1E020C0F8001170BD35
:108AC00010034200024600201268530713D502F03B
:108AD0000300012802D002280CD105E0C2F3831064
:108AE0000B68801C184404E00223086803EB9252D0
:108AF000104408600120704710B509892AB1D08858
:108B0000491C814218D1002010BD90F8C62202EB0A
:108B10008204C4EB821200EB420212899142F2D02D
:108B2000491C198090F8C61201EB8102C2EB811139
:108B300000EB4100008902E01980D088401E588077
:108B4000012010BD007DC0F3C100012803D003281F
:108B500001D0002070470120704700000A4810B57E
:108B6000807860B1002401E0022C06D02046FEF798
:108B700043FF641C042CF7D310BD0324F6E7BDE8C3
:108B80001040FEF759BF000028300020034801794B
:108B9000C90702D00078FFF779B870472830002065
:108BA000F721018017214180002101714171FB21D2
:108BB00081711B21C17170472DE9FF4100262348B7
:108BC00000F09CF92148001F074600F097F9204C5F
:108BD00060680090A56800E000986946284004EBB2
:108BE00080000C30FFF76EFF0028F5D101AA009934
:108BF00001EA050304EB8303491CDB6842F82030DB
:108C0000401C00910228F2D3019800F003000128D3
:108C10000BD0022810D10198032101EB905000994C
:108C2000BDF80A6001EB900005E00198BDF80A600C
:108C3000C0F3831008440090384600F05CF908B196
:108C40000098606004B03046BDE8F081F83D002037
:108C5000E03900208AB04FF48041002001F0D0F9C3
:108C600008B1FEF7BBF801F021F8FEF7FDF808B1F6
:108C7000FEF7B4F8182236496846FDF7F7FB354889
:108C8000069035494FF48070CDE90701099007231C
:108C9000324A06A96846FEF74DF908B1FEF79EF87C
:108CA0002F490120FEF7A8FF08B1FEF797F86946A3
:108CB0000020FEF7E5FE08B1FEF790F82A4C29489F
:108CC000CDE9000400256846FEF712FB08B1FEF767
:108CD00085F801F0ABFA08B1FEF780F801F038FD35
:108CE00008B1FEF77BF869460120009501F0D0FB42
:108CF00008B1FEF773F8684601F062FC08B1FEF7B0
:108D00006DF8FFF7C3FD194800901948CDE901043B
:108D100069461848FEF77CFC08B1FEF75FF802F0E0
:108D200069FF15A0FDF76CFF1C481D49401AC008DB
:108D3000032101EB00401BA101F0E0F802F086FFE7
:108D400000F0C2FF0028FBD101F084FAF8E7000030
:108D500010C602003832002038330020B9C00200AB
:108D6000757B02007D810200FC2F00202975020026
:108D700001B1020038340020424C45205541525484
:108D80002063656E7472616C206578616D706C65CE
:108D900020737461727465642E0D0A00A8D30200FA
:108DA00030D30200424C4520554152542063656E39
:108DB0007472616C206578616D706C65207374618C
:108DC000727465642E0000002DE9F047C5881E1DF1
:108DD000B6FBF5F78946B6FBF5F1044605FB176CC3
:108DE000407916686843DDF820A0F718001F874215
:108DF00000D9C61A166001E02468491E0029FBD17B
:108E0000A5EB0C078846B74216D818E004EB0C0017
:108E1000001D09EB0803BAF1000F3A4602D00146E3
:108E2000184600E01946FDF721FB2468F61B4FF0B9
:108E3000000CB844B54201D9374600E02F46002E59
:108E4000E4D1BDE8F087000030B5024651B101F031
:108E5000F5F80021074C08E034F821301568AB42E2
:108E600002D11160002030BD491C8142F4D305209D
:108E700030BD00000000000010B531B1B2FBF3F4CA
:108E800003FB14241CB1092010BD0E2010BD01608D
:108E90000021416081608281C381084610BD70B5A8
:108EA0000C460546FDF7B6F9002802D0218828684F
:108EB000084470BD10B50A8849888A4203D1FDF77D
:108EC000EBF9012010BD002010BD70B50C46054621
:108ED000FDF7C5F9002802D061882868084470BDF4
:108EE00010B50A8849888A4203D1FDF7AFF90120FD
:108EF00010BD002010BD002100F009B8012100F0D4
:108F000010B808B56A46FDF71CFA009808BD08B508
:108F10006A46FDF7FCF908BD08B56A46FDF7DEF9BB
:108F200008BD08B56A46FDF7E5F9009808BD08B523
:108F30006A46FDF713FA009808BD38B504460025C7
:108F40008DF800506846FEF771F82168626808687D
:108F500090420ED9401E08600178238AE26801FB26
:108F60000325227A2168101AC0B20A79824200D2FF
:108F700008719DF80000FEF77DF8284638BD38B529
:108F8000054600208DF800000C466846FEF74EF8B6
:108F9000E868298A201AB0FBF1F12A681068431C9E
:108FA000136001709DF80000FEF764F838BD10B53D
:108FB00030B1017A42680368891AC9B21A6006E0C2
:108FC0000E2010BD03681A68541C1C601170491EE5
:108FD000C9B2F7D2006800210171084610BDC2086D
:108FE00000F007030120895C98400840704710B5E5
:108FF000C20800F00703885C01249C402043885489
:1090000010BD28B1A1F11702E12A03D30720704750
:109010000E20704741800020704710B560B101619B
:10902000F72120F8021B20F8021BFB2100F8021B8D
:10903000FFF7B6FD002010BD0E2010BDF0B58588ED
:1090400093B00C46002D39D1018800263F4F2429CA
:109050003BD006DC102909D011290CD0232958D186
:109060004FE03A290BD0552953D129E0014620463B
:1090700002F0E4F84DE0A01DFFF792FD49E0224622
:10908000408934F8061F814200D8084660801728BE
:1090900000D217206080106970B1607960B1D7E9A3
:1090A0000001CDE90301ADF80E506088ADF8100065
:1090B000136903A9104698476671267113B0F0BD75
:1090C0000146204602F07CF923E0011D2C2206A86F
:1090D000FDF7CCF9BDF81800BDF81C2004EBC00169
:1090E0004A732269AAB1D7E90423CDE90423ADF874
:1090F0001200487B8DF814002269204604A990478D
:1091000007E0017A207B884200D201462846FEF71C
:10911000D5FFA07A0028D1D0E1882846A5DF012517
:1091200080B11128CAD001F0F1FB02460848094974
:1091300013B0401AC00805EB0040BDE8F04006A19E
:1091400000F0E0BEA672E572B8E70000D8C60200E3
:1091500038D3020030D3020073645F626C655F67CE
:10916000617474635F65786368616E67655F6D7471
:10917000755F7265717565737428292072657475E1
:10918000726E65642025732E000000002DE9F04109
:109190000F4604004FF000050DD002F03BFB3946AE
:1091A0002046FEF77BFF218881421ED10020054624
:1091B0004FF6FF7609E00E20BDE8F081626832F8D4
:1091C0001020B24206D1401C80B28142F6D82069FC
:1091D00001F00AF8002021880BE0626832F81020C4
:1091E000B24204D1616821F810702846E4E7401CBF
:1091F00080B28142F1D80420DEE700002DE9F0477B
:1092000091460D4604004FF0000742D0EDB302F046
:1092100001FB49462046FEF741FF2978062902D284
:109220002188814202D10720BDE8F087A16800EBC8
:10923000800601EB860001F094F830B149462846DB
:1092400002F054FB08B13846EEE72978DFF8488091
:1092500058F821202AB12069B8B129469047002842
:10926000E2D1A068294600EB860001F099F80700DA
:1092700006D0297858F8210010B1686800F097FFEF
:10928000A068494600EB860000E002E002F02AFAFE
:10929000D9E70E20C8E70000F0C60200F8B50500C7
:1092A0000C4620D0002C1ED02888112806D0A0F112
:1092B00030011F2902D950381F2814D8AE88204603
:1092C0003146FEF7EBFEADF80000218881420AD05E
:1092D0002988112908D0A16800EB800001EB8000EB
:1092E000314602F0FFF9F8BD62684FF6FF7122F8CF
:1092F00010106946E06801F053F8F8BD2DE9F0411F
:10930000044600F1140700F10A05867C007A86B055
:1093100001F10208002814D08BDF14216846FDF704
:10932000BEF833462A46394640468CDF06218DF882
:1093300000100190002804D0616A002901D068461D
:10934000884706B0BDE8F0814FF4C871018206215C
:109350004181182181810021C1817047017DA022B6
:10936000C2825022028321F018010022428341F080
:1093700004010175012141757047F0B520B11AB1A2
:10938000032903D00720F0BD0E20F0BD0479034669
:10939000051D0CB10420F0BD00211688084633F8E5
:1093A0002170B742F7D0491C11F0FF01F7D003EB51
:1093B0008401641C2C7012680A60F0BD18B1002191
:1093C0004171084670470E20704710B50B460400E7
:1093D00002D0980702D009E00E2010BD580705D42E
:1093E000D80603D4180701D4072010BD2046FFF784
:1093F000E5FF580701D501206071A271002010BD62
:1094000070B50D46040010D00026266066606262CA
:10941000EDB128792072287BA074296839B10E2219
:1094200004F11400FDF722F804E00E2070BD204680
:10943000FFF794FFA86830B10168C4F80A104068CB
:10944000C4F80E0009E02046FFF77EFF05E0FFF7B5
:1094500085FF2046FFF778FF267204F12800A064FC
:109460001F20A4F84C00002070BD2DE9F04F0446E9
:1094700089B0002088460746069014216846FDF70B
:109480000EF804F1140004902046FFF75BFB010086
:1094900004F14800059011D002208DF80000CDF8AD
:1094A0000480616A68468847002005998ADF414642
:1094B0002046FFF723FF09B0BDE8F08FA079002117
:1094C00007916179834621B301210691824694F880
:1094D00004900026B8F81C003546089012E004EB12
:1094E0008502D8F818000899FDF786FE28B1761C89
:1094F000F6B2BAF1000F0DD002E0BAF1000F06D1BA
:109500006D1CEDB24D45EAD3BAF1000F02D04E45C5
:1095100001D009E046B19DF8080040F004008DF844
:10952000080001207F1C0790CDF80480BBF1000FDC
:1095300002D00698874203D0079830EA0B0007D084
:1095400000208DF8000041462046FFF7D7FE02E0DC
:1095500003208DF80000616A09B168468847002041
:1095600005998ADFA7E770B50D46014601F10802AB
:109570000C1D28460988143586B0102935D01B29C2
:109580001FD01D2917D0202942D106461421684634
:10959000241DFCF784FF706A002839D005208DF85F
:1095A000000004952068019060680290207A8DF890
:1095B0000C00716A2AE006B01146BDE87040FFF762
:1095C00054BF064614216846241DFCF768FF207826
:1095D00001281DD1706A00281AD004208DF80000DF
:1095E000049520788DF80400E3E7064614216846C8
:1095F000FCF755FF07208DF80000201D0190208802
:10960000ADF808000495716A002901D068468847C2
:1096100006B070BD30B585B0040025D01421684671
:10962000FCF73DFF8BDF2046FFF78CFA012528B1C0
:10963000616A19B18DF800506846884704F1480105
:1096400004F114008ADF044608280FD074B10848DA
:1096500008492246401AC00805EB004006A100F068
:1096600051FC204605B030BD0E20FBE70020F9E795
:1096700048D3020030D3020073645F626C655F6799
:1096800061705F7363616E5F737461727420726581
:109690007475726E656420307825780000F1804022
:1096A0000068002800D00120704708B500F1804014
:1096B000002101600068009008BD000070B50B4CEF
:1096C000207808B185250FE00020A060606020614F
:1096D000E060074801F056F9054601F085F808B941
:1096E00001F03AF901202070284670BDB8360020FC
:1096F0006980020038B500258DF800506846FDF7F6
:1097000095FC074CE068401EE060E06810B901F08D
:1097100049F9A5709DF80000FDF7ACFC38BD0000CC
:10972000B8360020F0B505460478154889B01646CD
:1097300040F82420124A0869121DA2F1080742F8D5
:109740002400487F385520226846FCF78FFE049499
:109750002878385C48B10EB10A4A00E00022694618
:10976000281D01F0B1FB09B0F0BD0EB1064A00E0C2
:109770000022694605F10C0001F05CFAF3E70000F5
:1097800054300020A5C3020049C2020030B403785F
:10979000054CE35C1BB130BC001D01F0CBBB30BC01
:1097A0000C3001F0AFBA00005030002030B4037824
:1097B000054CE35C1BB130BC001D01F03DBC30BC6E
:1097C0000C3001F015BB0000503000200FB408B57C
:1097D0000399002904D004AA00926A4600F00FF809
:1097E00001B05DF814FB10B582680446002A05D06C
:1097F000D4E90403216898470020A06010BD2DE93A
:10980000FC4791460C00804676D014F8011B39B114
:1098100025290ED04046FEF769FB20780028F4D1B8
:1098200098F80C00002867D04046BDE8FC47FFF7D9
:10983000DABF0020012221782B291BD02D2902D04C
:10984000302908D102E040F0010001E040F00200C0
:10985000641C002AEFD100252A290ED02178A1F11D
:1098600030020A2A11D205EB850201EB4205641C85
:10987000303DF1E740F00400EAE7D9F800100B1D95
:10988000C9F800300968641C0D44217800232E2992
:109890000BD114F8011FA1F130020A2A05D203EB03
:1098A000830201EB4203303BF3E76C290DD06829BA
:1098B0000BD0692921D00BDC252918D0582931D0AB
:1098C00063290ED0642915D117E014F8011FECE7C5
:1098D000702969D0732932D075291BD0782909D114
:1098E00020E0D9F80000011DC9F8001001784046B9
:1098F000FEF7FCFA641C90E76CE0D9F800100A1D32
:10990000C9F800200968CDE900500A224046FFF757
:1099100043F8EFE7D9F800100A1DC9F800200968DC
:109920000A2206E0D9F800100A1DC9F800200968CB
:109930001022CDE90050404602F0D6FDDAE7D9F812
:10994000001000270A1DC9F800200E68C00705D1C5
:1099500012E04046761C7F1CFEF7C8FA31780029D9
:10996000F7D104E0202140466D1EFEF7BFFABD424C
:10997000C0D9002DF6D1BDE74EB13046FCF79AFDB7
:10998000074604E0202140466D1EFEF7AFFABD42B7
:1099900006D9002DF6D103E04046761CFEF7A6FA64
:1099A00031780029F8D1A5E7D9F80000011DC9F8E0
:1099B0000010056830214046FEF798FA78214046AD
:1099C000FEF794FA08200021CDE900010346102299
:1099D0002946B0E7BDE8FC8770B541EA4201DDE900
:1099E00004564FF0A04441EA830141EA052104EB0B
:1099F000800041EA0641C0F8001770BD70B541EA29
:109A00004201DDE904564FF0A04441EA830141EAF6
:109A1000052104EB800041EA0641C0F8001770BD43
:109A200070B541EA4201DDE904564FF0A04441EA35
:109A3000830141EA052104EB800041EA0641C0F8B8
:109A4000001770BD70B541EA4201DDE904564FF0E0
:109A5000A04441EA830141EA052104EB800041EA88
:109A60000641C0F8001770BD1CB500220B460092DD
:109A700011460192FFF7D4FF1CBD1CB500220B4616
:109A8000009211460192FFF7DDFF1CBD1CB50021BD
:109A900000910B46012201911146FFF7C1FF1CBD49
:109AA0001CB5002100910B46012201911146FFF7E0
:109AB000C9FF1CBD4FF0A04202EB8000D0F8002788
:109AC00022F44032C0F80027D0F8002742EA0141D2
:109AD000C0F80017704701224FF0A043824011B137
:109AE000C3F808257047C3F80C25704718B5084B14
:109AF0006C4601441B68009306E000BF54F8203018
:109B0000D3F81035401C08C28142F7D818BD0000B8
:109B100018C70200034908B5084400210160006825
:109B2000009008BD0060004002494058012800D064
:109B3000002070470060004030B5154A0146002003
:109B4000D2F8104423460AE0DB681D79854205D12E
:109B5000401C0A28F6DB4FF0FF3030BD1B68002B9D
:109B6000F2D1431CF9D0CB681871D2F8103443B14C
:109B7000DB68CC681B682360D2F81024D2681160BF
:109B800030BDC2F81014C96800220A6030BD000060
:109B9000E03900207047FCF7DFBD704708B5034A85
:109BA00000924023024A00F005F808BD21BD0200E2
:109BB00048380020F0B595B01C4615460F460846BB
:109BC0001A9E00F00DFB182109A8FCF768FC0E9600
:109BD000CDE909540023082203A9384600F015FBFB
:109BE00005980690BDF81000ADF81C00BDF81200F5
:109BF000ADF81E0000208DF821000398082600F023
:109C00000300012802D0022818D032E0039833461E
:109C1000850AC0F3C2008DF8200003980FA9C0F395
:109C20008314A200384600F0F0FA09A8009006ABB1
:109C300022460FA9284600F02FFA1AE00398840D57
:109C4000C0F3C2008DF82000082C01D2254600E0A8
:109C5000082533462A460FA9384600F0D6FA2E4486
:109C6000641B09AB06AA29460FA800F071F9002C65
:109C7000EAD1384600F0BAFA15B0F0BD0A4A012917
:109C800002EBC00007D0022907D0032907D004291E
:109C900007D00020704702207047042070470079E9
:109CA000704740797047000030D3020010B5FFF7CD
:109CB00072FF04210348FFF73FFF02490120C968F2
:109CC000487110BD20D302002DE9F04F8DB0FEF792
:109CD00025F918B100200DB0BDE8F08F7E4C4FF093
:109CE000000BC4F818B4BFF34F8F60680290A568EA
:109CF000D846284004EB80000CE000BFD4F81804DC
:109D000070B921680298814201D86160E2E7284079
:109D100004EB80000C3002A9FEF7D4FE0028EDD140
:109D2000002005AA029901EA050304EB8303491CFC
:109D3000DB6842F82030401C02910228F2D30598DB
:109D400000F00300022802D001284DD0AAE00598B7
:109D50005022810D8946B2EB905F00D850210E460B
:109D600066F39F50059008315C4800F0F0F9070059
:109D700078D000F035FA4346082205A9384600F0AD
:109D80004CFA029908F1080A2940681A8000001D5F
:109D9000864222D9504D0C3530B1C2B204EB81015C
:109DA000301A90460C3104E02946F2B20025904664
:109DB0002846C6B25346384600F02FFA0AEB08038D
:109DC00025B132462946384600F027FA029909F1B2
:109DD000030001EB900002903BE004EB810153464D
:109DE000324638460C31EFE70598C0F38310062859
:109DF00000D30620059960F38911C1F38310801CFC
:109E000005918100354800F0A2F907004AD000F022
:109E1000E7F94346082205A9384600F0FEF908F1A3
:109E2000080800260FE00298434600EA0501401C9E
:109E300004EB81010290042238460C3100F0EDF968
:109E400008F10408761C0598C0F38310B042EAD8E4
:109E500047B1D4F81054D4F8180478B1384600F05B
:109E6000C5F934E01EE0E8684079012804D12A6889
:109E70002846394612689047E8680568002DF2D1F7
:109E8000384600F0B3F98DF800B06846FDF7CEF81B
:109E9000D4F8180408B9029860609DF80000FDF736
:109EA000E9F814E0D4F8104405E0216820468968F8
:109EB0008847E0680468002CF7D109480949401A2E
:109EC000C008022101EB004007A100F017F8FEF7DF
:109ED00025F880F00100FEE6E0390020DCD3020026
:109EE000A8D3020030D302004261636B656E6473D5
:109EF00020666C75736865640000000000231A46D4
:109F000001F0DABF08B5012300926A4601F0D4FFE0
:109F100008BD1CB5CDE9002302236A4601F0CCFF41
:109F20001CBD3EB5069C8DE81C0003236A4601F06B
:109F3000C3FF3EBDF0B587B00DF1300C9CE8F000DA
:109F40008DE8FC0006236A4601F0B6FF07B0F0BDBD
:109F50002DE9F0470E4680461C469246082940D817
:109F600094F80C90002020731946104601F062FB13
:109F70000025B54206D218F805201BA12046FFF7A0
:109F800025FC03E01AA12046FFF720FC6D1C082DDC
:109F9000EFD318A12046FFF719FC0025B54212D2D5
:109FA00018F805707E2F08D8FCF75CFA0068C05DD1
:109FB00010F03E0F01D03A4600E02E220EA12046BE
:109FC000FFF704FC03E00DA12046FFF7FFFB6D1C2B
:109FD000082DE3D301222146504601F00DFB84F801
:109FE0000C90BDE8F087000020253032780000009A
:109FF000202020007C0000002563000020000000DD
:10A000000B4810B5FF218160002101604160C0F85C
:10A010001814C0F8141480F82014064800F0E4F86E
:10A02000002803D1044800F014FA002010BD0000FD
:10A03000E0390020DCD30200F8C8020002480349DE
:10A04000401AC00870470000C8D3020030D3020095
:10A0500013B56846FEF7F8FE08B100201CBD0248A3
:10A06000009950F831001CBD30D3020070B509488A
:10A070000125D0F8104480F8205407E0E0684571CD
:10A080002168204649688847E0680468002CF5D1BB
:10A0900070BD0000E03900202DE9FF4781460C9D8E
:10A0A00000200C462F7B28739846164629461846F2
:10A0B00001F0C0FA072E42D2DFE806F004090F16BD
:10A0C0001F2A360049462846FFF780FB37E04946FD
:10A0D00028462268FFF77AFB31E0D4E9002349469D
:10A0E0002846FFF773FB2AE0A0680090D4E900231C
:10A0F00049462846FFF76AFB21E0D4E90201CDE991
:10A100000001D4E9002349462846FFF75FFB16E02B
:10A1100004F1080007C88DE80700D4E90023494688
:10A120002846FFF753FB0AE004F108000FC88DE84A
:10A130000F00D4E9002349462846FFF747FB0022D9
:10A140002946404601F058FA2F73BDE8FF872DE9F4
:10A15000F041058A80462D1F4819C01CB0FBF5F060
:10A16000C6B24046FEF7E9FE041E19D00020207159
:10A1700001206071E58000272546761EC4F8008026
:10A180000BE04046FEF7D9FE60B16179491C617170
:10A19000286005467F1CC0F80080B742F1D32046F6
:10A1A000BDE8F081204600F002F80020F8E72DE934
:10A1B000F041457901466B1E002201E00968521CFE
:10A1C0009A42FBD30F680146002605E038460C682A
:10A1D000FEF7D5FE2146761CAE42F7D3BDE8F081EE
:10A1E0000121001DFEF78DBEFEF7E1BE10B504464D
:10A1F0000121001DFEF79BFE10F0FF0F04D1204649
:10A20000BDE81040FFF7D3BF10BD1CB5019201227D
:10A21000009201AAFEF7D8FD1CBD1CB501920022D8
:10A22000009201AAFEF7D0FD1CBD0000064910B542
:10A2300000204870091D0860BFF35F8F0349044880
:10A2400000F0F6FA002010BDD430002090C70200C4
:10A250003C38002008B500208DF800006846FCF767
:10A26000E5FEF1EE100A20F09F00E1EE100ABFF3C8
:10A270005F8F08494020C1F880029DF80000FCF77C
:10A28000F9FE00F0B1FA08B141DF08BD20BF40BFC0
:10A2900020BF08BD04E000E070B504460C48012171
:10A2A000FEF73AFEBFF35F8F0025002809D1012099
:10A2B000074E042C08D0311F4A781AB1BFF35F8FC4
:10A2C000356070BD0C70487001F062FDF6E700006B
:10A2D000D83000202DE9F8430446002790460E466A
:10A2E0008DF800706846FCF7A1FE204600F039F8B2
:10A2F00038B105279DF80000FCF7BCFE3846BDE8E4
:10A30000F88320680568B8F1000F05D10168204680
:10A3100000F03FF821680860E268012A0CD0022AA8
:10A320000ED0042A11D06068082A13D005FB020160
:10A330003046FCF79BF8DDE76068405D3070D9E798
:10A34000606830F815003080D4E7606850F8250068
:10A350003060CFE700EBC501D1E90001C6E900019B
:10A36000C8E7016808684968884201D10120704740
:10A370000020704701680A6849688068884201D9EE
:10A38000491C00E00021914201D1012070470020CA
:10A3900070478068884201D9481C70470020704788
:10A3A0002DE9F84304464FF000080E468DF8008072
:10A3B0006846FCF73BFE2046FFF7DCFF07000AD0AB
:10A3C000207C40B14FF004089DF80000FCF752FEDD
:10A3D0004046BDE8F8832068456841682046FFF79D
:10A3E000D8FF2168486037B1206801682046FFF730
:10A3F000D0FF21680860E268012A14D0022A16D032
:10A40000042A19D0082A1CD06068314605FB0200D6
:10A41000FCF72CF8204601F0F1F921688A688242A5
:10A42000D2D28860D0E7616830784855F2E7616839
:10A43000308821F81500EDE76168306841F82500A3
:10A44000E8E7D6E90001626802EBC502C2E9000153
:10A45000E0E7826800219160826811618268516141
:10A460008268D1608268516080680160704708B579
:10A47000002242504058009008BD000020B103491E
:10A4800009680160002070470E2070477CC90200F7
:10A490002DE9FE4307460E460846FFF7EFFF00286A
:10A4A0007CD100250095019506208DF800704FF0B5
:10A4B0000108ADF8040002958DF80280694620205D
:10A4C000326869DF3649374A891AC908012202EB26
:10A4D000014430B100F01AFA024620463249FFF733
:10A4E00011FD00958DF801508DF8028001950295BF
:10A4F0008DF8038069464020326869DF30B100F092
:10A5000005FA024620462949FFF7FCFC00958DF824
:10A510000070F720ADF802000195029569462320EE
:10A52000326869DF30B100F0F1F902462046204977
:10A53000FFF7E8FC0095019502958DF800806946CB
:10A540000120326869DF30B100F0E0F902462046B0
:10A550001849FFF7D7FC4FF4B060009001950295C1
:10A560006946A120326869DF30B100F0CFF90246B8
:10A5700020461149FFF7C6FC0095019502958DF81C
:10A5800000506946A020326869DF30B100F0BEF9A2
:10A59000024620460949FFF7B5FC0020BDE8FE83CE
:10A5A000B8D3020030D3020054D102009CD1020083
:10A5B000E8D10200B4D0020000D1020060D0020055
:10A5C0002DE9F0410546076860DF804619491A48C1
:10A5D0002A68081AC608BA4219D9022000EB0644B4
:10A5E00016A12046FFF78AFC20463A461FA12B6899
:10A5F000FFF78FFC4FF08050D0F80C0129688002E3
:10A6000000F10050421A204625A1FFF77BFCB8F16B
:10A6100000004FF001040AD000F078F9024604EB84
:10A6200006402AA1FFF76EFC4046BDE8F0812F48A6
:10A630000470F9E7B8D3020030D30200496E737595
:10A640006666696369656E742052414D20616C6C69
:10A650006F636174656420666F722074686520534F
:10A660006F66744465766963652E00004368616EA9
:10A670006765207468652052414D2073746172745F
:10A68000206C6F636174696F6E2066726F6D20302D
:10A6900078257820746F20307825782E000000000F
:10A6A0004D6178696D756D2052414D2073697A65F1
:10A6B00020666F72206170706C69636174696F6E7F
:10A6C00020697320307825782E00000073645F6263
:10A6D0006C655F656E61626C6528292072657475B2
:10A6E000726E65642025732E000000003F3100204B
:10A6F00030B51548ADF5017D0078002821D04FF424
:10A70000FA7500BFADF8005280A9684661DF38B124
:10A71000052816D00DF5017DBDE83040FCF75EBB85
:10A720006C460A497DA800F083F806E0D0E90021D4
:10A73000204690477DA800F092F87F980028E1D04D
:10A74000F4E70DF5017D30BD3F31002080C90200E6
:10A750007CB5194C207808B108207CBD0120A07080
:10A76000002001F0AFFA112819D0002001F0C2FA40
:10A7700012480026006801908DF800606846FCF7DA
:10A7800055FC0F4901A810DF05000AD000202070F9
:10A790009DF80000FCF76EFC2DB128467CBD002022
:10A7A0007CBD0120F3E7A670667001F03BFB012041
:10A7B00001F0A0FAF3E700003C31002014C90200C8
:10A7C000596D02000EB50749684600F031F805E002
:10A7D000D0E900108847684600F041F80298002848
:10A7E000F6D10EBD30C90200014800787047000064
:10A7F0003C3100201FB568464BDF30B1052814D02E
:10A8000004B0BDE81040FCF7E9BA084901A800F01F
:10A810000FF806E0D0E900210098904701A800F069
:10A820001EF803980028E6D0F4E71FBD9CC902007B
:10A83000016009684160AFF3008010B5D0E90021E4
:10A840005368994201D1002104E0D1E90034A342C8
:10A8500002D01946816010BD08314160F0E781687F
:10A8600000290BD0026892680A44826041684B68F4
:10A870009A4203D108314160FFF7DFBF704770B5DE
:10A880000D460646446804E0B2682946904718B170
:10A89000246820680028F7D120682860256070BDF2
:10A8A00040680068704741680868002801D0026865
:10A8B0000A60704702460020526806E08B4203D1CE
:10A8C00008681060012070471A461368002BF5D104
:10A8D000704700000C4A10B502F594730EE0991A07
:10A8E000C91001EBD171491002EBC1010C6884421F
:10A8F00001D90B4602E005D201F108029A42EED3DB
:10A90000002010BD486810BDB0C7020000B5FFF7B9
:10A91000E1FF002800D1014800BD00009CC70200F3
:10A920004058002800D00120704708B5002242504E
:10A930004058009008BDD0F80403084000D0012022
:10A9400070474058002800D00120704708B5002209
:10A9500042504058009008BD08480068012110F09E
:10A96000010F06D14FF0E020C02280F80024C0F88B
:10A9700000110349012008607047000000E100E079
:10A98000180500400649024600200B790BB18520CE
:10A9900070470A6001220A7100224A717047000064
:10A9A0005C30002004490120086004480168C1F3BC
:10A9B00000410029FAD170470C0000401804004003
:10A9C000002802D0014980010847704761C7020092
:10A9D0002DE9F0418846054600F0F6FD234E00289B
:10A9E00028461AD0FDF7EEFA304490F84800800966
:10A9F000032802D001280ED007E04FF0A040D0F885
:10AA00001005E84010F0010F05D003212846BDE8ED
:10AA1000F041FFF74FB80221F8E700F0E1FD002810
:10AA200022D02846FDF7CEFA04464FF4807000EBA2
:10AA300084000F4F81B207EB8400D0F8102542F05C
:10AA40000102C0F810250846FFF764F8B8F1000FBE
:10AA50000AD02846FDF7B6FA56F82000002803D0A1
:10AA60000120A040C7F80403BDE8F081CC360020E7
:10AA7000006000402DE9FC41DFF8BC80044608EB93
:10AA80000400002790F930001346C0170E46401C02
:10AA900001D008274CE0B0781946C0F340022046A8
:10AAA000FDF76CFA0546401C41D0B078410719D437
:10AAB000C0070AD04FF0A04000EB8401D1F8000796
:10AAC00020F00200C1F8000707E00021737820465B
:10AAD00000910A460191FEF791FF17492046543133
:10AAE000FEF785FAB078800718D51448317800EB66
:10AAF0008500D0F81025124B1A40C0F810254FF4ED
:10AB0000F8524FF4403302EA042203EA01410A43B7
:10AB1000D0F810150A43C0F8102509E008EB05002D
:10AB2000327810F8481F41EA8211017000E00427D2
:10AB30003846BDE8FC810000CC36002000600040B3
:10AB4000FFE0FCFF4FF0A041D1F81015C14011F01B
:10AB5000010000D00120704770B5174D95F85800DE
:10AB600008B1082070BD0020411E2A18401CC0B248
:10AB700082F830102028F8D300242046FDF7F0F9A1
:10AB8000641CE4B20C2CF8D300240C49C0206C6582
:10AB900081F8000401264020891FC1F800014FF40C
:10ABA000BE70FEF7B7FF0649F007C1F8040385F849
:10ABB0005860204670BD0000CC36002006E000E062
:10ABC00000600040034890F85800002800D00120A1
:10ABD00070470000CC3600200121B1EB507F01D13D
:10ABE000012070470020704738B50D4600F06EFD1B
:10ABF000040014D000208DF800006846FCF716FA17
:10AC0000207928B19DF80000FCF734FA112038BDF6
:10AC10000120256020719DF80000FCF72BFA002030
:10AC200038BD00000149024801F026BB283700204A
:10AC3000002000402DE9F0410546007916460F46F8
:10AC400000EB40012C4A01EBC00102EB810494F8B7
:10AC50002A1011B10820BDE8F081284951F82010D0
:10AC60002868FFF7C1FF08B11120F4E739462846EC
:10AC7000FCF71AFA66603869206030004FF0010670
:10AC80002DD03F7F4FF48E712868FFF74EFE4FF4B2
:10AC9000A2712868FFF749FE28681949C0F8041313
:10ACA00028684FEA471140F30730002806DA00F021
:10ACB0000F0000F1E02080F8141D03E000F1E02017
:10ACC00080F80014286840F3073000F01F0106FAEE
:10ACD00001F14009800000F1E020C0F8001128686F
:10ACE0000421C0F800150020A061E06184F829006B
:10ACF00044F8140FA675AEE7283700201CC70200E1
:10AD0000800002002DE9F05F054600794FF40176DE
:10AD100000EB400303EBC000344B03EB8004002046
:10AD2000636813B12B68C3F80863A3694FF0000987
:10AD30006BB1E06938B1606810B12868C0F804638D
:10AD40001120BDE8F09FE2610120216105E0C4F817
:10AD50002490A261E160C4F81C9094F8291001438A
:10AD600002D1284600F0E5FE60680028286803D07C
:10AD7000C0F804630020E4E74FF4A2763146FFF701
:10AD8000D4FDB2464FF4927B59462868FFF7C8FDC0
:10AD900006464FF484712868FFF7C2FD804651468D
:10ADA0002868FFF7BDFD074648EA07003043EBD0AF
:10ADB00056EA070007D12146286800F08BFEA169FA
:10ADC000606A8142E0D8C4F818900EB10320B8E759
:10ADD0000FB10F20B5E794F8291001200029296848
:10ADE00001D00860C6E74860C4E7000028370020AB
:10ADF0002DE9F05F054600790B4600EB400101EBC1
:10AE0000C000244901EB8004284600F045F810B149
:10AE10001120BDE8F09F62614FF00009C4F8209056
:10AE2000A36084F828904FF48E784E4641462868F7
:10AE3000FFF77BFD28684FF0010AC0F808A0214603
:10AE4000286801F00FF9606808BBD5F800B06769A1
:10AE50000FE000BF94F8280008B10F2615E0414626
:10AE60005846FFF75DFD0028F4D02146584601F012
:10AE7000F9F8206AB842F2D3574641462868FFF7EE
:10AE80004FFD0028F9D02868C760C4F814903046F8
:10AE9000BFE7000028370020007900EB400101EBFC
:10AEA000C000044901EB80004069002800D0012067
:10AEB00070470000283700200149024801F08ABA93
:10AEC00054370020002000402DE9F0410546164689
:10AED00000790F46154A00EBC00102EB810494F89B
:10AEE000201011B10820BDE8F081114951F820105F
:10AEF0002868FFF779FE08B11120F4E739462846A3
:10AF0000FCF716F96660386920601EB1397F284663
:10AF1000FDF796FD28680821C0F800150020A06103
:10AF2000E0616061012184F82010DCE754370020E3
:10AF300020C702002DE9F05F044600790E4600EBC1
:10AF4000C001DFF8F0A017460AEB81053046FFF795
:10AF500043FEB0B168684FF000084FF4047910B1B7
:10AF60002168C1F80893A8694FF0000B80B1E86927
:10AF700048B1686810B12068C0F804931120BDE89A
:10AF8000F09F1020FBE7EF614FF001082E6102E017
:10AF9000EE60C5E9067B00254FF488712068FFF755
:10AFA000D5FC4FF4A2712068FFF7D0FC2068C0F8F0
:10AFB0003465C0F838752068B8F1000F12D0D0F8A9
:10AFC000001241F02001C0F800122079D04600EBB9
:10AFD000C0010AEB8100406838B12068C0F80493D2
:10AFE0002846CCE701210160EFE74FF4887A4FF45F
:10AFF000A27951462068FFF7A4FC0746494620681D
:10B00000FFF79FFC06464FF492712068FFF799FC0A
:10B01000014647EA06000843EBD0227902EBC2035F
:10B0200008EB8302C2F818B001B10325002ED7D077
:10B030000F25D5E7543700202DE9F04704460E468A
:10B040000079274900EBC00001EB80051746304628
:10B05000FFF7C2FD30B1204600F044F820B11120C6
:10B06000BDE8F0871020FBE76F61AE604FF490778A
:10B070004FF0000839462068FFF768FC4FF4AC76C3
:10B0800031462068FFF762FC2068AA686969C0F849
:10B090004425C0F8481520684FF00109C0F8089011
:10B0A0006868D0B9BA4651462068FFF74AFC07469F
:10B0B00031462068FFF745FC0743F4D010B14FF04C
:10B0C0000F0808E02068C0F80C9031462068FFF7B0
:10B0D00038FC0028F9D0002068614046C0E7000035
:10B0E000543700200079054900EBC00001EB8000D7
:10B0F0004069002800D0012070470000543700202C
:10B10000FBF76CBE2DE9F84F05460C460888B5F8EC
:10B11000CA12884279D195F8C6024FF0000A00EBB6
:10B120008001C1EB801005EB40066088002860D1EB
:10B130003079E288A71D8146D1B250FA82F2062A00
:10B1400002D80844307111E0062030713748384980
:10B150003288401AC108022000EB01408046354980
:10B16000FEF7D0FE40463449FEF7C8FE48460022AE
:10B17000D0461BE000EBC00102EB820307EB430368
:10B1800006EB4101D3F802C0C1F80AC0D3F806C0EB
:10B19000C1F80EC05B894B82A1F81480A1F816801B
:10B1A000A1F81880401CA1F81A80521C3179814204
:10B1B000E0D895F8C61200EBC00001EB8102C2EBAB
:10B1C000811105EB410136F810000989884210D23F
:10B1D000307906280DD085F8C50221882846FCF76D
:10B1E000F9FE002811D022882946BDE8F84FFDF766
:10B1F000BDB885F8C5A2228869462846FCF7C4FF79
:10B2000028B122882946FDF7B1F8BDE8F88F9DF8EE
:10B2100000000028F9D0228801212846FDF74CF8CB
:10B220002188284600F082F9EFE7000030D30200C1
:10B2300030D3020030CA020078CA020070B58D888F
:10B24000027900EBC5042273C97BA41D012902D039
:10B25000022904D101E0008800E040882080218894
:10B260006088814211D92846A5DF0126B0B1112896
:10B2700016D0FFF74BFB02460B480C49401AC0089A
:10B2800006EB00400AA1FEF73DFEA179E07981427C
:10B2900008D92846BDE87040FCF710BF6671F4E796
:10B2A0002671F2E770BD000038D3020030D30200EF
:10B2B00073645F626C655F67617474635F65786314
:10B2C00068616E67655F6D74755F726571756573D2
:10B2D0007428292072657475726E65642025732E3A
:10B2E00000000000F8B505460C460888B5F8CA12FB
:10B2F000884255D195F8C602A21D00EB8001C1EB32
:10B30000801005EB400695F8C50200EBC00006EB87
:10B31000400160880A3138B329E000BF00EB4003E8
:10B3200002EB43039F88B7F5245F0CD06FF4245CD5
:10B3300017EB0C070AD0012F02D0072F0BD108E022
:10B340005B884B8107E05B888B8104E05B88CB8165
:10B3500001E05B880B824B892BB18B891BB1CB89B8
:10B360000BB10B8A1BB9401C13888342D6D800202E
:10B370008DF8000095F8C5023179401C884203D150
:10B3800001208DF8000010E085F8C502228869468A
:10B390002846FCF7F9FE20B122882946FCF7E6FF93
:10B3A000F8BD9DF800000028FAD022880121284627
:10B3B000FCF782FF2188284600F0B8F8F8BD0000AD
:10B3C0007CB506468D88C88806EBC504A41D1728E1
:10B3D00000D217202188814200D8084660800020D2
:10B3E000207121882846B5DF60B1FFF78FFA024649
:10B3F0000F481049401AC008012101EB00400EA17E
:10B40000FEF780FD6079002810D1306900280DD04A
:10B410001549D1E90201CDE90001ADF8025060887B
:10B42000ADF8040032696946304690477CBD0000A3
:10B4300038D3020030D3020073645F626C655F67CB
:10B44000617474735F65786368616E67655F6D745E
:10B45000755F7265706C7928292072657475726EDB
:10B4600065642025732E0000D8C6020070B505461D
:10B470000C4690F8C602228800EB8001C1EB8010D8
:10B4800005EB4001B5F8CA02824238D1608848B164
:10B4900000212846FCF710FF21882846BDE87040AF
:10B4A00000F044B8E268C1F80620E28895F8C412BA
:10B4B000D0B251FA82F2062A03D8084485F8C402B1
:10B4C00011E0062085F8C4020D480E49401AC10853
:10B4D000022000EB01460CA13046FEF70FFD30467E
:10B4E0001149FEF70BFD21882846FCF773FD002863
:10B4F00005D022882946BDE87040FCF737BF70BDF3
:10B5000030D3020030D302004E6F7420656E6F7529
:10B51000676820737061636520666F72207365725F
:10B5200076696365732E0000D4CA020070B588B0D6
:10B530000D46044620216846FAF7B1FF94F8C70289
:10B540001E4B401CC0B284F8C702DA68002190424A
:10B550002CD284F8C51294F8C602194E401CC2B20F
:10B5600002EB820084F8C622C0EB821006EB820256
:10B5700004EB400012680260017102218DF8001096
:10B580000121ADF810100068CDF812000D48CDE98A
:10B5900002042A4669469868FDF730FE002803D069
:10B5A0002A462146FCF7E2FE08B070BD84F8C812B6
:10B5B00029462046FCF768FEF6E7000040300020F0
:10B5C000A03600206D8302000449084490F9300041
:10B5D000082801DB0120704700207047CC3600208E
:10B5E0000449084490F93000082801D2012070472E
:10B5F00000207047CC36002010B50C46017A052992
:10B6000008D0407A38B1084808A102682046FEF701
:10B61000DDF800E01AB106A12046FEF7D7F8204673
:10B62000BDE81040FEF7DFB8183100202573000098
:10B630000D0A000038B5C3880D46044633B114A086
:10B64000009015A216A12846FEF7C0F8217A052918
:10B650001CD0607A48B1A088FEF710FB164951F85B
:10B66000202016A12846FEF7B1F8A0880021FEF799
:10B67000EFFC03461049207A143951F8202001B01C
:10B680002846BDE830400EA1FEF7A0B838BD000046
:10B690001B5B306D000000001B5B313B33316D00E4
:10B6A00025734C6F67732064726F70706564202817
:10B6B00025642925730D0A00183100202573000028
:10B6C0003C25733E2025733A200000000349884240
:10B6D00001D103487047002070470000002000405F
:10B6E00064300020F0B591B00E460746012269464D
:10B6F000FEF7F0FD04005AD19DF8000004AD0628C5
:10B700005DD2DFE800F0030A181F2327BDF81220DE
:10B71000BDF810103046A1DF0BE00CA806900146E2
:10B72000BDF8162000230198FEF76FFD294630462C
:10B73000A3DF044626E0BDF8101030460DF11202DA
:10B740009BDFF6E7294630469DDFF2E72946304683
:10B750009EDFEEE70CA807900023022208A90198BB
:10B76000FEF753FD08A80690BDF820200223079994
:10B770000198FEF74AFDBDF820E029463046AEDFCD
:10B78000040016D0112C12D09DF80000114951F878
:10B79000200010B10198FEF70AFD002269463846E4
:10B7A000FEF798FD22463146684600F07BF811B05E
:10B7B000F0BDBDF820008645E6D00C24E4E706483D
:10B7C0000649401AC008022101EB004004A1FEF71F
:10B7D00095FBD9E7F0C6020040D3020030D3020047
:10B7E000556E696D706C656D656E7465642047415A
:10B7F00054542052657175657374000001680A68BD
:10B800004968914201D3881A70478068801A0844B9
:10B81000401C704770B58CB00446C068002209A96E
:10B82000FEF758FD104D1BE0BDF82410A06801EB99
:10B83000810100EB810607E09DF8000055F820002B
:10B8400010B10198FEF7B3FC002269463046FEF7BE
:10B8500041FD0028F0D0002209A9E068FEF73AFD7A
:10B860000028E1D00CB070BDF0C6020070B50C4BE2
:10B8700000210A4ADC680DE002EB81058678AD788C
:10B88000B54206D132F821500688B54201D1586838
:10B8900070BD491CA142EFD3002070BDA03600202E
:10B8A00040300020F8B515000E46044616D00C486E
:10B8B0000C490095401AC008012101EB0040227894
:10B8C00033460949FEF72DFBA368002B06D0E1683B
:10B8D00001B032462846BDE8F0401847F8BD0000E8
:10B8E00040D3020030D30200C0CB02002DE9F0416A
:10B8F000044600780E46002504F11001062828D2DF
:10B90000DFE800F003080B111418628A218A304620
:10B91000A1DF0DE03046A3DF0AE0218A04F1120224
:10B9200030469BDF04E030469DDF01E030469EDF7D
:10B93000054605E0A06907883046AEDF050002D065
:10B94000112D18D00FE0A0690088B8420BD00C254B
:10B9500009E00A480A49401AC008022101EB0040E8
:10B9600008A1FEF7CBFA2A4631462046FFF79AFF98
:10B970000120BDE8F0810020FBE7000040D3020079
:10B9800030D30200556E696D706C656D656E7465BF
:10B9900064204741545420526571756573740000EA
:10B9A00070B50546FCF70BFE134C40B1D4E9040218
:10B9B0004FF08071411842F10000C4E904100021E9
:10B9C0002846FCF74DFD30B1606820B1606800F09A
:10B9D000B9FA0020606001212846FCF741FD18B14A
:10B9E000FCF7A2FFC4E90601284600F0D7FA284672
:10B9F000BDE8704000F034B88830002070B50546CE
:10BA000000200C460870FCF78FFFD5E90223101ABE
:10BA100063EB010300263146361A994112DAB0F57C
:10BA2000350F03D3FBF70EFA0B4942184FF4960378
:10BA300000210A48FCF7CFFD10B10D2806D009E01F
:10BA4000012070BD00210548FCF700FD284600F0EC
:10BA500079FA2070002070BDFFFFB4009030002004
:10BA6000F8B51A4C074600261948FEF719FFD0B161
:10BA7000616871B1D0E902106268D2E90232C91A74
:10BA8000904120D26068007F18B161681048FEF7CD
:10BA9000F6FE00F0F3F905466946FFF7AFFF98B1EF
:10BAA000606840B10AE0606800280CD13846BDE803
:10BAB000F840FCF78CBD3846FCF785FD65609DF8C5
:10BAC00000000028D0D1F8BD6660CDE788300020A6
:10BAD00034C7020070B5054688690C4600284FF44B
