:020000040002F8
:1060000000610020C1630200C9630200CB6302008B
:10601000CD630200CF630200D163020000000000E4
:10602000000000000000000000000000D363020038
:10603000D563020000000000D7630200D9630200AC
:10604000F1660200DB630200E96A0200B967020040
:10605000DB630200DB6302008D650200DB6302008C
:10606000DB630200DB630200DB630200DB63020030
:10607000DB630200DB630200DB630200DB63020020
:10608000DB63020049670200DB630200DB6302009E
:10609000DB630200DB630200C9670200DB6302000E
:1060A000DB630200DB630200DB630200DB630200F0
:1060B000DB630200DB630200000000000000000060
:1060C000DB630200DB630200DB630200DB630200D0
:1060D000DB630200DB630200DB6302000000000000
:1060E00000000000000000000000000000000000B0
:1060F00000000000000000000000000000000000A0
:10610000000000000000000000000000000000008F
:10611000000000000000000000000000000000007F
:10612000000000000000000000000000000000006F
:10613000000000000000000000000000000000005F
:10614000000000000000000000000000000000004F
:10615000000000000000000000000000000000003F
:10616000000000000000000000000000000000002F
:10617000000000000000000000000000000000001F
:10618000000000000000000000000000000000000F
:1061900000000000000000000000000000000000FF
:1061A00000000000000000000000000000000000EF
:1061B00000000000000000000000000000000000DF
:1061C00000000000000000000000000000000000CF
:1061D00000000000000000000000000000000000BF
:1061E00000000000000000000000000000000000AF
:1061F000000000000000000000000000000000009F
:10620000DFF80CD000F084F900480047DD8E020072
:106210000061002030B450E8012F93B2C4892344B8
:106220008489A34228BF1B1B0489A34202BFBFF37A
:106230002F8F002007E0C3EA020340E80134002C5E
:10624000E9D14FF001000A6030BC704750E8012FDF
:10625000C2EA024240E801210029F7D1704730B478
:1062600050E8022F1FFAA2F3C488A34202BFBFF373
:106270002F8F00200DE0C48923448489A34228BFC6
:106280001B1BC2EA034340E80234002CE8D14FF064
:1062900001000A6030BC704750E8022FC2EA224277
:1062A00040E802210029F7D17047034653E8022F46
:1062B000D988B2EB324F4FF0000017BF92B241EADB
:1062C000014142EA014104E05A68B2EB324F08BF93
:1062D000012043E80212002AE8D1704730B4044696
:1062E00054E8000F0D4644E80053002BF8D1156028
:1062F00030BC704730B4044654E8000F40EA010552
:1063000044E80053002BF7D1156030BC704730B41F
:10631000044654E8000F00EA010544E80053002B4E
:10632000F7D1156030BC704730B4044654E8000F14
:1063300080EA010544E80053002BF7D1156030BC1A
:10634000704730B4044654E8000F00EB010544E800
:106350000053002BF7D1156030BC704730B40446B1
:1063600054E8000FA0EB010544E80053002BF7D1DF
:10637000156030BC704770B404464FF0000054E81C
:10638000006F0D68AE4207BF44E80023012044E8D7
:1063900000630E60002B1CBF0020F0E770BC70474C
:1063A00030B4044654E8000F88422CBF451A054615
:1063B00044E80053002BF5D1156030BC7047000055
:1063C0000648804706480047FEE7FEE7FEE7FEE78F
:1063D000FEE7FEE7FEE7FEE7FEE7FEE7CD67020029
:1063E000016202002DE9F05F0546002092469B46BF
:1063F00088460646814640241BE0284641464746DB
:10640000224600F074F853465A46C01A914110D300
:1064100011461846224600F016F82D1A67EB0108BF
:106420004F4622460120002100F00DF817EB00092D
:106430004E41201EA4F10104DFDC484631462A46C5
:106440004346BDE8F09F202A04DB203A00FA02F11F
:10645000002070479140C2F1200320FA03F3194352
:106460009040704700487047A4D6020040EA0103FC
:106470009B0703D009E008C9121F08C0042AFAD2FA
:1064800003E011F8013B00F8013B521EF9D27047BE
:10649000D2B201E000F8012B491EFBD27047002266
:1064A000F6E710B513460A4604461946FFF7F0FF13
:1064B000204610BD421C10F8011B0029FBD1801A98
:1064C000704730B504460020034600E05B1C934251
:1064D00003D2E05CCD5C401BF8D030BD034611F820
:1064E000012B00F8012B002AF9D118467047202A09
:1064F00004DB203A21FA02F00021704721FA02F36E
:10650000D040C2F120029140084319467047000074
:10651000064C074D06E0E06840F0010394E80700F0
:1065200098471034AC42F6D3FFF76EFE7CDF0200D2
:106530009CDF020070B58C1810F8015B15F00703A2
:1065400001D110F8013B2A1106D110F8012B03E00C
:1065500010F8016B01F8016B5B1EF9D12B0705D414
:106560000023521E0DD401F8013BFAE710F8013B5D
:10657000CB1A921C03E013F8015B01F8015B521E79
:10658000F9D5A142D8D3002070BD00002DE9F04715
:1065900000268AB0DFF85091B0464FF48075012490
:1065A00037460696284603F03DFD38B1D9F8040376
:1065B000204203D0284603F02BFD26432D1D640006
:1065C0007F1CADB2082FEDD34FF4BE74204603F00C
:1065D00029FD48B1204603F01BFD46F0004606AAFF
:1065E0000121002003F000FD404D16F0FF0F15D0F3
:1065F0000127002437420DD009EB8401D1F81005A2
:10660000D1F81015C0F3042055F82420C1F301413E
:1066100002B190477F00641C082CEBD3002E5FDA98
:106620004FF0FF30CDF8108054E0281910F8507F5B
:1066300090F9000027F0C008401C3BD007A9404655
:1066400002F009FF10B34FEA9719404601F0C2FC6F
:1066500055F820701FB1B9F1030F03D006E0B9F16E
:10666000030F27D104A9404602F0FDFE4FF0A041E0
:1066700001EB8800D0F8000706A9C0F3014A4046A4
:1066800002F0E9FE18B1BAF1020F03D012E0BAF13C
:10669000030F0FD1B9F1030F08D1BAF1020F1DD0CA
:1066A0000221404603F07CFC761CF6B217B1494645
:1066B0004046B847641C042CB7D3002E10D06A465D
:1066C0000121002003F090FC06990098884207D031
:1066D00006900498002634460790A6E70321E0E7D9
:1066E0000AB0BDE8F08700000060004004370020D9
:1066F00070B54FF48076304603F00CFA114CB505B6
:1067000060B1304603F00DFA0120C5F80803607946
:1067100020B9012060712168002088474FF48276FB
:10672000304603F0F7F900280AD0304603F0F9F9B3
:106730000220C5F808032168BDE870400120084721
:1067400070BD00006430002002490248091F09683A
:1067500000680847D430002000F0CCB970B50E4670
:10676000144900EB400001EBC0051446E86A1835F7
:1067700020B101280FD0022805D113E0284600F0EF
:10678000EDF9A04201D2002411E02246314628460C
:1067900000F01CFA0BE0284600F0E0F9A042F4D229
:1067A0000446F2E73146284600F0E3F90446204665
:1067B00070BD00003C3E00200149024806F02CB8A4
:1067C000C44000200030004004F088BAF0B5B5485D
:1067D0000023021D0178101D01254FF08054062969
:1067E0000BD11678360708D10678C6F30316032EA8
:1067F00006D0042E04D0052E02D0062907D00EE0C4
:10680000B4F82463A84FC6F304263E6002E016786D
:10681000360704D10678C6F30316032E02D00629E4
:1068200004D00FE0A24FA14E7E670EE01678360727
:1068300008D10678C6F30316032E06D0042E04D022
:10684000052E02D0062907D00EE0D4F84462994FF5
:10685000C6F342363E6002E01678360704D1067869
:10686000C6F30316032E02D0062906D011E0924E7D
:10687000376827F0807737600EE01678360708D142
:106880000678C6F30316032E06D0042E04D0052E78
:1068900002D006290AD011E04FF08046C6F80C312C
:1068A000C6F81031834E361F336002E01678360783
:1068B00004D10678C6F30316032E02D0062905D0AC
:1068C0000CE07C4F032664373E600AE016783607FA
:1068D00004D10678C6F30316032E02D006290DD084
:1068E00014E0764F05263E60744E78363560734E60
:1068F000083633603F263F1D3E6002E016783607BB
:1069000004D10678C6F30316052E02D0062957D007
:1069100062E06B4E36686B4F3E60694E361D3668DE
:106920003F1D3E60664E083636683F1D3E60644E31
:106930000C3636683F1D3E60614E103636683F1D8E
:106940003E605F4E143636683F1D3E605C4E183622
:1069500036685C4F20373E60594E1C3636683F1D06
:106960003E60574E203636683F1D3E60544E2436FA
:1069700036683F1D3E60524E283636683F1D3E60E9
:106980004F4E2C3636683F1D3E604D4E30363668D1
:106990004C4F40373E604A4E343636683F1D3E60AD
:1069A000474E383636683F1D3E60454E3C363668A9
:1069B0003F1D3E60424E403636683F1D3E6002E05D
:1069C0001678360708D10678C6F30316032E06D0CC
:1069D000042E04D0052E02D0062907D019E0D4F8E1
:1069E0005812394A01F04F01116002E0117809078D
:1069F0000FD10078C0F30310032803D0042801D07E
:106A0000052806D131480168C90702D06FF001019D
:106A10000160D4F83001062808D1D4F834010628E2
:106A200004D12B48016841F4806101602248743828
:106A3000016841F470010160BFF34F8FBFF36F8FA6
:106A40004FF01021D1F80002002803DBD1F8040236
:106A5000002822DA1F4A15601F480468002CFCD069
:106A60001524C1F800420568002DFCD0C1F804428D
:106A700001680029FCD0136001680029FCD0BFF335
:106A80004F8F0D48F0380168144A01F4E06111435A
:106A90000160BFF34F8F00BFFDE712491048086047
:106AA000F0BD0000E00F00F0403501400DF0ADBA40
:106AB00000C007403C050040FCED00E010560040DF
:106AC0000404001020C50040E40E00400004004013
:106AD0003C17004004E5014000E401400400FA05D1
:106AE0000090D003583100200148006800470000A2
:106AF0006C30002010B5124C02202061606111A0A2
:106B0000A06104F17800E0614FF400702062002081
:106B1000A06260620BA1A164E06204F51E71E164F1
:106B20001021A065C4E91410E06509A1E01DFFF77C
:106B3000D5FC08A12046FFF7D1FC2020A07110BD94
:106B40003C3E00205465726D696E616C000000006F
:106B50005254540053454747455200000269C168EA
:106B60008A4203D88068401A104400E0501A401E40
:106B700070472DE9F047C4681746894606464FF02E
:106B800000083069A04201D9051B02E0B168201A53
:106B90000D1AB0686D1E001BA84200D80546BD4204
:106BA00000D33D4670682A4620444946FFF75EFC04
:106BB000B0687F1B2C44A844A944A04200D1002403
:106BC000F460002FDDD14046BDE8F0872DE9F041AB
:106BD00004468846D4E90207C51BE168606816468A
:106BE0000844B54206D94146FFF740FCB819E060B9
:106BF000BDE8F0812A464146FFF738FC761B08EBDA
:106C0000050132466068FFF731FCE660F0E70000FE
:106C1000014A024900F026B813880200E43000203F
:106C200002E008C8121F08C1002AFAD17047704755
:106C3000002001E001C1121F002AFBD170470000B3
:106C40000121202803DA81400548014003E0402863
:106C500002DA2038814009B10120704700207047D6
:106C6000FC06FFBD2DE9F04116460F4604460025FF
:106C700003E03946B047641C6D1C20780028F8D129
:106C80002846BDE8F08110B501220221002000F065
:106C90008DFF08B1072810D107220221012000F042
:106CA00085FF08B1072808D100210A22084600F014
:106CB0007DFF08B1072800D1002010BD022000F0A0
:106CC00091BE000070B50024064D06E06868012101
:106CD00010F8340004F01CF9641C28788442F5D3C1
:106CE000002070BD78300020F8B516460C460546E9
:106CF0000A2A01D20720F8BD04F004FA18B904F0FA
:106D0000CBF90028F7D1134F102113487D603C7058
:106D1000BE60FFF7C4FB0020C7E904000F4E0DE082
:106D200005EBC4003168009181788DF8011000787E
:106D30000B4A694604F03EF90028DCD1641EE4B237
:106D4000EED2BDE8F84005480021064A001D00F0DB
:106D500087B8000078300020D037002040D30200F0
:106D60008D8902007182020072B603F00BFC00BF35
:106D700003F028FA0028FBD111481249401AC40830
:106D8000012000EB044010A103F036FB114800681D
:106D9000C00700D000BE022000EB04400EA103F0AB
:106DA0002BFBBFF34F8F0B48E43801680E4A01F408
:106DB000E06111430160BFF34F8F00BFFDE70000AA
:106DC00024E00200ACDF0200466174616C20657251
:106DD000726F7200F0ED00E053797374656D20728C
:106DE00065736574000000000400FA050EB500210B
:106DF0000091CDE901106A4644F20100FFF7B4FFAB
:106E00000EBD10B58268C368934203D001F0EEFC5A
:106E1000002010BD052010BD29B112B1531E134230
:106E200003D0092070470E20704701608380002145
:106E30008160C1600846704710B58268C3689A1ABD
:106E400083889A4203D801F0DBFC002010BD0420A7
:106E500010BD0000014801F04ABB0000983000203E
:106E60003AB100680129426100D00021016100208F
:106E7000704707207047000038B511480823582292
:106E8000416800910F49006802F032FA002815D1DC
:106E90000D4A69460D4801F02FFB04000ED1012177
:106EA0000A4801F0A0FB0123094A1946074801F0EE
:106EB000F6FA0649012008390870204638BD00005E
:106EC00048D30200F037002069C00200983000204B
:106ED000FFFF7F0070B50446007F0D4608B100201B
:106EE00070BDA26101F038FD401941F10001C4E913
:106EF0000201206900B125612146BDE870400020F3
:106F000005F0ECBB014600200877012005F0E6BB48
:106F100070B50A4E01460A48B578FFF772FF04467D
:106F20004DB10020B070711C0122C81D02F092FE0C
:106F300008B1FFF75BFF204670BD0000B4300020B1
:106F400048380020F0B5244E89B01F460D00044695
:106F500072603FD0A888296882B22048FFF75CFFA2
:106F6000002835D1A889A96882B21C481030FFF7E3
:106F700053FF00282CD1202219496846FFF776FAE2
:106F800060690690207C00B101208DF814008DF816
:106F90001C70607C00B10E208DF81500E068029036
:106FA000A068039020680190606800900A480D4A2C
:106FB0006946083002F01AFE002809D1B070206836
:106FC000401C05D004490122491CC81D02F042FEA4
:106FD00009B0F0BD0720FBE7B4300020483800209E
:106FE0005CD302009DCD020010B501461048FFF7AA
:106FF00023FF040019D10F480F4A0178515C19B1E1
:10700000001D04F0D3FB02E00C3004F0A9FA60B9D3
:10701000084907480839FFF7F4FE30B9054901224D
:107020000839044802F026FE0446204610BD000040
:1070300058380020BC3000205830002030B5EFF325
:10704000108172B60D4A9468012324B1037000299F
:1070500000D162B630BD93604FF0E023D3F8805189
:10706000074C25401560C3F88041D3F88441546033
:107070005A17C3F8842100220270E8E7683800201C
:10708000FC06FFBD0B498A68002A11D000280FD1E9
:10709000EFF3108072B60B684FF0E022C2F80031B7
:1070A0004B68C2F8043100228A60002800D162B621
:1070B00070470000683800202DE9F0410646086856
:1070C0000C46411C4FF0A0474FF0010506D005FAD1
:1070D00000F1C7F80815206802F04EFF6068411CF7
:1070E00002D0002102F036FF3168A069C1F8240502
:1070F000607D227D31681043C1F86C05D4E900122F
:107100003068C0F81425C0F80C15207D012815D171
:10711000A068411C02D0002102F01CFFE068411C65
:1071200005D08540C7F80855E06802F025FFD4E98E
:1071300002123068C0F80825C0F81015BDE8F081CB
:107140002DE9F041064608680C46411C4FF0A04767
:107150004FF0010506D005FA00F1C7F808152068C0
:1071600002F014FF6068411C02D0002102F0FBFE17
:107170003168A069C1F82405607D217D326808432B
:10718000C2F86C05D4E900123068C0F80C15C0F8DC
:107190001425207D012815D1A068411C02D00021B2
:1071A00002F0E1FEE068411C05D08540C7F80855B3
:1071B000E06802F0EBFED4E902123068C0F808255E
:1071C000C0F81015BDE8F08170B5C8B1C2B1002497
:1071D000158803E0065D641C3444A4B2A54203D8BC
:1071E000061976789E4201D08C42F3D38C4207D2A6
:1071F000005DA31C401E9BB280B21C188C4201D9BA
:10720000002070BD138070BD2DE9F0418AB00646A4
:107210000020ADF814001346102088468DF80400B5
:107220000D4606AA01A9184664DFA6B398BB9DF8CF
:107230000400022804D0042807D0102839D10DE01A
:1072400003208DF81000022003E005208DF81000C7
:1072500004208DF81100002404AF0FE007208DF802
:1072600010000620F5E73B5D05AA41463046FFF7D2
:10727000ABFF641CE4B20546022C04D2BDF8140036
:107280000028F0D003E0BDF81400002812D080B22E
:10729000064400240BE00CE030199DF8042006A9F8
:1072A000FFF70FF948B19DF80400204484B2AC42C6
:1072B000F2D300200AB0BDE8F0810120FAE7000017
:1072C00070B540B10C4D297839B1044604F032FE56
:1072D00028B1002070BD0E2070BD082070BDE86888
:1072E000062807D20549226801EB8001401C0A608C
:1072F000E860EEE7042070BD48300020D83600205A
:1073000010B558B103684BB142683AB10449002046
:107310000124C8600C70C1E9013210BD0E2010BDFF
:1073200048300020002827D0002925D0134A1278A1
:10733000002A21D00A460188112911D0302907D00E
:10734000322909D0332917D1011D104604F02EBB74
:10735000011D104604F0EEBB011D104604F036BAC4
:107360008088B2F8CA12884206D1002082F8C8028A
:107370004FF6FF70A2F8CA027047000048300020A4
:1073800048B1084A137843B1D26832B190F8C822A4
:107390002AB1112070470E2070470820704701F075
:1073A00025B800004830002038B50288011D044689
:1073B0001F2A47D016DC102A1ED02B482B4BC01A90
:1073C000C008032303EB0040112A2DD0132A33D029
:1073D0001B2A44D10979022941D1BDE8384024A1B2
:1073E00003F00AB8212A31D03B2A39D0562A36D1A7
:1073F000A088132176DF11E0A1880022244800F044
:1074000001F908B1FFF7F2FC072000F0F1FB08B129
:10741000FFF7ECFCA1881F48FFF7B2FF00281ED041
:10742000BDE83840FFF7E2BC0B790A8801B01AA129
:10743000BDE8304002F0EBBF0023A0881A4685214A
:107440007FDFEBE731F8040B75DFE7E70020009002
:10745000A08869468FDF002801D0FFF7C7FC38BD40
:10746000A088132176DFD9E724E00200ACDF020018
:10747000436F6E6E656374696F6E205265717565DA
:1074800073742074696D6564206F75742E0000003C
:1074900074340020342A0020446973636F6E6E6573
:1074A000637465642E20636F6E6E5F68616E646CDA
:1074B000653A20307825782C20726561736F6E3ABA
:1074C000203078257800000010B51A4C01886068DB
:1074D00010290ED011292BD1401E606028D1FFF752
:1074E000D2FB002824D02168002921D0BDE810401B
:1074F0000847D0B900210122084600F057FB08B127
:1075000007280FD107220221012000F04FFB08B10C
:10751000072807D104220221002000F047FB20B1F8
:10752000072802D0216801B188476068401C60606C
:1075300010BD00004030002070B506461A481B4AB6
:107540000D46801AC0080978032202EB004459B1A5
:10755000012922D0022926D1204615A102F04CFF94
:10756000BDE8704004F0D6BE204615A102F044FFED
:10757000698805F10E02304600F044F808B1FFF7C3
:1075800035FC304600F04AF908B1FFF72FFC2046E1
:10759000BDE870400FA102F02FBFA989A868BDE81F
:1075A000704000F071B970BD24E00200ACDF020051
:1075B000446973636F6E6E65637465642E000000CA
:1075C000446973636F7665727920636F6D706C6563
:1075D00074652E00436F6E6E656374656420746F0E
:1075E000206465766963652077697468204E6F72E0
:1075F000646963205541525420536572766963650E
:107600002E00000050B141802AB15388C3801388F6
:10761000838092880281406901F0F4BF0E20704798
:1076200030B5144B0D4604000FCB85B08DE80F002C
:107630001ED0EDB1A868D8B12146684662DF0028A7
:1076400014D120788DF812000120ADF810004FF60B
:10765000FF7060802868E060686820610020A0807A
:107660002081A868606104A8FFF72AFE05B030BD3C
:107670000E20FBE724D3020030B5024685B0080097
:107680002DD0002A2BD041884FF6FF74A14226D07E
:107690009388994223D11588112D14D0392D1ED1EC
:1076A000818800291BD053898B4218D1C1680029D9
:1076B00015D001218DF8001002F110010291D1893D
:1076C000ADF80C1008E08B4209D1C168002906D042
:1076D00002218DF800104480C2686946904705B0C9
:1076E00030BD30B585B00C46054614216846FEF71E
:1076F000D6FE207804F10E01002830D1A0880128A0
:107700002DD1A0792A78904229D1002217E002EBEE
:10771000C20031F81030022B02D0032B0ED105E04D
:1077200001EB40000089ADF8120007E001EB4000DA
:107730000389ADF80E304089ADF81000521C207A54
:107740009042E4D8E868002809D06088ADF80200CB
:1077500000208DF80000EA6869462846904705B089
:1077600030BD000070B588B015460E46040012D03A
:1077700020216846FEF793FE19481A49401AC008AE
:10778000022101EB0040F42D07D917A102F034FECD
:10779000072008B070BD0E20FBE76288A2F57F438A
:1077A000FF3B18D0154ACDE9022401208DF80000D6
:1077B0002289ADF812208DF81010ADF81650002275
:1077C000ADF8142006968DF811006288694660694C
:1077D00001F050FFDDE70AA102F00EFE0820D8E715
:1077E000CCDF0200ACDF0200436F6E74656E742064
:1077F000746F6F206C6F6E672E000000218802008E
:10780000436F6E6E656374696F6E2068616E646C41
:107810006520696E76616C69642E000010B58AB0CF
:1078200058B34188A1F57F42FF3A28D0C18831B3CF
:10783000044620216846FEF732FE01218DF8201013
:1078400000208DF821000F4ACDE902248DF80010A8
:10785000E288ADF812200222ADF81620ADF814002F
:107860008DF8101008A88DF81110069062886946EE
:10787000606901F0FFFE0AB010BD0E20FBE7082092
:10788000F9E70000218802002DE9F0410E46054687
:107890001C481D490024401AC008012101EB004882
:1078A0000FE0285DFFF7A0FB070009D0112FF8D0EB
:1078B0004046224615A102F0A3FD3846FFF796FA8E
:1078C000641CB442EDD3A81910F8010C0D2804D1A2
:1078D0000A20FFF789FB1128FAD0324629461548BD
:1078E000FFF740FF04000BD0112CF6D04046224693
:1078F00011A102F085FD2046BDE8F041FFF776BA00
:10790000BDE8F08124E00200ACDF02006170705F2E
:10791000756172745F707574206661696C6564204E
:10792000666F7220696E646578203078253034780F
:107930002E000000743400204661696C6564207379
:10794000656E64696E67204E5553206D6573736173
:1079500067652E204572726F7220307825782E2050
:10796000000000000149085C7047000048D2020096
:107970000649095C4FF0A040D0F81005C84010F04F
:10798000010000D0012080F00100704748D20200C1
:107990002DE9FC410646C0074FF000050ED0104F00
:1079A00000240122385D009500231146019502F064
:1079B00077FA641C042CF4D300F046F8B0070DD518
:1079C000074E0024361D0022305D0323009511462A
:1079D000019502F065FA641C042CF4D3BDE8FC8127
:1079E00044D2020007490B5C4FF0A041D1F80425B6
:1079F0000120984020EA0203C1F808351040C1F880
:107A00000C05704744D202000249085C012102F0D3
:107A1000DFBA000044D202000249085C002102F0F3
:107A2000D7BA000044D202000649095C4FF0A040DA
:107A3000D0F80405C84010F0010000D0012080F00B
:107A40000100704744D2020010B500242046FFF721
:107A5000DBFF641C042CF9D310BD10B500242046B4
:107A6000FFF7DAFF641C042CF9D310BD10B50246F1
:107A7000064B4FF0FF3000215C5C944201D1084678
:107A800010BD491C0429F7D310BD000048D20200E4
:107A900070B50C4E0C004FF0000530600BD001208B
:107AA00000F06AF808B1022004E0002000F064F859
:107AB00000B10B202070706810B9FFF7E4F805469C
:107AC000284670BD4030002010B5002000F0CAF9F3
:107AD00008B1062806D1012000F0C4F908B1062833
:107AE00000D1002010BD00002DE9F0470D46814671
:107AF000FFF7BCFF0446042836D2DFF874801B4829
:107B00001C4EA8F10C0725B3012D0ED0022D2BD150
:107B100004EB440030444578002D25D0B968002995
:107B200022D02846BDE8F047084704EB4401755CC5
:107B30000E44717849B10E4A4FF48041093A806889
:107B4000FFF7C8F908B987F80390B17808F804106E
:107B5000E2E78068FFF7D6F904EB4401314418F8F6
:107B600004008D78A842D7D0BDE8F0874CD202003F
:107B70003C300020A8360020042801D2FFF7F8BED0
:107B800000207047042804D00A280CD1002002F0FD
:107B90000FBE05481321408876DF082803D000284F
:107BA00001D0FFF723B970477434002070B500236B
:107BB000042810D20D4D00EB4004012A02D1012906
:107BC0000CD00022094E00EB4000304461B1012985
:107BD00006D0022906D00723184670BD0E30C2B267
:107BE0002A55F9E74270F7E78270F5E7A8360020DA
:107BF000044A014600201279D20702D0084600F05C
:107C00004DB870473030002070B506461E4800243D
:107C1000C0E90161B00720D50025012211462846A0
:107C2000FFF7C4FF6D1C0446042D02D2002CF4D0D3
:107C300013E094B940F2333204211448FFF754F8AA
:107C400004000AD1FFF73EF8040006D10F48104A9D
:107C50000021001FFFF704F90446F00712D00120AD
:107C6000FFF796FE74B909480A4A00210C38FFF75D
:107C7000F7F8040006D10548074A01210838FFF744
:107C8000EFF80446204670BD3030002058D2020084
:107C9000697F0200158E0200BD6C02002DE9F05FC5
:107CA0006E4C054600266078B34618B184F801B0E2
:107CB00001F098F86A4F4FF47A694FF4C87A4FF0A0
:107CC0000108182D69D2DFE805F00C13133847546A
:107CD000696E727B727BC58484848484B3B6B9BCBC
:107CE000C5C501F07FF83868FFF70CF906465CE07F
:107CF0000020FFF799FE00284FF0000008D0FFF7A2
:107D000083FE022D02D14FF4E16008E0484606E010
:107D1000FFF782FE022D01D1C82000E05046410C41
:107D2000C0034FF47A72801841F1000125705200AF
:107D30000023FEF757FB01462AE00020FFF774FE00
:107D400000284FF0000004D0FFF75EFE4FF44870AB
:107D5000E5E7FFF761FEDFE70020FFF765FE00289B
:107D60004FF0000002D0FFF74FFECFE7FFF754FEC1
:107D7000D4E70020FFF758FE00284FF0000002D0A3
:107D8000FFF742FE01E0FFF747FE257040F6CD41C8
:107D900000223868FFF79EF8064646E00020FFF70D
:107DA00021FE257008E0002051E025703DE084F8B8
:107DB00001800120FFF716FE002240F26661E8E72D
:107DC00084F801800120FFF70DFE00224FF40051DE
:107DD000DFE77868FFF796F80646D5F1110000D086
:107DE0002EB10220FFF710FE84F802B01DE001283A
:107DF00016D980B2C8214843C117C90341EA50418E
:107E0000C0034FF47A72801841F100015200002340
:107E1000FEF7E8FA014600227868FFF75BF80646AD
:107E20000220FFF7F9FD84F802803046BDE8F09F9C
:107E300000F0D8FFB9E700F0D5FFB4E700F0D2FFBB
:107E400004E000F0CFFF0020FFF7E6FD0120FFF780
:107E5000E3FDAAE7FFF701FEA7E7000030300020AE
:107E60004CD20200012105F0A5B900002DE9F8432C
:107E70000546861C00208DF8000090460F464FF006
:107E800001096846FFF7DAF81B4C20683860D4E92E
:107E90000001401AA16804F21C47081A0EE00121F3
:107EA000384601F06AFA00F0CBFF0146384601F08F
:107EB00064FAD4E90001401AA168081A401C8642FD
:107EC000EDD8B8F1000F03D0052065F3891002E06A
:107ED000062065F39F50A2682168114004EB8101E0
:107EE000C8602068304420609DF80000FFF7CAF8A1
:107EF0004846BDE8F8830000183A002070B50D46EA
:107F000004460A2902D10D21FFF7F8FFA068226874
:107F1000411CA1601554D4E90101814204D32046DB
:107F2000BDE8704001F0C3BE70BD0000034803C847
:107F3000814201D10120704700207047183A00208B
:107F4000034630B5074800210478426806E000BFC8
:107F500002EBC10005789D4203D0491CA142F7DB2A
:107F6000002030BD7830002000780221FFF7BCBD32
:107F700005494FF0FF32082841F8202002D3084479
:107F800080F848207047000004370020F0B54FF01B
:107F9000FF3512B10023082601E008230C260C4C03
:107FA00005E000BF54F823707F1C04D05B1CB34273
:107FB000F8D32846F0BD26185DB286F8305044F854
:107FC0002310002AF5D1E11881F84800F1E70000FC
:107FD000043700200249084490F93000704700003F
:107FE0000437002030B589B00D460446202168468C
:107FF000FEF755FA94F8C602002300EB8001C1EBAE
:10800000801094F8C51204EB400041B1491EC9B27A
:1080100001EBC10100EB4101498A491C00E0C18824
:10802000008961F30F0360F31F4303208DF8000004
:108030000548CDE90204054804932A46694680684C
:1080400001F018FB09B030BD9D83020048300020CC
:10805000B4EEE00AF1EE10FA02D2B0EE600A704718
:10806000B4EEC10AF1EE10FAF9DDB0EE410A704744
:1080700070B5084C050009D010342168002907D0DC
:1080800008682060496828468847F6E70834F4E71E
:1080900070BD0000F0360020054A012120B1012802
:1080A00005D19170FFF7E4BF51700020FAE77047E7
:1080B000F036002010B5D0E90234D1E90220D11AFF
:1080C000A04101D3012010BD002010BD10B5024613
:1080D0000020138806E0546834F810408C4203D026
:1080E000401C80B28342F6D810BD000070B588B045
:1080F0000646002005900690ADF81410ADF8161055
:108100000190029001AA05A9304690DF050021D018
:1081100002F088FE0346114811493246401AC10850
:10812000012000EB014004460E4902F070F9BDF851
:10813000042012B9BDF8060028B1BDF8063020466B
:1081400009A102F064F9BDF808201AB120461649C9
:1081500002F056F908B0284670BD0000B4DF0200F6
:10816000ACDF020094D70200546865207265717517
:1081700065737465642054582F5258207061636B86
:108180006574206C656E67746820697320746F6F06
:10819000206C6F6E672062792025752F2575206F02
:1081A00063746574732E0000E0D702000146014835
:1081B000FFF797BA743400202DE9F04389B00F46D9
:1081C0000546914620216846FEF769F995F8C602F2
:1081D00095F8C54200EB8001C1EB801005EB40062D
:1081E00004EBC40006EB40013279601C0A31904276
:1081F00032D108AB0022284600F0C2FD78B310E06F
:10820000401EA04201D1002004E004EBC40006EBB4
:1082100040001C308046024608AB284600F0B0FD06
:1082200090B10020387004208DF8000008984A466C
:10823000CDE903500C4802900C486946806801F073
:1082400019FA09B0BDE8F08395F8C5024146401C13
:10825000641C85F8C502E4B23079A042D0D8012070
:1082600038700020EDE700009D83020048300020B8
:1082700070B500240F4D10E0686800EBC40630783C
:1082800002F000FF7178012901D0012100E00021F6
:108290004140307800F030FA641C28788442EBDBEF
:1082A000D5E90401084303D0BDE8704004F032BAB8
:1082B00070BD00007830002030B59FB00C460546F8
:1082C0007C216846FEF7EBF8ADF8024003208DF8FC
:1082D0000000044801954168002901D0684688479C
:1082E0001FB030BD483000202DE9F041044690F821
:1082F000C602884600EB8001C1EB801004EB40060B
:108300001746304603F016FE050042D0D4F8CC02E2
:1083100006283ED204EBC0107622A0F8D272D4F820
:10832000CC02314604EBC01000F53570FEF79EF824
:108330000026B8F1000F06D0D4F8CC0204EBC01030
:1083400080F8D06206E0D4F8CC12022004EBC11110
:1083500081F8D002D4F8CC0204EBC010C0F84C5322
:10836000D4F8CC020C4D401CC4F8CC02E968884219
:108370000FD12746002407E007EBC41101F5347044
:10838000D1F84C138847641CE8688442F4D3C7F8DA
:10839000CC62BDE8F081000048300020F0B5154601
:1083A0009FB0002281F8C822074691F8C6020C4609
:1083B00000EB8002C2EB801001EB400003F0BAFD3D
:1083C000060009D07C2208496846FEF74FF8ADF850
:1083D000025068460197B0471FB029462046BDE8C5
:1083E000F040FFF769BF000078D20200F0B50D46FB
:1083F00089B004464FF4BA61FEF751F8202168466F
:10840000FEF74DF8154E2946B06801F0FBF800283C
:1084100021D1A4F8CA52C4F8CC0284F8C70284F867
:10842000C60284F8C5020E4801272A46006820606B
:1084300002208DF80000ADF810702068CDF8120011
:108440000848CDE902046946B06801F013F9002834
:1084500001D184F8C87209B0F0BD00004830002096
:10846000D83600209D83020010B50021024800F09C
:108470008FFF80F3100010BD343E00204FF4803297
:108480008A400168C1F848230068C0F80823704793
:108490004FF4A07202EB810189B200F09DB92DE981
:1084A000F04105460E464FF4A07000EB860081B205
:1084B00028684FF48034B440984622F07F47C0F8D3
:1084C00008432868C0F84843286802F05CFA286826
:1084D00000EB8600C0F840752868C0F84443B8F146
:1084E000000F02D02868C0F80443BDE8F08100689E
:1084F000D0F804057047000070B54379224C44F869
:1085000023204279241D04EBC202204B1579204A16
:108510009A1AD3082DB10824022000EB03401DA1B4
:108520002EE002680D88C2F8085590F90420897879
:10853000002A4FEA411106DA02F00F0202F1E022AE
:1085400082F8141D03E002F1E02282F8001490F991
:108550000410012201F01F0502FA05F549098900FE
:1085600001F1E021C1F80051417904EBC1010A7128
:10857000417944F831000320002400EB03400EA1B0
:1085800001F03AFF204670BDD03000200CE0020020
:10859000ACDF020052544320696E7374616E6365F0
:1085A00020616C726561647920696E697469616CBF
:1085B000697A65642E0000005254433A20696E695E
:1085C0007469616C697A65642E00000090F904009A
:1085D000012100F01F0291404009800000F1E020DD
:1085E000C0F8001270470A46022100F07BB84FF431
:1085F000827100F0F1B800680121016070470068E5
:108600000121416070472DE9F05F07460C464FF4A9
:10861000A07000EB84001FFA80FA38684FF48036AF
:10862000A6409B4622F07F45C0F848633868C0F8F2
:1086300008633868D0F8048500EB8402D2F84095CE
:10864000C2F840855146386802F09DF9A9EB080050
:1086500020F07F40012806D1102002F049FC51464D
:10866000386802F090F93868D0F80485C0F844639F
:10867000A5EB080121F07F413868012900EB840057
:1086800010D0C0F840553868D0F804156FF07F4C12
:108690006A1A521E22F07F42ACEB0B03934217D3AF
:1086A00062B118E06D1CC0F84055102002F020FCAB
:1086B0003868D0F8040540450AD10CE000EB84008E
:1086C0006D1CC0F840553868D0F80405884202D0C7
:1086D0000D20BDE8F09F01223146384600F002F837
:1086E0000020F6E70368C3F84413002A02D00068AC
:1086F000C0F80413704700002DE9F84F0E463449C6
:10870000804601EB5001C007097801D00F0901E054
:1087100001F00F074FF00009424601204946FDF7DE
:1087200092FEDFF8B0A004460D46052F4ED2DFE8DA
:1087300007F003161B282C00002E47D001214046CD
:1087400003F006FF8DF800906846FEF777FC504670
:10875000D0E904120C431543CAE9044532E00EB1D6
:10876000022114E0002112E04EB10321404603F043
:10877000EFFE4046BDE8F84F012104F00BBD01219A
:1087800005E0002E22D1042101E02EB10321404654
:10879000BDE8F84F03F0DCBE0021404603F0D8FEF0
:1087A0000021404604F0F6FC8DF800906846FEF784
:1087B00045FC5046E243D0E904341A4024EA05015E
:1087C000CAE904219DF80000FEF75CFCBDE8F88FC3
:1087D000D03700207830002010B5006842581AB118
:1087E00002F0D1F8012010BD002010BD82688388FE
:1087F0001A4003689A5C0A708168491C816070475E
:10880000C26883881A4003689954C168491CC160D2
:10881000704710B50446C0B2FEF7E6FB204610BD17
:108820000969002900D008477047000070B5088822
:108830000D46A0F52061773916D10C480C49401A35
:10884000C108032000EB01440AA1204601F0D4FD39
:10885000A88810A1C01E82B20D481346028020468F
:10886000BDE8704001F0D3BD70BD000024E00200FF
:10887000ACDF0200415454204D54552065786368A4
:10888000616E676520636F6D706C657465642E0042
:10889000282A0020426C65204E5553206D617820B7
:1088A00064617461206C656E677468207365742000
:1088B000746F2030782558282564290010B509499F
:1088C000094800F0E6FD08B1FEF790FAF7210648E6
:1088D00000F0D3FD002803D0BDE81040FEF786BAB3
:1088E00010BD00002D8802008C34002070B50D46AC
:1088F00001F11004C98A102901D9092070BD01F0C5
:10890000B2FE686030B1E2880023A16801F011FF77
:10891000002070BD042070BD70B50D4601F110043B
:1089200089690988102901D9092070BD891C01F0C5
:108930009AFE686068B100230222A16801F0F9FE86
:10894000A068E16802230288686801F0F2FE002056
:1089500070BD042070BD000010B50B48FFF7C7FDC7
:10896000094A083AD2E90434C018D2E9063244F17F
:108970000001C31A71EB020204D24FF0807280181A
:1089800041F1000110BD00009830002010B5C0B2C8
:10899000FFF7D6FA0446007802F074FB01466078CF
:1089A000012801D0012000E0002090EA010F08D04A
:1089B0000449D1E90401084303D1BDE8104003F0A4
:1089C000A9BE10BD783000202DE9FF41274B284D6E
:1089D00001240FCB8DE80F00287880B923480023AD
:1089E0001A466946103801F0D9F818B1002004B0D1
:1089F000BDE8F0811D480C3802F0B4FB2C706820F3
:108A000000F01CFC1B491C4A511ACE08012101EB45
:108A1000064418B9692000F011FCE0B1032000EB16
:108A200006406A7815A101F0EBFC00216B2000F0F4
:108A300043FC98B10D4D3226183D4FF47A47691C1E
:108A400038468847761EFAD118211B2000F034FCE6
:108A500038B10120CBE720460EA104E0204618A142
:108A600001E020461BA101F0C7FCBFE718D50200BA
:108A7000E8300020ACDF020024E002004D50553603
:108A800030353020666F756E642061742030782533
:108A9000780000004D5055363035302057484F5F34
:108AA000414D5F492070726F6265206661696C6537
:108AB00064206F6E20307836382F307836390000D9
:108AC0004D5055363035302077616B6520666169D1
:108AD0006C6564004D505536303530206779726FC3
:108AE00020636667206661696C6564001CB50400DC
:108AF0002DD006226946432000F0B8FB38B3BDF8FC
:108B00000000BDF8042040BA01B200EE101ABDF812
:108B1000020052BAF8EEC00A9FED0E0A40BA00B247
:108B200080EE801A00EE900A12B20120F8EEE00A00
:108B300084ED001A80EE801A00EE902AF8EEE00A2A
:108B400084ED011A80EE801A84ED021A1CBD00200B
:108B50001CBD00003333834110B588B000208DF870
:108B600010008DF80C0005A8FFF7C0FF1A491B4A3A
:108B7000891ACC0848B3DDED060A9DED050A03AB62
:108B800004AA1749174800F0DBFA9DED070A9DF982
:108B90000C109DF91000BDEEC00A8DED000ACDE964
:108BA00001019DED060A032000EB0440BDEEC00A62
:108BB0000DA110EE103A9DED050ABDEEC00A10EEB3
:108BC000102A01F035FC08B010BD022000EB044073
:108BD0000FA101F011FCF6E724E00200ACDF020077
:108BE0002C2A00200CD20200494D552067783A25E6
:108BF000642067793A256420677A3A2564202D3EFF
:108C00002064783A25642064793A256400000000E5
:108C1000494D552072656164206661696C65640028
:108C20002DE9FC5F0E008346DDE90C47C6F100002C
:108C300098469246814600D40846012503E000BFCD
:108C400090FBFAF06D1C5045FADAA84500D945466C
:108C500024B1002E01DB780700D5641EB80702D5C9
:108C6000B8F1000F0AD0F80708D13CB1A54205D2EF
:108C700020215846641EFFF741F9F6E7002E02DA7C
:108C80004E462D2102E0780703D52B215846FFF7E9
:108C900035F907F0030002280BD1B8F1000F08D115
:108CA0003CB1A54205D230215846641EFFF726F993
:108CB000F6E7CDE90047434652463146584604F0B0
:108CC0000FFABDE8FC9F000070B50D460446006831
:108CD0004FF4887102F0D1F84FF49071206802F0DF
:108CE000CCF84FF49271206802F0C7F84FF4A271EB
:108CF000206802F0C2F84FF4AC71206802F0BDF8B1
:108D000020681149C0F804132068690740F3073050
:108D1000090E002806DA00F00F0000F1E02080F8CC
:108D2000141D03E000F1E02080F800142068012108
:108D300040F3073000F01F0291404009800000F12D
:108D4000E020C0F8001170BD100342000246002070
:108D50001268530713D502F00300012802D002283D
:108D60000CD105E0C2F383100B68801C184404E0AA
:108D70000223086803EB92521044086001207047F8
:108D800010B509892AB1D088491C814218D1002028
:108D900010BD90F8C62202EB8204C4EB821200EBF5
:108DA000420212899142F2D0491C198090F8C612F1
:108DB00001EB8102C2EB811100EB4100008902E06E
:108DC0001980D088401E5880012010BD007DC0F35E
:108DD000C100012803D0032801D0002070470120E2
:108DE000704700000A4810B5807860B1002401E0A7
:108DF000022C06D02046FEF707FE641C042CF7D395
:108E000010BD0324F6E7BDE81040FEF71DBE0000CC
:108E10003030002003480179C90702D00078FEF7FE
:108E20003DBF704730300020F7210180172141807D
:108E3000002101714171FB2181711B21C1717047BA
:108E40002DE9FF410026234800F094FA2148001F35
:108E5000074600F08FFA204C60680090A56800E09B
:108E600000986946284004EB80000C30FFF76EFF45
:108E70000028F5D101AA009901EA050304EB830358
:108E8000491CDB6842F82030401C00910228F2D3D4
:108E9000019800F0030001280BD0022810D101989E
:108EA000032101EB90500099BDF80A6001EB90009E
:108EB00005E00198BDF80A60C0F3831008440090F3
:108EC000384600F054FA08B10098606004B03046AB
:108ED000BDE8F081303E0020183A00208AB04FF4FF
:108EE0008041002001F018FB08B1FDF77FFF01F081
:108EF0005BF9FDF7C1FF08B1FDF778FF444A012196
:108F00004448FDF7ADFF08B1FDF770FF4149182255
:108F100028316846FDF7AAFA3F4806903F494FF4CA
:108F20008070CDE90701099007233D4A06A96846EC
:108F3000FEF708F808B1FDF759FF3A490120FEF79E
:108F400063FE08B1FDF752FF69460020FEF7A0FD61
:108F500008B1FDF74BFF354C3348CDE9000400253F
:108F60006846FEF7CDF908B1FDF740FF01F0EAFBD6
:108F700008B1FDF73BFF01F077FE08B1FDF736FFC2
:108F800069460120009501F00FFD08B1FDF72EFFA5
:108F9000684601F0A1FD08B1FDF728FFFFF78EFC40
:108FA000234800902348CDE9010469462248FEF792
:108FB00037FB08B1FDF71AFF03F080F9FFF704FD56
:108FC00010B90020FDF712FF1C4800F02DF91148E0
:108FD0000022A4210068FDF77DFF08B1FDF706FF20
:108FE00017A0FDF715FE1F481F49401AC0080321AE
:108FF00001EB00401DA101F0FFF903F08BF900BF68
:1090000001F0E0F80028FBD101F0B0FBF8E7000028
:10901000598B020004D20200743200207433002005
:10902000B1CC0200857B0200AD810200043000203B
:1090300039750200C9B70200743400202C2A0020C0
:10904000424C4520554152542063656E7472616CE8
:10905000206578616D706C652073746172746564ED
:109060002E0D0A0024E00200ACDF0200424C452035
:10907000554152542063656E7472616C206578614D
:109080006D706C6520737461727465642E000000ED
:109090002DE9F047C5881E1DB6FBF5F78946B6FBDE
:1090A000F5F1044605FB176C407916686843DDF856
:1090B00020A0F718001F874200D9C61A166001E0E9
:1090C0002468491E0029FBD1A5EB0C078846B7424E
:1090D00016D818E004EB0C00001D09EB0803BAF1E8
:1090E000000F3A4602D00146184600E01946FDF747
:1090F000BDF92468F61B4FF0000CB844B54201D905
:10910000374600E02F46002EE4D1BDE8F08700008E
:1091100030B5024651B101F01DFA0021074C08E0BC
:1091200034F821301568AB4202D11160002030BD07
:10913000491C8142F4D3052030BD0000000000002E
:109140002DE9F041DFED371A1E462DED028B174653
:1091500090ED001A0D46044630EE410A90ED011ADA
:1091600070EEC10A90ED061AB4EEC01AF1EE10FAD4
:1091700008DDB1EE412AB4EEC02AF1EE10FA01D2B8
:10918000B0EE610AB4EEE01AF1EE10FA08DDB1EECD
:10919000411AB4EEE01AF1EE10FA01D2F0EE610AD3
:1091A00094ED032AF7EE001AD5ED002A31EEC21A2B
:1091B00021EE221A02EE001A85ED001A94ED030A40
:1091C00095ED012A71EEC01A61EE821A40EE201A66
:1091D000C5ED011A94ED040A21EE000A94ED071A78
:1091E000F1EE410AFEF734FFF0EE400A95ED010A78
:1091F000B0EE608AD4ED050A94ED071A20EE200A3D
:10920000F1EE410AFEF724FFFDEEC80ABDEEC00AEA
:1092100010EE900A387010EE100A3070BDEC028B20
:10922000BDE8F081000000009FED030A80ED000A18
:1092300080ED010A704700000000000008B5002121
:109240008DF800100849012248706946752000F029
:109250000DF8002804D09DF80000682801D00020F7
:1092600008BD012008BD0000E83000202DE9F741CD
:1092700000240F4E81B01546884601270097012330
:1092800001AA71780B4800F0A9FC38B90948717837
:10929000001D42462B4601F0E5FF38B1641CE4B2E4
:1092A000032CEBD3002004B0BDE8F0810120FAE7E5
:1092B000E830002008D502007CB500248DF80400B9
:1092C000094E8DF8051025460095022301AA7178F4
:1092D000064800F083FC28B1641CE4B2032CF3D3ED
:1092E00000207CBD01207CBDE830002008D50200B4
:1092F00010B531B1B2FBF3F403FB14241CB1092007
:1093000010BD0E2010BD016000214160816082818E
:10931000C381084610BD70B50C460546FCF77AFFC0
:10932000002802D021882868084470BD10B50A883A
:1093300049888A4203D1FCF7AFFF012010BD00200D
:1093400010BD70B50C460546FCF789FF002802D019
:1093500061882868084470BD10B50A8849888A4227
:1093600003D1FCF773FF012010BD002010BD0021C8
:1093700000F009B8012100F010B808B56A46FCF702
:10938000E0FF009808BD08B56A46FCF7C0FF08BDBD
:1093900008B56A46FCF7A2FF08BD08B56A46FCF7A7
:1093A000A9FF009808BD08B56A46FCF7D7FF0098EA
:1093B00008BD38B5044600258DF800506846FDF715
:1093C0003DFE21686268086890420ED9401E086020
:1093D0000178238AE26801FB0325227A2168101AAA
:1093E000C0B20A79824200D208719DF80000FDF7F0
:1093F00049FE284638BD38B5054600208DF80000E6
:109400000C466846FDF71AFEE868298A201AB0FB68
:10941000F1F12A681068431C136001709DF8000088
:10942000FDF730FE38BD10B530B1017A42680368EF
:10943000891AC9B21A6006E00E2010BD03681A68C6
:10944000541C1C601170491EC9B2F7D2006800217B
:109450000171084610BDC20800F007030120895CB5
:1094600098400840704710B5C20800F00703885CB8
:1094700001249C402043885410BD28B1A1F117025B
:10948000E12A03D3072070470E2070474180002057
:10949000704710B560B10161F72120F8021B20F878
:1094A000021BFB2100F8021BFFF7BEFC002010BDD1
:1094B0000E2010BDF0B5858893B00C46002D39D133
:1094C000018800263F4F24293BD006DC102909D013
:1094D00011290CD0232958D14FE03A290BD0552916
:1094E00053D129E00146204602F00CFA4DE0A01DC0
:1094F000FFF79AFC49E02246408934F8061F814272
:1095000000D808466080172800D2172060801069B4
:1095100070B1607960B1D7E90001CDE90301ADF820
:109520000E506088ADF81000136903A910469847E3
:109530006671267113B0F0BD0146204602F0A4FA10
:1095400023E0011D2C2206A8FCF790FFBDF81800AF
:10955000BDF81C2004EBC0014A732269AAB1D7E907
:109560000423CDE90423ADF81200487B8DF81400E4
:109570002269204604A9904707E0017A207B8842AF
:1095800000D201462846FEF7B1FDA07A0028D1D0CE
:10959000E1882846A5DF012580B11128CAD001F055
:1095A00041FC02460848094913B0401AC00805EBBF
:1095B0000040BDE8F04006A100F022BFA672E572AF
:1095C000B8E70000F4D20200B4DF0200ACDF020012
:1095D00073645F626C655F67617474635F65786311
:1095E00068616E67655F6D74755F726571756573CF
:1095F0007428292072657475726E65642025732E37
:10960000000000002DE9F0410F4604004FF0000576
:109610000DD002F063FC39462046FEF757FD218845
:1096200081421ED1002005464FF6FF7609E00E204C
:10963000BDE8F081626832F81020B24206D1401CC9
:1096400080B28142F6D8206901F05AF800202188C2
:109650000BE0626832F81020B24204D1616821F850
:1096600010702846E4E7401C80B28142F1D8042003
:10967000DEE700002DE9F04791460D4604004FF06B
:10968000000742D0EDB302F029FC49462046FEF720
:109690001DFD2978062902D22188814202D10720A6
:1096A000BDE8F087A16800EB800601EB860001F0C1
:1096B000E4F830B14946284602F07CFC08B138464F
:1096C000EEE72978DFF8488058F821202AB1206990
:1096D000B8B1294690470028E2D1A068294600EB9E
:1096E000860001F0E9F8070006D0297858F8210033
:1096F00010B1686800F0E7FFA068494600EB8600FB
:1097000000E002E002F052FBD9E70E20C8E70000BB
:109710000CD30200F8B505000C4620D0002C1ED05A
:109720002888112806D0A0F130011F2902D950380D
:109730001F2814D8AE8820463146FEF7C7FCADF886
:109740000000218881420AD02988112908D0A16807
:1097500000EB800001EB8000314602F027FBF8BDF2
:1097600062684FF6FF7122F810106946E06801F058
:10977000A3F8F8BD2DE9F041044600F1140700F10B
:109780000A05867C007A86B001F10208002814D010
:109790008BDF14216846FCF782FE33462A463946A1
:1097A00040468CDF06218DF800100190002804D07F
:1097B000616A002901D06846884706B0BDE8F0819B
:1097C0004FF4C87101820621418118218181002155
:1097D000C1817047017DA022C2825022028321F004
:1097E00018010022428341F00401017501214175F5
:1097F0007047F0B520B11AB1032903D00720F0BD9E
:109800000E20F0BD04790346051D0CB10420F0BD07
:1098100000211688084633F82170B742F7D0491C5A
:1098200011F0FF01F7D003EB8401641C2C70126867
:109830000A60F0BD18B100214171084670470E2042
:10984000704710B50B46040002D0980702D009E01B
:109850000E2010BD580705D4D80603D4180701D42C
:10986000072010BD2046FFF7E5FF580701D501206E
:109870006071A271002010BD70B50D46040010D0BB
:109880000026266066606262EDB128792072287B2E
:10989000A074296839B10E2204F11400FCF7E6FD2A
:1098A00004E00E2070BD2046FFF794FFA86830B199
:1098B0000168C4F80A104068C4F80E0009E02046A8
:1098C000FFF77EFF05E0FFF785FF2046FFF778FFF3
:1098D000267204F12800A0641F20A4F84C00002088
:1098E00070BD2DE9F04F044689B000208846074638
:1098F000069014216846FCF7D2FD04F11400049090
:109900002046FFF763FA010004F14800059011D0EA
:1099100002208DF80000CDF80480616A684688470F
:10992000002005998ADF41462046FFF723FF09B052
:10993000BDE8F08FA079002107916179834621B3BA
:1099400001210691824694F804900026B8F81C0084
:109950003546089012E004EB8502D8F81800089903
:10996000FDF752FC28B1761CF6B2BAF1000F0DD00B
:1099700002E0BAF1000F06D16D1CEDB24D45EAD3FD
:10998000BAF1000F02D04E4501D009E046B19DF872
:10999000080040F004008DF8080001207F1C0790AB
:1099A000CDF80480BBF1000F02D00698874203D0A7
:1099B000079830EA0B0007D000208DF800004146E0
:1099C0002046FFF7D7FE02E003208DF80000616A11
:1099D00009B168468847002005998ADFA7E770B576
:1099E0000D46014601F108020C1D28460988143570
:1099F00086B0102935D01B291FD01D2917D020294A
:109A000042D1064614216846241DFCF748FD706AC1
:109A1000002839D005208DF80000049520680190B9
:109A200060680290207A8DF80C00716A2AE006B016
:109A30001146BDE87040FFF754BF06461421684642
:109A4000241DFCF72CFD207801281DD1706A002808
:109A50001AD004208DF80000049520788DF80400B9
:109A6000E3E7064614216846FCF719FD07208DF848
:109A70000000201D01902088ADF808000495716A4F
:109A8000002901D06846884706B070BD30B585B062
:109A9000040025D014216846FCF701FD8BDF204629
:109AA000FFF794F9012528B1616A19B18DF80050CA
:109AB0006846884704F1480104F114008ADF04462F
:109AC00008280FD074B1084808492246401AC00837
:109AD00005EB004006A100F093FC204605B030BD28
:109AE0000E20FBE70020F9E7C4DF0200ACDF020034
:109AF00073645F626C655F6761705F7363616E5F03
:109B000073746172742072657475726E656420304E
:109B10007825780000F180400068002800D00120FE
:109B2000704708B500F18040002101600068009096
:109B300008BD000070B50B4C207808B185250FE0FA
:109B40000020A06060602061E060074801F0B2F989
:109B5000054601F0D5F808B901F096F9012020700A
:109B6000284670BDF03600209980020038B50025E7
:109B70008DF800506846FDF761FA074CE068401E1A
:109B8000E060E06810B901F0A5F9A5709DF800004B
:109B9000FDF778FA38BD0000F03600202DE9F041DD
:109BA000064604780B4815460F4640F82420083036
:109BB00040F82430487B10B1084602F0B7FD0DB1E3
:109BC000054A00E0002223463946301DBDE8F04139
:109BD00001F0D8BA48310020D9C7020038B5001DBD
:109BE000049C009401F056FB38BD0000F0B505461A
:109BF0000478154889B0164640F82420124A0869AE
:109C0000121DA2F1080742F82400487F385520228F
:109C10006846FCF72BFC04942878385C48B10EB1F8
:109C20000A4A00E000226946281D01F0B1FC09B093
:109C3000F0BD0EB1064A00E00022694605F10C00B5
:109C400001F05CFBF3E700005C3000209DCF0200D8
:109C500041CE020030B40378054CE35C1BB130BC4C
:109C6000001D01F0CBBC30BC0C3001F0AFBB0000DC
:109C70005830002030B40378054CE35C1BB130BC95
:109C8000001D01F03DBD30BC0C3001F015BC0000E2
:109C9000583000200FB408B50399002904D004AA55
:109CA00000926A4600F00FF801B05DF814FB10B5A1
:109CB00082680446002A05D0D4E904032168984745
:109CC0000020A06010BD2DE9FC4791460C008046A5
:109CD00076D014F8011B39B125290ED04046FEF785
:109CE0000DF920780028F4D198F80C00002867D0EE
:109CF0004046BDE8FC47FFF7DABF0020012221788B
:109D00002B291BD02D2902D0302908D102E040F0A8
:109D1000010001E040F00200641C002AEFD10025A0
:109D20002A290ED02178A1F130020A2A11D205EB9E
:109D3000850201EB4205641C303DF1E740F0040070
:109D4000EAE7D9F800100B1DC9F800300968641C57
:109D50000D44217800232E290BD114F8011FA1F105
:109D600030020A2A05D203EB830201EB4203303BA7
:109D7000F3E76C290DD068290BD0692921D00BDCC1
:109D8000252918D0582931D063290ED0642915D13E
:109D900017E014F8011FECE7702969D0732932D05D
:109DA00075291BD0782909D120E0D9F80000011DC0
:109DB000C9F8001001784046FEF7A0F8641C90E74F
:109DC0006CE0D9F800100A1DC9F800200968CDE937
:109DD00000500A224046FEF723FFEFE7D9F80010B3
:109DE0000A1DC9F8002009680A2206E0D9F8001007
:109DF0000A1DC9F8002009681022CDE9005040462C
:109E000003F06EF9DAE7D9F8001000270A1DC9F847
:109E100000200E68C00705D112E04046761C7F1C6A
:109E2000FEF76CF831780029F7D104E02021404694
:109E30006D1EFEF763F8BD42C0D9002DF6D1BDE717
:109E40004EB13046FCF736FB074604E02021404681
:109E50006D1EFEF753F8BD4206D9002DF6D103E082
:109E60004046761CFEF74AF831780029F8D1A5E77C
:109E7000D9F80000011DC9F80010056830214046DE
:109E8000FEF73CF878214046FEF738F8082000211C
:109E9000CDE90001034610222946B0E7BDE8FC8762
:109EA00070B541EA4201DDE904564FF0A04441EAB1
:109EB000830141EA052104EB800041EA0641C0F834
:109EC000001770BD70B541EA4201DDE904564FF05C
:109ED000A04441EA830141EA052104EB800041EA04
:109EE0000641C0F8001770BD70B541EA4201DDE9D6
:109EF00004564FF0A04441EA830141EA052104EBF6
:109F0000800041EA0641C0F8001770BD70B541EA13
:109F10004201DDE904564FF0A04441EA830141EAE1
:109F2000052104EB800041EA0641C0F8001770BD2E
:109F300070B541EA4201DDE904564FF0A04441EA20
:109F4000830141EA052104EB800041EA0641C0F8A3
:109F5000001770BD1CB500220B46009211460192FD
:109F6000FFF7C2FF1CBD1CB500220B460092114634
:109F70000192FFF7CBFF1CBD1CB5002100910B46E1
:109F8000012201911146FFF7AFFF1CBD1CB5002156
:109F900000910B46012201911146FFF7B7FF1CBD4E
:109FA0004FF0A04202EB8000D0F8002722F44032AC
:109FB000C0F80027D0F8002742EA0141C0F8001796
:109FC00070474FF0A04201218140C2F80815704748
:109FD00001224FF0A043824011B1C3F80825704719
:109FE000C3F80C257047000018B5084B6C460144B7
:109FF0001B68009306E000BF54F82030D3F81035FA
:10A00000401C08C28142F7D818BD000034D30200BA
:10A01000034908B50844002101600068009008BDAC
:10A020000060004002494058012800D000207047DD
:10A030000060004030B5154A01460020D2F81044B7
:10A0400023460AE0DB681D79854205D1401C0A28B9
:10A05000F6DB4FF0FF3030BD1B68002BF2D1431C04
:10A06000F9D0CB681871D2F8103443B1DB68CC68F2
:10A070001B682360D2F81024D268116030BDC2F88A
:10A080001014C96800220A6030BD0000183A002090
:10A090007047FCF761BB704708B5034A0092402344
:10A0A000024A00F005F808BDE9C30200803800202C
:10A0B000F0B595B01C4615460F4608461A9E00F0AE
:10A0C0001BFB182109A8FCF7EAF90E96CDE9095403
:10A0D0000023082203A9384600F023FB05980690C8
:10A0E000BDF81000ADF81C00BDF81200ADF81E0060
:10A0F00000208DF821000398082600F003000128B5
:10A1000002D0022818D032E003983346850AC0F303
:10A11000C2008DF8200003980FA9C0F38314A20099
:10A12000384600F0FEFA09A8009006AB22460FA9B7
:10A13000284600F03DFA1AE00398840DC0F3C200EF
:10A140008DF82000082C01D2254600E00825334672
:10A150002A460FA9384600F0E4FA2E44641B09ABE6
:10A1600006AA29460FA800F07FF9002CEAD138464C
:10A1700000F0C8FA15B0F0BD0A4A012902EBC00090
:10A1800007D0022907D0032907D0042907D00020CF
:10A19000704702207047042070470079704740796B
:10A1A00070470000ACDF020010B5FFF772FF04211A
:10A1B0000348FFF73FFF02490120C968487110BDFD
:10A1C0009CDF02002DE9F04F8DB0FDF7AFFE18B116
:10A1D00000200DB0BDE8F08F7E4C4FF0000BC4F8AE
:10A1E00018B4BFF34F8F60680290A568D846284026
:10A1F00004EB80000CE000BFD4F8180470B92168AB
:10A200000298814201D86160E2E7284004EB8000B7
:10A210000C3002A9FEF79AFD0028EDD1002005AA16
:10A22000029901EA050304EB8303491CDB6842F849
:10A230002030401C02910228F2D3059800F0030060
:10A24000022802D001284DD0AAE005985022810DA5
:10A250008946B2EB905F00D850210E4666F39F50BE
:10A26000059008315C4800F0FEF9070078D000F056
:10A2700043FA4346082205A9384600F05AFA0299E3
:10A2800008F1080A2940681A8000001D864222D978
:10A29000504D0C3530B1C2B204EB8101301A9046FA
:10A2A0000C3104E02946F2B2002590462846C6B299
:10A2B0005346384600F03DFA0AEB080325B1324612
:10A2C0002946384600F035FA029909F1030001EBFE
:10A2D000900002903BE004EB810153463246384641
:10A2E0000C31EFE70598C0F38310062800D3062051
:10A2F000059960F38911C1F38310801C05918100D9
:10A30000354800F0B0F907004AD000F0F5F94346AF
:10A31000082205A9384600F00CFA08F108080026C2
:10A320000FE00298434600EA0501401C04EB81015E
:10A330000290042238460C3100F0FBF908F10408C1
:10A34000761C0598C0F38310B042EAD847B1D4F820
:10A350001054D4F8180478B1384600F0D3F934E03A
:10A360001EE0E8684079012804D12A682846394669
:10A3700012689047E8680568002DF2D1384600F071
:10A38000C1F98DF800B06846FCF758FED4F81804FF
:10A3900008B9029860609DF80000FCF773FE14E0B5
:10A3A000D4F8104405E02168204689688847E068B1
:10A3B0000468002CF7D109480949401AC008022155
:10A3C00001EB004007A100F017F8FDF7AFFD80F0AA
:10A3D0000100FEE6183A002060E0020024E00200DE
:10A3E000ACDF02004261636B656E647320666C755E
:10A3F000736865640000000000231A4602F0C0B8CC
:10A4000008B5012300926A4602F0BAF808BD1CB5EF
:10A41000CDE9002302236A4602F0B2F81CBD3EB526
:10A42000069C8DE81C0003236A4602F0A9F83EBD95
:10A4300070B586B00DF1280C9CE870008DE87C00AA
:10A4400005236A4602F09CF806B070BDF0B587B0EF
:10A450000DF1300C9CE8F0008DE8FC0006236A4604
:10A4600002F08EF807B0F0BD2DE9F0470E468046A9
:10A470001C469246082940D894F80C90002020737E
:10A480001946104601F03AFC0025B54206D218F8EC
:10A4900005201BA12046FFF7FDFB03E01AA1204683
:10A4A000FFF7F8FB6D1C082DEFD318A12046FFF72E
:10A4B000F1FB0025B54212D218F805707E2F08D89E
:10A4C000FBF7D0FF0068C05D10F03E0F01D03A46A8
:10A4D00000E02E220EA12046FFF7DCFB03E00DA1D9
:10A4E0002046FFF7D7FB6D1C082DE3D30122214640
:10A4F000504601F0E5FB84F80C90BDE8F0870000C1
:10A500002025303278000000202020007C00000050
:10A5100025630000200000000B4810B5FF2181607A
:10A52000002101604160C0F81814C0F8141480F8CC
:10A530002014064800F0E4F8002803D1044800F095
:10A5400014FA002010BD0000183A002060E002005C
:10A5500048D5020002480349401AC008704700006D
:10A560004CE00200ACDF020013B56846FEF7D0FDF8
:10A5700008B100201CBD0248009950F831001CBDF4
:10A58000ACDF020070B509480125D0F8104480F80E
:10A59000205407E0E06845712168204649688847F3
:10A5A000E0680468002CF5D170BD0000183A002066
:10A5B0002DE9FF4781460C9D00200C462F7B287318
:10A5C000984616462946184601F098FB072E42D2B7
:10A5D000DFE806F004090F161F2A36004946284610
:10A5E000FFF758FB37E0494628462268FFF752FB41
:10A5F00031E0D4E9002349462846FFF74BFB2AE027
:10A60000A0680090D4E9002349462846FFF742FBA2
:10A6100021E0D4E90201CDE90001D4E90023494653
:10A620002846FFF737FB16E004F1080007C88DE85D
:10A630000700D4E9002349462846FFF72BFB0AE030
:10A6400004F108000FC88DE80F00D4E90023494643
:10A650002846FFF71FFB00222946404601F030FB49
:10A660002F73BDE8FF872DE9F041058A80462D1F35
:10A670004819C01CB0FBF5F0C6B24046FEF799FE83
:10A68000041E19D00020207101206071E580002790
:10A690002546761EC4F800800BE04046FEF789FE92
:10A6A00060B16179491C6171286005467F1CC0F862
:10A6B0000080B742F1D32046BDE8F081204600F08B
:10A6C00002F80020F8E72DE9F041457901466B1EBC
:10A6D000002201E00968521C9A42FBD30F68014630
:10A6E000002605E038460C68FEF785FE2146761CFC
:10A6F000AE42F7D3BDE8F0810121001DFEF73DBE5B
:10A70000FEF791BE10B504460121001DFEF74BFE79
:10A7100010F0FF0F04D12046BDE81040FFF7D3BF73
:10A7200010BD1CB501920122009201AAFEF7B0FCF7
:10A730001CBD1CB501920022009201AAFEF7A8FCE4
:10A740001CBD0000064910B500204870091D0860B6
:10A75000BFF35F8F0349044800F0F6FA002010BDF4
:10A76000DC300020B0D302007438002008B500208F
:10A770008DF800006846FCF761FCF1EE100A20F04D
:10A780009F00E1EE100ABFF35F8F08494020C1F837
:10A7900080029DF80000FCF775FC00F0B1FA08B1EA
:10A7A00041DF08BD20BF40BF20BF08BD04E000E07E
:10A7B00070B504460C480121FEF7EAFDBFF35F8F38
:10A7C0000025002809D10120074E042C08D0311F94
:10A7D0004A781AB1BFF35F8F356070BD0C70487056
:10A7E00001F03AFEF6E70000E03000202DE9F843E2
:10A7F0000446002790460E468DF800706846FCF728
:10A800001DFC204600F039F838B105279DF80000FE
:10A81000FCF738FC3846BDE8F88320680568B8F1D5
:10A82000000F05D10168204600F03FF8216808605C
:10A83000E268012A0CD0022A0ED0042A11D06068E6
:10A84000082A13D005FB02013046FBF70FFEDDE7B7
:10A850006068405D3070D9E7606830F8150030807E
:10A86000D4E7606850F825003060CFE700EBC50101
:10A87000D1E90001C6E90001C8E701680868496834
:10A88000884201D1012070470020704701680A68A2
:10A8900049688068884201D9491C00E00021914242
:10A8A00001D101207047002070478068884201D99B
:10A8B000481C7047002070472DE9F84304464FF0CC
:10A8C00000080E468DF800806846FCF7B7FB20466E
:10A8D000FFF7DCFF07000AD0207C40B14FF00408EE
:10A8E0009DF80000FCF7CEFB4046BDE8F8832068E9
:10A8F000456841682046FFF7D8FF2168486037B1B6
:10A90000206801682046FFF7D0FF21680860E268F0
:10A91000012A14D0022A16D0042A19D0082A1CD0E1
:10A920006068314605FB0200FBF7A0FD204601F000
:10A93000C9FA21688A688242D2D28860D0E7616809
:10A9400030784855F2E76168308821F81500EDE766
:10A950006168306841F82500E8E7D6E900016268DF
:10A9600002EBC502C2E90001E0E7826800219160C4
:10A9700082681161826851618268D1608268516029
:10A9800080680160704708B500224250405800902E
:10A9900008BD000020B1034909680160002070472C
:10A9A0000E207047CCD502002DE9FE4307460E4627
:10A9B0000846FFF7EFFF00287CD1002500950195A0
:10A9C00006208DF800704FF00108ADF804000295E4
:10A9D0008DF8028069462020326869DF3649374A9F
:10A9E000891AC908012202EB014430B100F01AFAB9
:10A9F000024620463249FFF703FD00958DF80150CD
:10AA00008DF80280019502958DF8038069464020FB
:10AA1000326869DF30B100F005FA02462046294964
:10AA2000FFF7EEFC00958DF80070F720ADF80200FE
:10AA30000195029569462320326869DF30B100F044
:10AA4000F1F9024620462049FFF7DAFC009501950E
:10AA500002958DF8008069460120326869DF30B1C7
:10AA600000F0E0F9024620461849FFF7C9FC4FF410
:10AA7000B0600090019502956946A120326869DFB7
:10AA800030B100F0CFF9024620461149FFF7B8FC7B
:10AA90000095019502958DF800506946A020326816
:10AAA00069DF30B100F0BEF9024620460949FFF7E0
:10AAB000A7FC0020BDE8FE8334E00200ACDF02000A
:10AAC000CCDD020014DE020060DE02002CDD02009C
:10AAD00078DD0200D8DC02002DE9F0410546076868
:10AAE00060DF804619491A482A68081AC608BA421F
:10AAF00019D9022000EB064416A12046FFF77CFC82
:10AB000020463A461FA12B68FFF781FC4FF080508A
:10AB1000D0F80C012968800200F10050421A20464A
:10AB200025A1FFF76DFCB8F100004FF001040AD039
:10AB300000F078F9024604EB06402AA1FFF760FC1A
:10AB40004046BDE8F0812F480470F9E734E0020088
:10AB5000ACDF0200496E73756666696369656E7481
:10AB60002052414D20616C6C6F6361746564206696
:10AB70006F722074686520536F66744465766963EC
:10AB8000652E00004368616E676520746865205219
:10AB9000414D207374617274206C6F636174696FCE
:10ABA0006E2066726F6D203078257820746F2030AB
:10ABB0007825782E000000004D6178696D756D2054
:10ABC00052414D2073697A6520666F722061707002
:10ABD0006C69636174696F6E2069732030782578C1
:10ABE0002E00000073645F626C655F656E61626C6D
:10ABF0006528292072657475726E65642025732E30
:10AC0000000000004731002030B51548ADF5017D4A
:10AC10000078002821D04FF4FA7500BFADF800523B
:10AC200080A9684661DF38B1052816D00DF5017D91
:10AC3000BDE83040FCF7DAB86C460A497DA800F060
:10AC400083F806E0D0E90021204690477DA800F077
:10AC500092F87F980028E1D0F4E70DF5017D30BD32
:10AC600047310020D0D502007CB5194C207808B1BE
:10AC700008207CBD0120A070002001F087FB112876
:10AC800019D0002001F09AFB1248002600680190BC
:10AC90008DF800606846FCF7D1F90F4901A810DF74
:10ACA00005000AD0002020709DF80000FCF7EAF9AA
:10ACB0002DB128467CBD00207CBD0120F3E7A670A5
:10ACC000667001F013FC012001F078FBF3E700004F
:10ACD0004431002064D50200696D02000EB50749B9
:10ACE000684600F031F805E0D0E900108847684672
:10ACF00000F041F802980028F6D10EBD80D5020080
:10AD00000148007870470000443100201FB56846B4
:10AD10004BDF30B1052814D004B0BDE81040FCF77B
:10AD200065B8084901A800F00FF806E0D0E9002155
:10AD30000098904701A800F01EF803980028E6D07C
:10AD4000F4E71FBDECD50200016009684160AFF374
:10AD5000008010B5D0E900215368994201D100214B
:10AD600004E0D1E90034A34202D01946816010BD4D
:10AD700008314160F0E7816800290BD002689268D1
:10AD80000A44826041684B689A4203D108314160AD
:10AD9000FFF7DFBF704770B50D460646446804E014
:10ADA000B2682946904718B1246820680028F7D176
:10ADB00020682860256070BD406800687047416861
:10ADC0000868002801D002680A6070470246002027
:10ADD000526806E08B4203D108681060012070477A
:10ADE0001A461368002BF5D1704700000C4A10B5C5
:10ADF00002F594730EE0991AC91001EBD171491054
:10AE000002EBC1010C68844201D90B4602E005D275
:10AE100001F108029A42EED3002010BD486810BD2F
:10AE2000D0D3020000B5FFF7E1FF002800D10148B0
:10AE300000BD0000BCD302004058002800D0012013
:10AE4000704708B5002242504058009008BD405855
:10AE5000002800D00120704708B500224250405819
:10AE6000009008BDD0F80403084000D001207047CE
:10AE70004058002800D00120704708B500224250F9
:10AE80004058009008BD000008480068012110F0FB
:10AE9000010F06D14FF0E020C02280F80024C0F856
:10AEA00000110349012008607047000000E100E044
:10AEB000180500400649024600200B790BB1852099
:10AEC00070470A6001220A7100224A71704700002F
:10AED0006430002004490120086004480168C1F37F
:10AEE00000410029FAD170470C00004018040040CE
:10AEF000002802D0014980010847704781D3020031
:10AF0000002802D0014980010847704701D602009D
:10AF10002DE9F0418846054600F0BAFE234E002890
:10AF200028461AD0FDF756F8304490F848008009BA
:10AF3000032802D001280ED007E04FF0A040D0F83F
:10AF40001005E84010F0010F05D003212846BDE8A8
:10AF5000F041FFF725B80221F8E700F0A5FE002830
:10AF600022D02846FDF736F804464FF4807000EBF7
:10AF700084000F4F81B207EB8400D0F8102542F017
:10AF80000102C0F810250846FFF742F8B8F1000F9B
:10AF90000AD02846FDF71EF856F82000002803D0F6
:10AFA0000120A040C7F80403BDE8F0810437002069
:10AFB000006000402DE9FC41DFF8BC80044608EB4E
:10AFC0000400002790F930001346C0170E46401CBD
:10AFD00001D008274CE0B0781946C0F34002204663
:10AFE000FCF7D4FF0546401C41D0B078410719D486
:10AFF000C0070AD04FF0A04000EB8401D1F8000751
:10B0000020F00200C1F8000707E000217378204615
:10B0100000910A460191FEF755FF17492046543129
:10B02000FEF721FAB078800718D51448317800EB84
:10B030008500D0F81025124B1A40C0F810254FF4A7
:10B04000F8524FF4403302EA042203EA01410A4372
:10B05000D0F810150A43C0F8102509E008EB0500E8
:10B06000327810F8481F41EA8211017000E004278D
:10B070003846BDE8FC810000043700200060004035
:10B08000FFE0FCFF4FF0A041D1F81015C14011F0D6
:10B09000010000D00120704770B5174D95F8580099
:10B0A00008B1082070BD0020411E2A18401CC0B203
:10B0B00082F830102028F8D300242046FCF758FFEF
:10B0C000641CE4B20C2CF8D300240C49C0206C653D
:10B0D00081F8000401264020891FC1F800014FF4C7
:10B0E000BE70FEF795FF0649F007C1F8040385F826
:10B0F0005860204670BD00000437002006E000E0E4
:10B1000000600040034890F85800002800D001205B
:10B1100070470000043700200121B1EB507F01D1BE
:10B12000012070470020704738B50D4600F032FE10
:10B13000040014D000208DF800006846FBF77EFF65
:10B14000207928B19DF80000FBF79CFF112038BD45
:10B150000120256020719DF80000FBF793FF00207F
:10B1600038BD00000179064AC1EB0111006802EB0D
:10B1700081010522C0F80025022081F82E007047C9
:10B18000C44000202DE9FC410646174600790D46D3
:10B19000324AC0EB001102EB8104984694F82E105D
:10B1A00011B10820BDE8FC812D4951F8201030680C
:10B1B000FFF7BAFF08B11120F4E7C4E900780027CF
:10B1C000A76084F82D7084F8317084F83070687B43
:10B1D00084F838004FF00608CDE9008703233A468B
:10B1E00039462868FEF7A4FECDE900870022032334
:10B1F00011466868FEF79CFED5E900123068C0F879
:10B200000815C0F80C25A968C0F82415206801228B
:10B21000F8B1306840F30731287B00294FEA40102D
:10B2200006DA01F00F0101F1E02181F8140D03E0CD
:10B2300001F1E02181F80004306840F3073000F0AC
:10B240001F0102FA01F14009800000F1E020C0F87E
:10B25000001184F82E200020A4E70000C440002044
:10B2600008D60200F0B585B015460E4607461C46C6
:10B27000142207496846FBF7F9F88DF801600022AF
:10B28000694638460395019400F020F805B0F0BDFA
:10B290000CD602002DE9F04186B00E4680461C46D1
:10B2A0001546142168460C9FFBF7F9F88DF80160EC
:10B2B000039501940FB1202200E000226946404628
:10B2C00000F004F806B0BDE8F081000030B4037966
:10B2D000054CC3EB031304EB830413460A460068D2
:10B2E000214630BC01F068BCC4400020014902483E
:10B2F00001F0BEBD60370020002000402DE9F04184
:10B300000546007916460F4600EB40012C4A01EB3A
:10B31000C00102EB810494F82A1011B10820BDE8A5
:10B32000F081284951F820102868FFF7FDFE08B188
:10B330001120F4E739462846FBF7BEFE66603869FF
:10B34000206030004FF001062DD03F7F4FF48E710A
:10B350002868FFF781FD4FF4A2712868FFF77CFD94
:10B3600028681949C0F8041328684FEA471140F3C8
:10B370000730002806DA00F00F0000F1E02080F826
:10B38000141D03E000F1E02080F80014286840F369
:10B39000073000F01F0106FA01F14009800000F1BA
:10B3A000E020C0F8001128680421C0F80015002032
:10B3B000A061E06184F8290044F8140FA675AEE797
:10B3C0006037002038D30200800002002DE9F05FD2
:10B3D000054600794FF4017600EB400303EBC00013
:10B3E000344B03EB80040020636813B12B68C3F86F
:10B3F0000863A3694FF000096BB1E06938B1606878
:10B4000010B12868C0F804631120BDE8F09FE26124
:10B410000120216105E0C4F82490A261E160C4F834
:10B420001C9094F82910014302D1284600F0E5FE53
:10B4300060680028286803D0C0F804630020E4E7AF
:10B440004FF4A2763146FFF707FDB2464FF4927BE8
:10B4500059462868FFF7FBFC06464FF484712868BC
:10B46000FFF7F5FC804651462868FFF7F0FC0746D9
:10B4700048EA07003043EBD056EA070007D12146DF
:10B48000286800F08BFEA169606A8142E0D8C4F8A8
:10B4900018900EB10320B8E70FB10F20B5E794F86C
:10B4A000291001200029296801D00860C6E74860FA
:10B4B000C4E70000603700202DE9F05F0546007901
:10B4C0000B4600EB400101EBC000244901EB800476
:10B4D000284600F045F810B11120BDE8F09F6261E8
:10B4E0004FF00009C4F82090A36084F828904FF42E
:10B4F0008E784E4641462868FFF7AEFC28684FF02C
:10B50000010AC0F808A02146286801F0A7FB60687E
:10B5100008BBD5F800B067690FE000BF94F82800B9
:10B5200008B10F2615E041465846FFF790FC002869
:10B53000F4D02146584601F091FB206AB842F2D37C
:10B54000574641462868FFF782FC0028F9D0286852
:10B55000C760C4F814903046BFE700006037002091
:10B56000007900EB400101EBC000044901EB8000D1
:10B570004069002800D0012070470000603700209B
:10B580000149024801F022BD8C3700200020004014
:10B590002DE9F0410546164600790F46154A00EBA5
:10B5A000C00102EB810494F8201011B10820BDE81D
:10B5B000F081114951F820102868FFF7B5FD08B156
:10B5C0001120F4E739462846FBF7BAFD6660386972
:10B5D00020601EB1397F2846FDF776FB28680821D8
:10B5E000C0F800150020A061E0616061012184F8CD
:10B5F0002010DCE78C3700203CD302002DE9F05FFF
:10B60000044600790E4600EBC001DFF8F0A01746B3
:10B610000AEB81053046FFF77FFDB0B168684FF057
:10B6200000084FF4047910B12168C1F80893A869A3
:10B630004FF0000B80B1E86948B1686810B120682C
:10B64000C0F804931120BDE8F09F1020FBE7EF61E4
:10B650004FF001082E6102E0EE60C5E9067B00258F
:10B660004FF488712068FFF708FC4FF4A27120683E
:10B67000FFF703FC2068C0F83465C0F8387520680F
:10B68000B8F1000F12D0D0F8001241F02001C0F83C
:10B6900000122079D04600EBC0010AEB810040681F
:10B6A00038B12068C0F804932846CCE70121016036
:10B6B000EFE74FF4887A4FF4A27951462068FFF7FC
:10B6C000D7FB074649462068FFF7D2FB06464FF4F2
:10B6D00092712068FFF7CCFB014647EA0600084359
:10B6E000EBD0227902EBC20308EB8302C2F818B058
:10B6F00001B10325002ED7D00F25D5E78C370020C8
:10B700002DE9F04704460E460079274900EBC000BA
:10B7100001EB800517463046FFF7FEFC30B12046AE
:10B7200000F044F820B11120BDE8F0871020FBE7BD
:10B730006F61AE604FF490774FF000083946206893
:10B74000FFF79BFB4FF4AC7631462068FFF795FB83
:10B750002068AA686969C0F84425C0F848152068BF
:10B760004FF00109C0F808906868D0B9BA46514650
:10B770002068FFF77DFB074631462068FFF778FB1E
:10B780000743F4D010B14FF00F0808E02068C0F86C
:10B790000C9031462068FFF76BFB0028F9D00020A1
:10B7A00068614046C0E700008C37002000790549F9
:10B7B00000EBC00001EB80004069002800D00120B0
:10B7C000704700008C370020FBF710BB2DE9F84FC5
:10B7D00005460C460888B5F8CA12884279D195F812
:10B7E000C6024FF0000A00EB8001C1EB801005EBB0
:10B7F00040066088002860D13079E288A71D814624
:10B80000D1B250FA82F2062A02D80844307111E00F
:10B8100006203071374838493288401AC108022062
:10B8200000EB014080463549FEF7EAFD40463449C9
:10B83000FEF7E2FD48460022D0461BE000EBC001C7
:10B8400002EB820307EB430306EB4101D3F802C08E
:10B85000C1F80AC0D3F806C0C1F80EC05B894B829C
:10B86000A1F81480A1F81680A1F81880401CA1F856
:10B870001A80521C31798142E0D895F8C61200EB4B
:10B88000C00001EB8102C2EB811105EB410136F8EA
:10B8900010000989884210D2307906280DD085F829
:10B8A000C50221882846FCF79DFB002811D022887C
:10B8B0002946BDE8F84FFCF771BD85F8C5A222887E
:10B8C00069462846FCF778FC28B122882946FCF70F
:10B8D00065FDBDE8F88F9DF800000028F9D02288AA
:10B8E00001212846FCF700FD2188284600F082F956
:10B8F000EFE70000ACDF0200ACDF0200A8D60200D8
:10B90000F0D6020070B58D88027900EBC504227371
:10B91000C97BA41D012902D0022904D101E00088BD
:10B9200000E04088208021886088814211D9284623
:10B93000A5DF0126B0B1112816D0FFF773FA024631
:10B940000B480C49401AC00806EB00400AA1FEF75C
:10B9500057FDA179E079814208D92846BDE87040B9
:10B96000FCF7C4BB6671F4E72671F2E770BD000016
:10B97000B4DF0200ACDF020073645F626C655F6776
:10B98000617474635F65786368616E67655F6D7429
:10B99000755F726571756573742829207265747599
:10B9A000726E65642025732E00000000F8B5054610
:10B9B0000C460888B5F8CA12884255D195F8C602D7
:10B9C000A21D00EB8001C1EB801005EB400695F84D
:10B9D000C50200EBC00006EB400160880A3138B3B5
:10B9E00029E000BF00EB400302EB43039F88B7F55B
:10B9F000245F0CD06FF4245C17EB0C070AD0012FE6
:10BA000002D0072F0BD108E05B884B8107E05B88F1
:10BA10008B8104E05B88CB8101E05B880B824B89E2
:10BA20002BB18B891BB1CB890BB10B8A1BB9401C85
:10BA300013888342D6D800208DF8000095F8C502FF
:10BA40003179401C884203D101208DF8000010E0BC
:10BA500085F8C502228869462846FCF7ADFB20B16F
:10BA600022882946FCF79AFCF8BD9DF800000028C2
:10BA7000FAD0228801212846FCF736FC2188284686
:10BA800000F0B8F8F8BD00007CB506468D88C8887F
:10BA900006EBC504A41D172800D217202188814277
:10BAA00000D8084660800020207121882846B5DF34
:10BAB00060B1FFF7B7F902460F481049401AC008B5
:10BAC000012101EB00400EA1FEF79AFC60790028ED
:10BAD00010D1306900280DD01549D1E90201CDE916
