:020000040002F8
:10600000C87B0020696402007164020073640200AE
:1060100075640200776402007964020000000000E9
:106020000000000000000000000000007B6402008F
:106030007D640200000000007F64020081640200B1
:10604000B16D02008364020091730200617002006E
:1060500083640200836402009D6A0200836402007C
:10606000836402008364020083640200836402008C
:10607000836402008364020083640200836402007C
:1060800083640200096E02008364020083640200DC
:106090008364020083640200717002008364020062
:1060A000836402008364020083640200836402004C
:1060B000836402008364020000000000000000000E
:1060C000836402008364020083640200836402002C
:1060D0008364020083640200856A020000000000FD
:1060E00000000000000000000000000000000000B0
:1060F00000000000000000000000000000000000A0
:10610000000000000000000000000000000000008F
:10611000000000000000000000000000000000007F
:10612000000000000000000000000000000000006F
:10613000000000000000000000000000000000005F
:10614000000000000000000000000000000000004F
:10615000000000000000000000000000000000003F
:10616000000000000000000000000000000000002F
:10617000000000000000000000000000000000001F
:10618000000000000000000000000000000000000F
:1061900000000000000000000000000000000000FF
:1061A00000000000000000000000000000000000EF
:1061B00000000000000000000000000000000000DF
:1061C00000000000000000000000000000000000CF
:1061D00000000000000000000000000000000000BF
:1061E00000000000000000000000000000000000AF
:1061F000000000000000000000000000000000009F
:1062000000F002F800F04AF80AA090E8000C82447E
:106210008344AAF10107DA4501D100F03FF8AFF25B
:10622000090EBAE80F0013F0010F18BFFB1A43F074
:1062300001031847186B0000386B0000103A24BFA8
:1062400078C878C1FAD8520724BF30C830C144BFDB
:1062500004680C607047000000230024002500261D
:10626000103A28BF78C1FBD8520728BF30C148BFB9
:106270000B607047642900F0E781002070471FB56C
:1062800006F010F800F000FB04000020002105F0EB
:10629000F3FF401C60601FBD10B510BD00F0BCFBDB
:1062A0001146FFF7ECFF03F051F800F0DAFB03B4FE
:1062B000FFF7F2FF03BC00F0DDFB000030B450E854
:1062C000012F93B2C48923448489A34228BF1B1B96
:1062D0000489A34202BFBFF32F8F002007E0C3EA67
:1062E000020340E80134002CE9D14FF001000A60BC
:1062F00030BC704750E8012FC2EA024240E8012159
:106300000029F7D1704730B450E8022F1FFAA2F3EA
:10631000C488A34202BFBFF32F8F00200DE0C489C1
:1063200023448489A34228BF1B1BC2EA034340E8DD
:106330000234002CE8D14FF001000A6030BC7047F5
:1063400050E8022FC2EA224240E802210029F7D198
:106350007047034653E8022FD988B2EB324F4FF013
:10636000000017BF92B241EA014142EA014104E054
:106370005A68B2EB324F08BF012043E80212002AEC
:10638000E8D1704730B4044654E8000F0D4644E8A5
:106390000053002BF8D1156030BC704730B4044670
:1063A00054E8000F40EA010544E80053002BF7D100
:1063B000156030BC704730B4044654E8000F00EA62
:1063C000010544E80053002BF7D1156030BC70473D
:1063D00030B4044654E8000F80EA010544E8005355
:1063E000002BF7D1156030BC704730B4044654E838
:1063F000000F00EB010544E80053002BF7D11560B6
:1064000030BC704730B4044654E8000FA0EB0105DF
:1064100044E80053002BF7D1156030BC704770B4CE
:1064200004464FF0000054E8006F0D68AE4207BF0D
:1064300044E80023012044E800630E60002B1CBFE9
:106440000020F0E770BC704730B4044654E8000FF9
:1064500088422CBF451A054644E80053002BF5D16D
:10646000156030BC70470000094880470948004764
:10647000FEE7FEE7FEE7FEE7FEE7FEE7FEE7FEE7F4
:10648000FEE7FEE704480549054A064B7047000051
:106490007570020001620200C83B0020C87B00202A
:1064A000C85B0020C85B002010B500F0EDF9001DAE
:1064B00010BD00BFC55D000053EA020C00F069800A
:1064C0002DE9F04B4FF00006002B1FBFB3FA83F508
:1064D00003FA05F424FA05F65E4012BF1643B2FA39
:1064E00082F502FA05F4C5F120051EBF22FA05FC6B
:1064F00044EA0C04203556EA044C4FEA144418BF11
:10650000641C4FF000084FF00009904271EB030C3F
:1065100039D3002919BFB1FA81F701FA07F6B0FAA9
:1065200080F700FA07F6C7F120071EBF20FA07FC24
:1065300046EA0C062037B6FBF4FCA7EB0507103F34
:1065400007F01F0BCBF120060CFA0BFB2CFA06F61A
:1065500044BFB3460026202FA4BF5E464FF0000B79
:106560005BEA060C08BF4FF0010B19EB0B09ABFB04
:10657000027C48EB0608C01B06FB02CC0BFB03CCDD
:1065800071EB0C01C1E70B46024641464846BDE8A7
:10659000F08B13B54FF000004FF00001AFF3008017
:1065A000BDE81C40704700000FB47CB50C0009AA80
:1065B000009001D02044401E084B7B446946019066
:1065C000089800F0C4F905461CB10020694600F0A7
:1065D000D1F928467CBC5DF814FB0000C103000023
:1065E0002DE9F0410E460446002020622046E16875
:1065F000884730B3252805D0D4E901219047206A87
:10660000401CF2E7E168204600278847050018D0C3
:10661000A5F14100192802D820354FF40067324611
:10662000294620462760FFF725FE40B1012804D007
:10663000F61D26F007060836D8E7361DD6E72846A9
:10664000DAE7206ABDE8F0812DE9F0410646002432
:1066500010687529314616A510D0AFF300800028C8
:1066600002DA404213A507E031688A0701D512A576
:1066700002E0490704D511A5012401E0AFF3008031
:1066800000210A2206F1240709E0B0FBF2FCB0FB6E
:10669000F2F302FB1C00303078541846491C0028E5
:1066A000F3D123462A463046BDE8F04100F0F0B869
:1066B000000000002D0000002B0000002000000062
:1066C00040EA0103024630B59B0710D14FF0013478
:1066D00000E008C208C91D1B9D4315EAC41FF8D07D
:1066E00013F0FF0102F8011B0DD01B0AF8E711F8A7
:1066F000013B002B02F8013B05D011F8013B002BB8
:1067000002F8013BF3D130BD10B5431C02E010F894
:10671000011B71B18107FAD14FF0013202C88C1A06
:106720008C4314EAC211F9D0C01A0A0603D0C01E65
:1067300010BDC01A10BD0A0401D0801E10BD090290
:10674000FCD0401E10BD032A40F2308010F0030C34
:1067500000F0158011F8013BBCF1020F624498BFB4
:1067600011F801CB00F8013B38BF11F8013BA2F151
:10677000040298BF00F801CB38BF00F8013B11F0CC
:10678000030300F02580083AC0F0088051F8043B6C
:10679000083A51F804CBA0E80810F5E7121D5CBFD9
:1067A00051F8043B40F8043BAFF30080D20724BF0C
:1067B00011F8013B11F801CB48BF11F8012B24BFA0
:1067C00000F8013B00F801CB48BF00F8012B7047EF
:1067D00010B5203AC0F00B80B1E81850203AA0E87C
:1067E0001850B1E81850A0E81850BFF4F5AF5FEAB0
:1067F000027C24BFB1E81850A0E8185044BF18C963
:1068000018C0BDE810405FEA827C24BF51F8043B09
:1068100040F8043B08BF7047D20728BF31F8023B5D
:1068200048BF11F8012B28BF20F8023B48BF00F8F1
:10683000012B70474FF0000200B513469446964670
:10684000203922BFA0E80C50A0E80C50B1F1200183
:10685000BFF4F7AF090728BFA0E80C5048BF0CC031
:106860005DF804EB890028BF40F8042B08BF70478F
:1068700048BF20F8022B11F0804F18BF00F8012B01
:10688000704770477047704700487047843B00204E
:106890002DE9F0470D4699469246044600F124083A
:1068A0000168880604D5E06921F01001216000E04C
:1068B0000120A84201DD471B00E00027A1697A19E9
:1068C00002EB0900081AA0612078C00602D4204615
:1068D000AFF30080002608E0D4E901211AF8060091
:1068E0009047206A401C761C20624E45F4DB2078DD
:1068F000C0060AD52046AFF3008006E0D4E90121A6
:1069000030209047206A401C2062381EA7F1010702
:10691000F4DC07E0D4E9012118F805009047206A6B
:10692000401C2062281EA5F10105F3DC2046AFF3D0
:1069300000802078000602D50220BDE8F087012003
:10694000FBE7000001694A1C02610878704700B546
:106950008FB0CDE901310021059105497944CDE998
:10696000031011466846FFF73BFE0FB000BD000064
:10697000E5FFFFFF0A6802F8010B0A607047D1E9E2
:1069800000239A4202D2531C0B6010707047000023
:1069900000487047643B00204FF0013C50F8042B46
:1069A00051F8043B9A4221D1A2EB0C03934313EA22
:1069B000CC1317D150F8042B51F8043B9A4215D14F
:1069C000A2EB0C03934313EACC130BD150F8042B26
:1069D00051F8043B9A4209D1A2EB0C03934313EA0A
:1069E000CC13DBD04FF00000704700BFD01A01BAC3
:1069F000B1FA81F101F0180122FA01F0CB40C1F1A6
:106A00002001DBB2C0B2C01A2CFA01F3D11A9143B3
:106A100011EAC311E6D170477546FFF7B9FFAE46DC
:106A200005006946534620F00700854618B020B59A
:106A3000FFF728FDBDE820404FF000064FF00007AB
:106A40004FF000084FF0000B21F00701AC46ACE816
:106A5000C009ACE8C009ACE8C009ACE8C0098D4683
:106A6000704710B50446AFF300802046BDE81040E3
:106A7000FFF71DBC01491820ABBEFEE7260002004F
:106A80007047000004480068F1EE101A016C21F014
:106A90009F0101647047000038EF00E02DE9F047E6
:106AA00000268AB0DFF85091B0464FF4807501247B
:106AB00037460696284603F0F7FB38B1D9F80403A9
:106AC000204203D0284603F0E5FB26432D1D640039
:106AD0007F1CADB2082FEDD34FF4BE74204603F0F7
:106AE000E3FB48B1204603F0D5FB46F0004606AA7A
:106AF0000121002003F0BAFB404D16F0FF0F15D026
:106B00000127002437420DD009EB8401D1F810058C
:106B1000D1F81015C0F3042055F82420C1F3014129
:106B200002B190477F00641C082CEBD3002E5FDA83
:106B30004FF0FF30CDF8108054E0281910F8507F46
:106B400090F9000027F0C008401C3BD007A9404640
:106B500003F096F810B34FEA9719404601F0EEFEA5
:106B600055F820701FB1B9F1030F03D006E0B9F159
:106B7000030F27D104A9404603F08AF84FF0A04143
:106B800001EB8800D0F8000706A9C0F3014A40468F
:106B900003F076F818B1BAF1020F03D012E0BAF19F
:106BA000030F0FD1B9F1030F08D1BAF1020F1DD0B5
:106BB0000221404603F037FB761CF6B217B1494676
:106BC0004046B847641C042CB7D3002E10D06A4648
:106BD0000121002003F04AFB06990098884207D063
:106BE00006900498002634460790A6E70321E0E7C4
:106BF0000AB0BDE8F08700000060004008320020C5
:106C00007CB514460D46064606226946432002F02E
:106C100023FE00280CD0BDF8000040BA3080BDF83B
:106C2000020040BA2880BDF8040040BA208001204C
:106C30007CBD000070B52DED028B90B00020ADF84A
:106C40001000ADF81400ADF838000EAA05A904A88C
:106C5000FFF7D6FF002869D0BDF91000DFED350A37
:106C600000EE100ABDF914003349B8EEC00A334AE9
:106C700080EE208A00EE100AB8EEC01A81EE200ADB
:106C8000DFED2F0A18EE100A884205DA18EE100A16
:106C9000904201D2B0EE608A10EE100A884205DA06
:106CA00010EE100A904201D2B0EE600ADFED250A24
:106CB00020EE200ABDEEC00A10EE100A01F00EFF11
:106CC0009FED210A044628EE000ABDEEC00A10EE30
:106CD000100A01F003FF054654EA050026D02346BA
:106CE0001AA2202106A80095FFF75EFC0604360CC8
:106CF0001CD019490A224888B0FBF2F302FB1302A8
:106D0000401C488072B9BDF91400BDF91010CDE9DE
:106D1000021040F22F1311A217A10020CDE9004567
:106D200000F0C8F8314606A801F0B4FB10B0BDEC85
:106D3000028B70BD333383419A99993F9A9999BFD9
:106D400000000000EC51383EEC5138BE4D2C25645B
:106D50002C25640A00000000F02B00202E2E5C2E53
:106D60002E5C2E2E5C4D5055363035305C6D707576
:106D7000363035302E6300001B5B313B33376D3CC2
:106D800044656275673E5B25737C25645D206D6F8D
:106D90007573652064783D25642064793D25642001
:106DA00067783D25642067793D25640D0A00000061
:106DB00070B54FF48076304603F0B2F8114CB5054B
:106DC00060B1304603F0B3F80120C5F808036079DC
:106DD00020B9012060712168002088474FF4827635
:106DE000304603F09DF800280AD0304603F09FF8A3
:106DF0000220C5F808032168BDE87040012008475B
:106E000070BD0000342B002002490248091F0968A8
:106E100000680847702B002000F0C0BAF8B50D4B91
:106E20000646144618780D4608B900F0B7FA002057
:106E30008DF80000684600F00FFD224629463046D6
:106E400000F00AF804469DF8000000F029FD2046F5
:106E5000F8BD0000DC38002070B50E46144900EB88
:106E6000400001EBC0051446E86A183520B101283E
:106E70000FD0022805D113E0284600F0C3FAA04243
:106E800001D2002411E022463146284600F0E0FB02
:106E90000BE0284600F0B6FAA042F4D20446F2E72E
:106EA0003146284600F0A7FB0446204670BD00008E
:106EB000DC3800200FB408B504A900916A46039994
:106EC00000F003F801B05DF814FB2DE9F04198B033
:106ED000064607A8029040200025CDE90305CDE92C
:106EE000055690460C4614F8011B002973D025293D
:106EF00008D002A800F060FB05980028F3DA18B06B
:106F0000BDE8F081002001212278232A1ED02B2AFF
:106F100019D02D2A02D0302A08D102E040F0010019
:106F200001E040F00200641C0029EDD1002221782C
:106F3000A1F130030A2B0CD202EB820201EB4202D8
:106F4000303A641CF3E740F00400ECE740F008003E
:106F5000E9E70023CFB22E2F0BD114F8011FA1F1C6
:106F600030070A2F05D203EB830301EB4303303BC9
:106F7000F3E76C290DD068290BD0702954D00BDCB5
:106F8000252916D0582931D063290CD0642913D172
:106F900014E014F8011FECE7732934D075291BD0D5
:106FA000782909D122E0D8F80000011DC8F80010A6
:106FB000017802A800F000FB641C9DE7D8F80010DF
:106FC0000F1DC8F800700968CDE900200A2202A848
:106FD00000F024FAF0E733E0D8F800100F1DC8F8ED
:106FE00000700968CDE900200A2208E0D8F80010F6
:106FF0000F1DC8F800700968CDE90020102202A812
:1070000000F070FAD8E7D8F80000011DC8F80010A9
:10701000076817F8011B0029CED002A800F0CCFAAF
:1070200005980028F5DAC7E7D8F80000011DC8F870
:10703000001001680820CDE9000503461022DEE7B4
:10704000059800287FF75BAF049820B1024607A996
:107050003046FFF7E3FEDDE90410084405904EE7F3
:107060000149024804F086BD64320020003000402F
:1070700003F076BEF0B5B5480023021D0178101D5F
:1070800001254FF0805406290BD11678360708D118
:107090000678C6F30316032E06D0042E04D0052E60
:1070A00002D0062907D00EE0B4F82463A84FC6F337
:1070B00004263E6002E01678360704D10678C6F34F
:1070C0000316032E02D0062904D00FE0A24FA14ED2
:1070D0007E670EE01678360708D10678C6F30316E9
:1070E000032E06D0042E04D0052E02D0062907D088
:1070F0000EE0D4F84462994FC6F342363E6002E097
:107100001678360704D10678C6F30316032E02D08C
:10711000062906D011E0924E376827F08077376055
:107120000EE01678360708D10678C6F30316032E4C
:1071300006D0042E04D0052E02D006290AD011E074
:107140004FF08046C6F80C31C6F81031834E361F1A
:10715000336002E01678360704D10678C6F30316CA
:10716000032E02D0062905D00CE07C4F032664379D
:107170003E600AE01678360704D10678C6F3031697
:10718000032E02D006290DD014E0764F05263E606E
:10719000744E78363560734E083633603F263F1D97
:1071A0003E6002E01678360704D10678C6F303166F
:1071B000052E02D0062957D062E06B4E36686B4F21
:1071C0003E60694E361D36683F1D3E60664E08368D
:1071D00036683F1D3E60644E0C3636683F1D3E608B
:1071E000614E103636683F1D3E605F4E143636687D
:1071F0003F1D3E605C4E183636685C4F20373E605F
:10720000594E1C3636683F1D3E60574E2036366854
:107210003F1D3E60544E243636683F1D3E60524E40
:10722000283636683F1D3E604F4E2C3636683F1D6F
:107230003E604D4E303636684C4F40373E604A4EC9
:10724000343636683F1D3E60474E383636683F1D3F
:107250003E60454E3C3636683F1D3E60424E4036ED
:1072600036683F1D3E6002E01678360708D1067882
:10727000C6F30316032E06D0042E04D0052E02D02A
:10728000062907D019E0D4F85812394A01F04F0105
:10729000116002E0117809070FD10078C0F30310E4
:1072A000032803D0042801D0052806D131480168FD
:1072B000C90702D06FF001010160D4F8300106283F
:1072C00008D1D4F83401062804D12B48016841F4D0
:1072D0008061016022487438016841F470010160E6
:1072E000BFF34F8FBFF36F8F4FF01021D1F8000223
:1072F000002803DBD1F80402002822DA1F4A1560B7
:107300001F480468002CFCD01524C1F80042056811
:10731000002DFCD0C1F8044201680029FCD01360A4
:1073200001680029FCD0BFF34F8F0D48F038016889
:10733000144A01F4E06111430160BFF34F8F00BFB5
:10734000FDE7124910480860F0BD0000E00F00F0B2
:10735000403501400DF0ADBA00C007403C0500408B
:10736000FCED00E0105600400404001020C5004071
:10737000E40E0040000400403C17004004E50140DA
:1073800000E401400400FA050090D003F82B00202F
:1073900001480068004700003C2B002010B5124C4B
:1073A00002202061606111A0A06104F17800E06119
:1073B0004FF4007020620020A06260620BA1A16403
:1073C000E06204F51E71E1641021A065C4E91410A7
:1073D000E06509A1E01DFFF773F908A12046FFF75A
:1073E0006FF92020A07110BDDC3800205465726D4B
:1073F000696E616C000000005254540053454747C9
:10740000455200000269C1688A4203D88068401A68
:10741000104400E0501A401E704700002DE9FC5F48
:107420000E008146DDE90C47C6F100009846934600
:10743000824600D40846012503E000BF90FBFBF024
:107440006D1C5845FADAA84500D9454624B1002EEE
:1074500001DB780700D5641EB80702D5B8F1000F2C
:107460000FD0F8070DD164B1A5420AD220214846B9
:10747000641E00F0A1F8D9F80C000028F3DABDE88A
:10748000FC9FD9F80C000028F9DB002E02DA5646E2
:107490002D2102E0780707D52B21484600F08CF813
:1074A000D9F80C000028EADB07F0030002280FD10E
:1074B000B8F1000F0CD15CB1A54209D23021484689
:1074C000641E00F079F8D9F80C000028F3DAD6E74A
:1074D000CDE9004743465A463146484600F002F897
:1074E000CDE700002DE9F84F8246DDE90A4B012681
:1074F000984691460D460846374602E0B0FBF9F043
:107500007F1C4845FAD2B84500D947465FEACB70A0
:1075100017D1B4B15FEA8B7002D5B8F1000F02D079
:10752000202000900BE03020FBE75046641E0099BD
:1075300000F042F8DAF80C00002838DB0CB1A74262
:10754000F3D3DAF80C00002831DB00BFB8F1010FEB
:1075500002D9A8F1010803E0B5FBF6F0484502D3D3
:1075600006FB09F6F2E7DFF84C8000BFB5FBF6F04A
:1075700000FB165518F80010504600F01DF8DAF818
:107580000C00002803DBB6FBF9F6002EEED15FEA13
:10759000CB700CD0002C0AD0A74208D22021504634
:1075A000641E00F009F8DAF80C000028F2DABDE8F1
:1075B000F88F000004C5020010B50446D4E901307C
:1075C000421C934205D323681954A260E068401C12
:1075D000E060D4E90102824209D121682069FFF705
:1075E0001DFCA168884203D04FF0FF30E06010BD61
:1075F0000020A06010BD2DE9F047C46817468946F9
:1076000006464FF000083069A04201D9051B02E090
:10761000B168201A0D1AB0686D1E001BA84200D870
:107620000546BD4200D33D4670682A46204449467F
:10763000FFF789F8B0687F1B2C44A844A944A042F6
:1076400000D10024F460002FDDD14046BDE8F08772
:107650002DE9F04104468846D4E90207C51BE168DC
:10766000606816460844B54206D94146FFF76BF8F4
:10767000B819E060BDE8F0812A464146FFF763F89B
:10768000761B08EB050132466068FFF75CF8E660A0
:10769000F0E700000121202803DA8140054801407D
:1076A00003E0402802DA2038814009B10120704708
:1076B00000207047FC06FFBD704790F824000128A9
:1076C00001D01F207047EE20704710B50122022123
:1076D000002000F0B3FF08B1072810D107220221D3
:1076E000012000F0ABFF08B1072808D100210A22D1
:1076F000084600F0A3FF08B1072800D1002010BD04
:1077000072B603F05DF800BF02F09EFE0028FBD1C8
:1077100011481249401AC408012000EB044010A18E
:1077200002F0ACFF11480068C00700D000BE022084
:1077300000EB04400EA102F0A1FFBFF34F8F0B48F6
:10774000E43801680E4A01F4E06111430160BFF3BF
:107750004F8F00BFFDE70000F4CE02008CCE020088
:10776000466174616C206572726F7200F0ED00E02A
:1077700053797374656D2072657365740000000041
:107780000400FA050EB500210091CDE901106A460A
:1077900044F20100FFF7B4FF0EBD0000014801F004
:1077A00004BB0000502B00203AB10068012942615F
:1077B00000D00021016100207047072070470000C1
:1077C00038B5114808235822416800910F490068D4
:1077D00002F07DF9002815D10D4A69460D4801F0E7
:1077E000E9FA04000ED101210A4801F05AFB0123F5
:1077F000094A1946074801F0B0FA0649012008393C
:107800000870204638BD000034C30200B0320020AA
:10781000BDB40200502B0020FFFF7F0070B504466E
:10782000007F0D4608B1002070BDA26101F02AFC66
:10783000401941F10001C4E90201206900B125614C
:107840002146BDE87040002004F0B6B80146002093
:107850000877012004F0B0B830B5EFF3108172B6AC
:107860000D4A9468012324B10370002900D162B647
:1078700030BD93604FF0E023D3F88051074C254092
:107880001560C3F88041D3F8844154605A17C3F897
:10789000842100220270E8E708330020FC06FFBDC7
:1078A0000B498A68002A11D000280FD1EFF310800D
:1078B00072B60B684FF0E022C2F800314B68C2F894
:1078C000043100228A60002800D162B670470000AF
:1078D0000833002070B51500044609D00020286048
:1078E00034B1206820B1A079800703D0072070BD93
:1078F0000E2070BD084600F003FBC0B2142804D06F
:107900002179814203D8042070BD052070BDE28832
:10791000216800FB02102860002070BD2DE9FC47A3
:10792000002517880646158090F82D0014468946D4
:1079300030B13A462146484600F0F6FA051E09D114
:10794000B0784FF00C0A18B32088C846001DB84222
:1079500002D95046BDE8FC87684679DF0028F9D196
:107960002088032108F8001020881921401C80B2CB
:10797000208008F800102088401C80B2208000EB96
:107980000801BDF8000004F041FB21880844208074
:10799000F0780222C8B1218896F9033001F1030C76
:1079A0004846BC45D5D8425421884FF0010C491CAB
:1079B00089B2218000F801C02188491C89B2218048
:1079C00009F801302088401C20807068B8B12188F7
:1079D00090F9003001F1030C4846BC45B9D8425437
:1079E00021880A22491C89B2218042542188491CDD
:1079F00089B2218009F801302088401C208030891C
:107A000050B1CDE900474B460622022106F108009D
:107A100004F0AEFB051E9DD1308A50B1CDE9004780
:107A20004B460722032106F1100004F0A1FB051EBE
:107A300090D1308B50B1CDE900474B46152214212F
:107A400006F1180004F094FB051E83D1306A30B1B2
:107A50003B462246494601F09AF8051EDBD1706A82
:107A600030B13B462246494601F004FE051ED2D104
:107A700096F82C0038B13B4622464946304603F082
:107A80003DFE051EC7D1307838B13B4622464946F7
:107A9000304601F0C9FF051EBDD128465AE718B58A
:107AA00004460020ADF8000013466A46204600F068
:107AB00006F8002802D0BDF80000204418BD70B5BB
:107AC000C8B1C2B10024158803E0065D641C3444CB
:107AD000A4B2A54203D8061976789E4201D08C4202
:107AE000F3D38C4207D2005DA31C401E9BB280B230
:107AF0001C188C4201D9002070BD138070BD80F825
:107B0000301070472DE9F0410D00044606D02CB12D
:107B100095F87A000026012803D006E00E20BDE883
:107B2000F08195F89800012829D0D5F8A000042804
:107B300025D0D5F89C00042821D04FF00108A6706C
:107B40002C2205F17801201DFEF742FE84F83060FA
:107B5000D5F8A4006063D5F8A800A0634FF6FF70C5
:107B6000A4F8240404F58260C4F82004C4F8266450
:107B7000A4F82A6484F82C64207810B104E007206B
:107B8000CDE7FF2084F8540004F155072046C4F8DF
:107B90001074FFF792FDA4F8140404F2144239465D
:107BA0002846FFF7BBFE0028B9D104F23120C4F803
:107BB00018042046FFF781FDA4F81C0404F21C42BF
:107BC00005F13C00D4F81814FFF7A8FE0028A6D150
:107BD00084F85180208BA4F8480084F83C80266407
:107BE00084F85060606900216064454604F13C02FD
:107BF000781E72DF002892D1257090E710B50288B8
:107C0000102A1BD0112A20D0262A1DD1007A0C461A
:107C1000012801D0022817D1A0780521401CB0FB13
:107C2000F1F201FB1201204600F01DF800280BD0F4
:107C3000A16B002908D0BDE810400847C27B012A8B
:107C400002D18088A1F8240410BD0C46002184F8DC
:107C50002E148088B4F824148842F5D120790028A5
:107C6000F2D10121DFE72DE9F05F044600780F46ED
:107C700098B1A7700025C4F82654A4F82A5484F8B3
:107C80002C54A079012608B1012F09D0E07980B1E8
:107C9000012F05D0022F03D00BE00820BDE8F09F94
:107CA000616B21B184F82D640820884701E084F8D5
:107CB0002D5404F2274100200A5C0AB1304603E04B
:107CC000401C0628F8D300204FF002084FF0030BA9
:107CD000012F06D0022F0CD0032F0FD0042F15D167
:107CE00010E0A17929B194F8241011B908B13046F7
:107CF0000DE0E17911B108B1404608E0207A08B101
:107D0000584604E0607A08B1042000E02846A070DC
:107D1000616B41B1032801D0042804D1607910B10E
:107D200094F82E0498B184F82F5404F13C001821E3
:107D30000746FEF77FFD84F83C6004F12C0003F059
:107D40003DFB58B194F82C0084F8510008E084F809
:107D5000305484F82F6407208847E6E784F85160A0
:107D600094F8240058B104F1280003F027FB20B157
:107D700094F8280084F8520001E084F8526084F8F6
:107D80005050A27804F2264104F582694FF0060AA9
:107D9000052A64D2DFE802F07C030F22420084F857
:107DA0003160C4F82054C4E9101584F83C80802068
:107DB000A4F8480055E084F8318094F8242038462F
:107DC00012B10722027001E080F800B0228A82819D
:107DD000C4F820544160E168B96042E06069B8606D
:107DE000208BB88194F824003D460028204602D01C
:107DF00084F83CA001E084F83C6004F09BF950B1A9
:107E000085F814800421204601F0E2F838BB0521F2
:107E100084F8311021E084F831B01EE0E069B860E8
:107E2000208CB88194F824003D460028204602D0DA
:107E300084F83CA001E084F83C6004F07BF948B190
:107E400085F814800421204601F0C2F838B984F87E
:107E500031A002E0042084F83100C4F82094A07816
:107E600078B13A4604F15400D4F8201472DF0028A7
:107E70007FF414AF94F8301094F8540073DF0028A6
:107E8000F6D1616B11B194F831008847002005E705
:107E900084F83150F5E7000070B5040012D00146B7
:107EA0001C221448FEF794FC1248134D056020680C
:107EB00050B17ADF002806D1206801682960406847
:107EC000686005E00E2070BD0B487BDF0028FAD10A
:107ED00008484FF6FF711438084A20F8041B05497A
:107EE000343901600021FFF75FFC0028EBD003204C
:107EF00070BD00005C3100202C2B0020CDC00200A2
:107F000010B5044600F006F808B1204610BD142054
:107F100010BD0000142801D300207047014601481D
:107F200001F01FBE7C3100207CB5054608880C4658
:107F30000930904201D90C207CBD68466DDF0028D5
:107F4000FAD121880820685420881B21401C80B267
:107F5000208029542088401C80B220802844DDF8ED
:107F600001100160BDF8051081802088801D80B25D
:107F700020809DF80010490800D001212954208854
:107F8000401C208000207CBDF8B52B4D01880446A4
:107F90006E8821293BD015DC2848294A1029A0EBFE
:107FA00002004FEAD0004FF0030202EB004013D072
:107FB000112925D0132929D100231A4685213046BD
:107FC0007FDF17E03B2932D052292AD056291DD114
:107FD0008088132176DF0DE01AA102F04FFB072005
:107FE00000F04EFB08B1FFF7CDFBA188698018486F
:107FF00001F01EFF002809D0BDE8F840FFF7C2BB22
:1080000014A102F03BFB4FF6FF706880F8BD002022
:108010000090A08869468FDF0028F7D0FFF7B2FBF9
:10802000F8BD00231A4619463046B1DFE2E78088E2
:10803000132176DFDEE70000D82A0020F4CE02000C
:108040008CCE0200436F6E6E656374656400000041
:10805000742C0020446973636F6E6E65637465648D
:108060000000000010B51A4C0188606810290ED07D
:1080700011292BD1401E606028D1FFF726FB002874
:1080800024D02168002921D0BDE810400847D0B98C
:1080900000210122084600F0D1FA08B107280FD1CB
:1080A00007220221012000F0C9FA08B1072807D1F0
:1080B00004220221002000F0C1FA20B1072802D0DA
:1080C000216801B188476068401C606010BD0000F5
:1080D000242B00202DE9F04701883B4E40F2F31994
:1080E0004FF6FF7510291BD011293ED0122954D00C
:1080F000502946D1C188F289841D914241D16189BC
:1081000002293ED18688304601F014F8050038D0A7
:1081100004F10C0000F0DAF9A8B3294630464EE02D
:10812000C17B8788044601292BD1A846284601F047
:1081300001F8050017D02F800020287223484346FD
:108140004A460168C5F80A104068C5F80E0004F1F7
:10815000100105F10A0001F064F86872F089002846
:108160000FD129462AE0042013E0808800F0E2FFC6
:10817000040006D06068FFF769FB08B103F08EFACF
:108180002580BDE8F087FFE76868FFF75FFB002800
:10819000F7D0BDE8F04703F081BA87880646384635
:1081A00000F0C8FF0400ECD02B464A4606F1080157
:1081B00004F10A0001F035F8607221463846BDE846
:1081C000F04700F02BBD00005C3100202C2B00207C
:1081D0002DE9F04F044686880188424897B08346CF
:1081E00010290CD0112950D0103019296AD01A2921
:1081F00074D1217A0C09042C4DD301224CE0394D65
:10820000083DA868C0430B9069680BA801F0CAFC40
:108210000B990CA800F09CFC2C220CA96846FEF7D8
:10822000D7FA0027E946A84610E000BF09EB47004F
:108230005FF00005B0F804A008EB85005146001D72
:1082400001F084FC6D1C1E2DF6D37F1C0098B842F3
:10825000ECD8142E05D317B00420BDE8F04FFFF77B
:1082600091BA3146584601F087FC314608F10400C6
:1082700001F082FCE07B012830D017B03146BDE828
:10828000F04F1848001D01F077BC17B03146BDE82B
:10829000F04F01F05BBC0022314600F094FE032C4D
:1082A00001D3012200E000220E4831460C3000F0DC
:1082B0008AFE022C01D3012200E000220948314647
:1082C000083006E0217A002908D1617AC1F3C002A2
:1082D000314617B0BDE8F04F00F075BE17B0BDE8ED
:1082E000F08F000080310020F0B585B016460F46B3
:1082F00004001D4614D004AA19466069FFF7EAFA83
:1083000000280BD1A5F57F40FF380BD0049848B169
:10831000007848B13088F42808D9072005B0F0BDAE
:108320000E20FBE70520F9E70820F7E70020009082
:10833000019002900390A088ADF8000001208DF814
:108340000200CDE9026769462846AEDFE6E7000095
:1083500070B5334D04008EB02DCD08AE86E82D00EB
:108360005BD0E9B30868A061214608A862DF002855
:1083700051D1207801258DF83200ADF83050A21C83
:108380000CA92846A8DF002845D120216846FEF721
:1083900051FA0220ADF8000020788DF802008DF827
:1083A0000C509DF80D00F426ADF8046040F00C0070
:1083B0008DF81150ADF806508DF80D008DF8125063
:1083C000608804F10C02694600F0C0FA002822D14E
:1083D00020216846FEF72EFA0320ADF8000000E0E9
:1083E0001BE020788DF802008DF80C509DF80D00F0
:1083F0008DF81150ADF8046040F010008DF8125067
:10840000ADF806508DF80D008DF813506088221DD0
:10841000694600F09BFA0EB070BD0E20FBE700002D
:1084200008C3020070B588B00446002924D0002C8F
:1084300022D008462188102920D0502924D057293D
:108440001AD10546A188406906AAFFF743FA002819
:1084500012D1069E307800280ED018216846FEF70B
:10846000E9F901208DF800000195A088ADF8080019
:108470000396A9696846884708B070BD08B02146D0
:10848000BDE8704002F078BE08B02146BDE87040FB
:1084900002F052BF13B50C4901AA4B8801460A48A5
:1084A0001430FFF721FF00280DD008280BD0132827
:1084B00009D0052807D0112805D043F20141884290
:1084C00001D0FFF75FF91CBDD82A0020007800F02A
:1084D000010070470149085C70470000C0C20200FB
:1084E00007490B5C4FF0A041D1F8042501209840CA
:1084F00020EA0203C1F808351040C1F80C057047A6
:10850000BCC202000249085C012101F0A4BE0000C7
:10851000BCC202000249085C002101F09CBE0000C0
:10852000BCC202000649095C4FF0A040D0F8040527
:10853000C84010F0010000D0012080F00100704719
:10854000BCC2020010B500242046FFF7DBFF641C0C
:10855000042CF9D310BD10B500242046FFF7DAFF34
:10856000641C042CF9D310BD10B50246064B4FF025
:10857000FF3000215C5C944201D1084610BD491CCB
:108580000429F7D310BD0000C0C2020010B50020BE
:1085900000F066F908B1062806D1012000F060F964
:1085A00008B1062800D1002010BD00002DE9F047D9
:1085B0000D468146FFF7D8FF0446042836D2DFF87F
:1085C00074801B481C4EA8F10C0725B3012D0ED05A
:1085D000022D2BD104EB440030444578002D25D0EA
:1085E000B968002922D02846BDE8F047084704EBC7
:1085F0004401755C0E44717849B10E4A4FF48041D4
:10860000093A8068FFF70AF908B987F80390B1784A
:1086100008F80410E2E78068FFF718F904EB44015A
:10862000314418F804008D78A842D7D0BDE8F0870F
:10863000C4C20200202B0020F830002070B50023B7
:10864000042810D20D4D00EB4004012A02D101296B
:108650000CD00022094E00EB4000304461B10129EA
:1086600006D0022906D00723184670BD0E30C2B2CC
:108670002A55F9E74270F7E78270F5E7F8300020F5
:10868000044A014600201279D20702D0084600F0C1
:1086900003B87047142B00202DE9F05F6E4C05469F
:1086A00000266078B34618B184F801B000F0DCFD14
:1086B0006A4F4FF47A694FF4C87A4FF00108182DC9
:1086C00069D2DFE805F00C1313384754696E727BEA
:1086D000727BC58484848484B3B6B9BCC5C500F0FC
:1086E000C3FD3868FFF7B2F806465CE00020FFF7EC
:1086F00019FF00284FF0000008D0FFF703FF022DFC
:1087000002D14FF4E16008E0484606E0FFF702FFBF
:10871000022D01D1C82000E05046410CC0034FF4A7
:108720007A72801841F10001257052000023FDF794
:10873000C3FE01462AE00020FFF7F4FE00284FF0B8
:10874000000004D0FFF7DEFE4FF44870E5E7FFF7C6
:10875000E1FEDFE70020FFF7E5FE00284FF0000014
:1087600002D0FFF7CFFECFE7FFF7D4FED4E700201B
:10877000FFF7D8FE00284FF0000002D0FFF7C2FE3E
:1087800001E0FFF7C7FE257040F6CD4100223868B2
:10879000FFF744F8064646E00020FFF7A1FE2570EB
:1087A00008E0002051E025703DE084F801800120C0
:1087B000FFF796FE002240F26661E8E784F8018048
:1087C0000120FFF78DFE00224FF40051DFE77868AB
:1087D000FFF73CF80646D5F1110000D02EB102207B
:1087E000FFF790FE84F802B01DE0012816D980B290
:1087F000C8214843C117C90341EA5041C0034FF49F
:108800007A72801841F1000152000023FDF754FEF6
:10881000014600227868FFF701F806460220FFF7BC
:1088200079FE84F802803046BDE8F09F00F01CFD20
:10883000B9E700F019FDB4E700F016FD04E000F020
:1088400013FD0020FFF766FE0120FFF763FEAAE795
:10885000FFF781FEA7E70000142B0020C4C202002E
:10886000012103F0ECBC00002DE9F8430546861C0D
:1088700000208DF8000090460F464FF00109684631
:10888000FEF7EAFF1B4C20683860D4E90001401A6B
:10889000A16804F21C47081A0EE00121384601F0D5
:1088A0007BF900F005FD0146384601F075F9D4E981
:1088B0000001401AA168081A401C8642EDD8B8F1A0
:1088C000000F03D0052065F3891002E0062065F350
:1088D0009F50A2682168114004EB8101C8602068A4
:1088E000304420609DF80000FEF7DAFF4846BDE8FE
:1088F000F8830000B834002070B50D4604460A29FC
:1089000002D10D21FFF7F8FFA0682268411CA16089
:108910001554D4E90101814204D32046BDE87040DA
:1089200001F076BB70BD0000034803C8814201D14D
:108930000120704700207047B834002002490844E5
:1089400090F9300070470000083200202DE9F04314
:108950008146887891B090460C4600B901208DF888
:108960003E002088ADF83C0000250095607C6946FB
:1089700002F008FF6E46A07C711C02F003FFE07B52
:1089800000289DF8020002D040F0080001E020F02D
:1089900008008DF80200217C11B140F0100001E0C8
:1089A00020F010008DF80200217B11B140F0010091
:1089B00001E020F001008DF80200217D09B10221C3
:1089C00000E0012161F342008DF802001C2102A8A1
:1089D000FDF730FF607BC10601D4800617D50E95E8
:1089E0000EAFE07C791C02F0CDFE9DF838000797B1
:1089F00020F00F00401C20F0F00010308DF83800FF
:108A00009DF83A0020F00600801C8DF83A00607B4B
:108A10008DF80800A07B8DF80900142109A8FDF746
:108A200009FF0FA8CDE90906A088ADF83000A068BD
:108A300020B1E088ADF82C00A0680D90A06998B333
:108A400001950088ADF81000A06901AD01A940882A
:108A5000ADF81200A069406806950390A069007BFC
:108A600002F090FEA069691C407B02F08BFEA069B9
:108A7000807A00289DF8060002D040F0080001E04E
:108A800020F008008DF80600A169C97A11B140F004
:108A9000100001E020F010008DF80600A169097AAD
:108AA00019B140F0010002E00DE020F001008DF866
:108AB0000600A169897B09B1022100E0012161F36F
:108AC00042008DF80600E06900B10590434609AA0E
:108AD00002A94846AADF11B0BDE8F0837F2801DD76
:108AE0007F2070476FF07E01884201DA08467047A8
:108AF00040B2704770B5084C050009D010342168A9
:108B0000002907D008682060496828468847F6E7AA
:108B10000834F4E770BD0000F4310020054A01215B
:108B200020B1012805D19170FFF7E4BF51700020FA
:108B3000FAE77047F431002010B5D0E90234D1E9EA
:108B40000220D11AA04101D3012010BD002010BD88
:108B500073B58CB00646002000900D9880B10024BB
:108B60006D4621460DA800F0FCFF30B1009805EBE2
:108B7000400084800098401C0090641C142CF0D3AA
:108B80002C2269463046FDF723FE0EB070BD2DE95C
:108B9000F04117880646B81D14460D46984202D982
:108BA0000C20BDE8F0813188072206290AD34FF452
:108BB000486C4FF6FF73614501D9994202D1708824
:108BC000062801D21046ECE7604501D99842F9D158
:108BD000994203D0984201D08142F3D80520E8554C
:108BE00020881221401C80B2208029542088401CFB
:108BF00080B220804119308803F008FA21880844A7
:108C000080B220804119708803F000FA218808445E
:108C100020800020C5E7FEF7B5BD000038B54A7AD0
:108C20000F4B62B100220A725969002906D0012255
:108C30008DF80020ADF802006846884738BD0A7AF2
:108C400062B19B684C68024619462046FEF7E6FD75
:108C50000028F3D0BDE8384002F020BD5B68F1E7A2
:108C60005C31002070B588B0064600200590069063
:108C7000ADF81410ADF816100190029001AA05A9E4
:108C8000304690DF050021D002F00EF9034611486E
:108C900011493246401AC108012000EB0140044648
:108CA0000E4901F0F6FCBDF8042012B9BDF806002B
:108CB00028B1BDF80630204609A101F0EAFCBDF854
:108CC00008201AB12046164901F0DCFC08B02846FD
:108CD00070BD00008CCE02008CCE0200D8C5020010
:108CE00054686520726571756573746564205458A5
:108CF0002F5258207061636B6574206C656E6774C9
:108D00006820697320746F6F206C6F6E67206279C2
:108D10002025752F2575206F63746574732E0000F0
:108D200024C6020010B50021024800F046FF80F37F
:108D3000100010BDD43800204FF480328A40016802
:108D4000C1F848230068C0F8082370474FF4A072A8
:108D500002EB810189B200F02CB92DE9F041054602
:108D60000E464FF4A07000EB860081B228684FF4E5
:108D70008034B440984622F07F47C0F80843286802
:108D8000C0F84843286801F041FE286800EB8600DF
:108D9000C0F840752868C0F84443B8F1000F02D00D
:108DA0002868C0F80443BDE8F0810068D0F80405E5
:108DB0007047000070B54379224C44F82320427973
:108DC000241D04EBC202204B1579204A9A1AD308BD
:108DD0002DB10824022000EB03401DA12EE0026803
:108DE0000D88C2F8085590F904208978002A4FEAC6
:108DF000411106DA02F00F0202F1E02282F8141D9E
:108E000003E002F1E02282F8001490F9041001223C
:108E100001F01F0502FA05F54909890001F1E02179
:108E2000C1F80051417904EBC1010A71417944F85C
:108E300031000320002400EB03400EA101F01EFCD2
:108E4000204670BD6C2B0020DCCE02008CCE0200D0
:108E500052544320696E7374616E636520616C7255
:108E60006561647920696E697469616C697A6564A9
:108E70002E0000005254433A20696E697469616C97
:108E8000697A65642E00000090F90400012100F069
:108E90001F0291404009800000F1E020C0F800125C
:108EA00070470A46022100F07BB84FF4827100F04F
:108EB00080B80068012101607047006801214160AD
:108EC00070472DE9F05F07460C464FF4A07000EBA9
:108ED00084001FFA80FA38684FF48036A6409B461B
:108EE00022F07F45C0F848633868C0F808633868E6
:108EF000D0F8048500EB8402D2F84095C2F8408592
:108F00005146386801F082FDA9EB080020F07F404F
:108F1000012806D1102002F011F85146386801F0FE
:108F200075FD3868D0F80485C0F84463A5EB0801E6
:108F300021F07F413868012900EB840010D0C0F88F
:108F400040553868D0F804156FF07F4C6A1A521EED
:108F500022F07F42ACEB0B03934217D362B118E0CF
:108F60006D1CC0F84055102001F0E8FF3868D0F8BB
:108F7000040540450AD10CE000EB84006D1CC0F8EC
:108F800040553868D0F80405884202D00D20BDE86D
:108F9000F09F01223146384600F002F80020F6E743
:108FA0000368C3F84413002A02D00068C0F8041311
:108FB000704710B5006842581AB101F027FD012032
:108FC00010BD002010BD0AB100F0D6BD00F0BEBD3E
:108FD00070B50D460446B0F81414D0F81004012200
:108FE000FEF75DFD00B1057004F13C0204F58261FD
:108FF00004F1540072DF70BD0C484A8843889A42DD
:1090000013D10A88A2F52063773B0ED18988C91E47
:109010008AB28280064807491346401AC0080321D5
:1090200001EB004004A101F034BB7047D82A0020B6
:10903000F4CE02008CCE020044617461206C656E37
:109040002069732073657420746F20307825582848
:109050002564290010B50949094800F02FFE08B120
:10906000FEF790FBF721064800F01CFE002803D015
:10907000BDE81040FEF786BB10BD0000F98F02006E
:10908000602C002010B50B48FFF78FFE094A083A04
:10909000D2E90434C018D2E9063244F10001C31AFF
:1090A00071EB020204D24FF08072801841F100018E
:1090B00010BD0000502B002070B5044600780E4D06
:1090C00040B1012817D128682246A421BDE870408C
:1090D000FEF7A4BB02F0A6FD40F2FB2307A20BA102
:1090E0000020FDF7E7FE20782246401C20704FF458
:1090F000A4716868EAE770BDB0C202002E2E5C2E33
:109100002E5C2E2E5C6D61696E2E63001B5B313B05
:1091100033376D3C44656275673E5B25737C25641F
:109120005D206D7075207475726E206F6E210D0A52
:10913000000000000146034802888A4200D0002057
:1091400070470000483100202DE9FC5F0E00834687
:10915000DDE90C47C6F1000098469246814600D4EE
:109160000846012503E000BF90FBFAF06D1C504556
:10917000FADAA84500D9454624B1002E01DB78076C
:1091800000D5641EB80702D5B8F1000F0AD0F80761
:1091900008D13CB1A54205D220215846641EFFF7F4
:1091A000ABFBF6E7002E02DA4E462D2102E07807EF
:1091B00003D52B215846FFF79FFB07F00300022839
:1091C0000BD1B8F1000F08D13CB1A54205D2302136
:1091D0005846641EFFF790FBF6E7CDE9004743468B
:1091E00052463146584602F017FFBDE8FC9F024642
:1091F00000201268530713D502F00300012802D0A3
:1092000002280CD105E0C2F383100B68801C1844BF
:1092100004E00223086803EB925210440860012026
:109220007047F0B58488A518944200D82246A41A45
:10923000C288D6189A4200D81346D21A4B8807889B
:10924000BB420CD34088834209D88888A04206D309
:10925000A84204D8C888904201D3B04201D9002066
:10926000F0BD0120F0BD00000A4810B5807860B163
:10927000002401E0022C06D02046FFF743F9641CCD
:10928000042CF7D310BD0324F6E7BDE81040FFF728
:1092900059B90000142B0020F721018017214180CB
:1092A000002101714171FB2181711B21C171704746
:1092B0002DE9FF410026234800F06BFC2148001FE8
:1092C000074600F066FC204C60680090A56800E04E
:1092D00000986946284004EB80000C30FFF787FFB8
:1092E0000028F5D101AA009901EA050304EB8303E4
:1092F000491CDB6842F82030401C00910228F2D360
:10930000019800F0030001280BD0022810D1019829
:10931000032101EB90500099BDF80A6001EB900029
:1093200005E00198BDF80A60C0F38310084400907E
:10933000384600F02BFC08B10098606004B030465D
:10934000BDE8F081D0380020B8340020F1EE100ADA
:109350008749012520F09F00E1EE100AACB0F1EE44
:10936000100A4020C1F880020102002001F0F2F949
:1093700008B1FEF707FA01F059F801F001FB08B156
:10938000FEF700FA7B48056001F0B0FC08B1FEF77B
:10939000F9F9002469460120009401F047FB08B167
:1093A000FEF7F0F9684601F0D9FB08B1FEF7EAF9DB
:1093B0009DF8080070A120F00F00401C20F0F00084
:1093C00010308DF808000E2202A87CDF08B1FEF7ED
:1093D000D9F900941020ADF800003C200194ADF8BC
:1093E0000200ADF804404FF4C870ADF806006846BE
:1093F0007ADF08B1FEF7C6F9FFF72CFE624801904C
:1094000001A9624800F01FFD08B1FEF7BBF96048F2
:10941000009069465F48FEF79BFF08B1FEF7B2F97E
:109420006FF013068DF8AC60AC216846FDF702FAC8
:1094300002208DF800008DF8024005208DF8030011
:109440002BA801905348ADF84C500E3814904FF4AF
:109450004870229044F2506023908DF87C504E4822
:1094600029904A4869460C30FEF74CFB08B1FEF7DC
:1094700089F9464801210C30FEF741FB1C21684662
:10948000FDF7D8F94FF4A030CDE900404FF4F020BB
:10949000029003208DF80C0040480590404806904B
:1094A000ADF80E408DF810406846FEF7F5FC08B1A7
:1094B000FEF768F9354832460C3090F85410012018
:1094C00077DF08B1FEF75EF9FEF77AF908B1FEF72B
:1094D00059F9344A01213448FEF766F93248334AD3
:1094E0000021001DFEF760F92F48314A01210830A4
:1094F000FEF75AF9254803210C30FEF7B4FB08B1FA
:10950000FEF740F94FF44F732AA22EA10020FDF779
:10951000D1FC354800F072FA012000F069FA02F03F
:1095200081FB00F03FF900281DD04FF4527321A2B7
:109530002EA10020FDF7BEFC1B480022A4210068DC
:10954000FEF76CF908B1FEF71DF940F24B3319A292
:1095500032A10020FDF7AEFC00F076FF0028FBD121
:1095600001F022FAF8E74FF4517312A236A1F0E7A6
:1095700004E000E0780500404C696D625F41737360
:10958000697374616E740000EDA90200742C0020F0
:1095900021B10200EC2A002051B102005DB10200AD
:1095A000178C0200E5B80200B0C20200B9900200B8
:1095B000B97602002E2E5C2E2E5C2E2E5C6D61691B
:1095C0006E2E63001B5B313B33376D3C4465627527
:1095D000673E5B25737C25645D204144562073748F
:1095E0006172740D0A000000899702001B5B313B19
:1095F00033376D3C44656275673E5B25737C25643B
:109600005D206D70753630353020696E6974207359
:109610007563636573730D0A000000001B5B313BCB
:1096200033376D3C44656275673E5B25737C25640A
:109630005D207461736B2074696D65722073746151
:10964000727465640D0A00001B5B313B33316D3C65
:109650004572726F723E5B25737C25645D206D7070
:10966000753630353020696E6974206661696C65C5
:10967000640D0A0070B5144682880E46054620889F
:10968000111D0144921C994201D8FE2A01D90C20D7
:1096900070BD521C32542088FF21401C80B22080B3
:1096A00031542088401C80B220808119288802F023
:1096B000ADFC2188084480B22080AA8842B1A96804
:1096C00041B13044FDF73FF82088A9880844208044
:1096D000002070BD072070BD2DE9F047C5881E1D14
:1096E000B6FBF5F78946B6FBF5F1044605FB176CAA
:1096F000407916686843DDF820A0F718001F8742FC
:1097000000D9C61A166001E02468491E0029FBD161
:10971000A5EB0C078846B74216D818E004EB0C00FE
:10972000001D09EB0803BAF1000F3A4602D00146CA
:10973000184600E01946FDF706F82468F61B4FF0BE
:10974000000CB844B54201D9374600E02F46002E40
:10975000E4D1BDE8F087000030B5024651B101F018
:1097600017F80021074C08E034F821301568AB42A7
:1097700002D11160002030BD491C8142F4D3052084
:1097800030BD00000000000008B5A1228DF80020C7
:109790008DF801008DF8021003216846FEF77AFE6D
:1097A00008BD000010B500F02FF928B300216B2090
:1097B00000F0D2F800281ED00721192000F0CCF8C4
:1097C000002818D006211A2000F0C6F8002812D070
:1097D0000021382000F0C0F800280CD018211B20F0
:1097E00000F0BAF8002806D000211C2000F0B4F8E0
:1097F000002800D0012010BDC72303A209A100202A
:10980000FDF758FB002010BD2E2E5C2E2E5C2E2E58
:109810005C4D5055363035305C6D707536303530B6
:109820002E6300001B5B313B33376D3C4465627532
:10983000673E5B25737C25645D206D707536303521
:109840003020696420766572696679206661696C8A
:1098500065640D0A00000000F7B51A4F82B00026BB
:1098600014460D463E7001200346009002AA68216E
:10987000154800F0B9FB58B902F066FB58B13E70CC
:1098800011486821001D2A46234601F005FC48B115
:10989000002005B0F0BD9DF80800A3230BA212A183
:1098A00000900AE002F050FB08B10120F1E79DF8BA
:1098B0000800B02305A21BA100900020FDF7FAFAD2
:1098C000E6E70000F02B0020B8C502002E2E5C2E2B
:1098D0002E5C2E2E5C4D5055363035305C6D7075DB
:1098E000363035302E6300001B5B313B33316D3C2D
:1098F0004572726F723E5B25737C25645D207477C0
:10990000692074782074696D656F7574287265615B
:1099100064292C207265673D3078253032580D0A55
:10992000000000001B5B313B33316D3C4572726FB0
:10993000723E5B25737C25645D20747769207278A4
:109940002074696D656F75742C207265673D307881
:10995000253032580D0A00001CB504468DF804006D
:109960008DF805100C49002008700090022301AA10
:1099700068210A4800F038FB08B100201CBD02F045
:10998000E3FA08B101201CBD8F2305A20BA1002022
:109990000094FDF78FFAF0E7F02B0020B8C5020025
:1099A0002E2E5C2E2E5C2E2E5C4D505536303530D2
:1099B0005C6D7075363035302E6300001B5B313BBB
:1099C00033316D3C4572726F723E5B25737C25644A
:1099D0005D207477692074782074696D656F757483
:1099E0002C207265673D3078253032580D0A000012
:1099F0000149487070470000F02B00200149486081
:109A000070470000F02B002008B501226946752040
:109A1000FFF722FF002804D09DF80000682801D03D
:109A2000002008BD012008BDF8B50F460178144696
:109A30000546012901D1687830B12088821C9A42FC
:109A400032D8012902D006E00720F8BD6978014428
:109A5000891C994228D8181A801E86B2ADF8006079
:109A60002188B81C084469467DDF0028EDD129789B
:109A7000022904D06878BDF80020904205D3BDF8D3
:109A80000000B04201D809200AE00820012905D1D0
:109A90006978B14202D8ADF8001001E0ADF800607D
:109AA000BDF80010FE2901D90C20F8BD2288491C00
:109AB000B9542188491C89B2218078542088401CDF
:109AC0002080BDF80010084420800020F8BD10B5AB
:109AD00031B1B2FBF3F403FB14241CB1092010BD17
:109AE0000E2010BD01600021416081608281C38130
:109AF000084610BD70B50C460546FCF7DFFB002894
:109B000002D021882868084470BD10B50A884988A9
:109B10008A4203D1FCF714FC012010BD002010BDC7
:109B200070B50C460546FCF7EEFB002802D06188B4
:109B30002868084470BD10B50A8849888A4203D154
:109B4000FCF7D8FB012010BD002010BD01F01F0361
:109B500001229A40D243490900EB8100114600F0EE
:109B600021B84A0950F8220001F01F02012191405A
:109B7000084000D00120704701F01F0301229A40E5
:109B8000490900EB8100114600F01CB8002100F0EB
:109B90000FB8012100F016B808B56A46FCF725FC9D
:109BA000009808BD08B56A46FCF705FC009808BD9A
:109BB00008B56A46FCF7FFFB08BD08B56A46FCF726
:109BC000E1FB08BD08B56A46FCF7E8FB009808BD54
:109BD00008B56A46FCF716FC009808BD38B504467F
:109BE00000258DF800506846FDF736FE2168626852
:109BF000086890420ED9401E08600178238AE26806
:109C000001FB0325227A2168101AC0B20A79824228
:109C100000D208719DF80000FDF742FE284638BDCD
:109C200038B5054600208DF800000C466846FDF763
:109C300013FEE868298A201AB0FBF1F12A6810683F
:109C4000431C136001709DF80000FDF729FE38BD2C
:109C500010B530B1017A42680368891AC9B21A6036
:109C600006E00E2010BD03681A68541C1C601170B9
:109C7000491EC9B2F7D2006800210171084610BD23
:109C8000C20800F007030120895C98400840704733
:109C900010B5C20800F00703885C01249C402043F3
:109CA000885410BD28B1A1F11702E12A03D307207F
:109CB00070470E20704701800020704710B560B1DA
:109CC0000161F72120F8021B20F8021BFB2100F89C
:109CD000021BFFF7E1FA002010BD0E2010BD0000AE
:109CE000F0B5858893B00C46002D39D10188002647
:109CF0003F4F24293BD006DC102909D011290CD074
:109D0000232958D14FE03A290BD0552953D129E0C6
:109D10000146204601F066FA4DE0A01DFFF7BCFAAF
:109D200049E02246408934F8061F814200D808469F
:109D30006080172800D217206080106970B16079A8
:109D400060B1D7E90001CDE90301ADF80E5060889C
:109D5000ADF81000136903A9104698476671267183
:109D600013B0F0BD0146204601F090FA23E0011D3A
:109D70002C2206A8FCF72CFDBDF81800BDF81C200D
:109D800004EBC0014A732269AAB1D7E90423CDE9E3
:109D90000423ADF81200487B8DF814002269204698
:109DA00004A9904707E0017A207B884200D201464F
:109DB0002846FEF757FFA07A0028D1D0E188284630
:109DC000A5DF012580B11128CAD001F06DF8024647
:109DD0000848094913B0401AC00805EB0040BDE827
:109DE000F04006A100F04EBCA672E572B8E7000094
:109DF000F0C202008CCE02008CCE020073645F625F
:109E00006C655F67617474635F65786368616E67D2
:109E1000655F6D74755F726571756573742829204F
:109E200072657475726E65642025732E00000000E3
:109E300020B10278DE2A03D0082070470E20704738
:109E400041800020704760B159B10278DE2A0AD003
:109E500009684160DE2101704FF6FF7141800020EA
:109E600070470E207047082070477FB505460029CF
:109E70004DD0002D4BD008780C46DE2847D1A8885D
:109E80006188884202D1204602F060F928880128C2
:109E900025D002283BD011283AD0512837D135F8A7
:109EA000040F6188884232D1A978A81C02292ED1DA
:109EB000017A042903D0062901D0052927D10021E0
:109EC000009102228DF8002001914FF4C07202919E
:109ED0000391ADF80420007A05280FD010E0297A0C
:109EE0002046012913D1A988428891420FD101212E
:109EF000017204B0BDE8704002F028B9ADF804105A
:109F000028886946B0DF002801D0616888477FBD96
:109F1000A88861888842FAD14FF6FF7060807FBDC3
:109F200000F180400068002800D00120704708B58B
:109F300000F18040002101600068009008BD000031
:109F400070B50B4C207808B185250FE00020A0608B
:109F500060602061E060074800F0D2FF054600F035
:109F600011FF08B900F0B6FF01202070284670BD2F
:109F7000F43100201D8B020038B500258DF800500B
:109F80006846FDF769FC074CE068401EE060E06849
:109F900010B900F0C5FFA5709DF80000FDF780FC2A
:109FA00038BD0000F43100202DE9F0410646047868
:109FB0000B4815460F4640F82420083040F824305E
:109FC000487B10B1084601F013FD0DB1054A00E0D1
:109FD000002223463946301DBDE8F04100F0ECBFB9
:109FE000802B00209DBA020038B5001D049C00940F
:109FF00001F06AF838BD0FB408B50399002904D000
:10A0000004AA00926A4600F00FF801B05DF814FB54
:10A0100010B582680446002A05D0D4E904032168FB
:10A0200098470020A06010BD2DE9FC4791460C0028
:10A03000804676D014F8011B39B125290ED0404650
:10A04000FEF75AFC20780028F4D198F80C0000287C
:10A0500067D04046BDE8FC47FFF7DABF0020012289
:10A0600021782B291BD02D2902D0302908D102E0DC
:10A0700040F0010001E040F00200641C002AEFD132
:10A0800000252A290ED02178A1F130020A2A11D206
:10A0900005EB850201EB4205641C303DF1E740F021
:10A0A0000400EAE7D9F800100B1DC9F80030096870
:10A0B000641C0D44217800232E290BD114F8011FB4
:10A0C000A1F130020A2A05D203EB830201EB42031D
:10A0D000303BF3E76C290DD068290BD0692921D0DA
:10A0E0000BDC252918D0582931D063290ED06429DA
:10A0F00015D117E014F8011FECE7702969D0732916
:10A1000032D075291BD0782909D120E0D9F8000078
:10A11000011DC9F8001001784046FEF7EDFB641CF4
:10A1200090E76CE0D9F800100A1DC9F80020096812
:10A13000CDE900500A224046FFF706F8EFE7D9F8CC
:10A1400000100A1DC9F8002009680A2206E0D9F8A3
:10A1500000100A1DC9F8002009681022CDE900503E
:10A16000404601F059FFDAE7D9F8001000270A1D30
:10A17000C9F800200E68C00705D112E04046761CE1
:10A180007F1CFEF7B9FB31780029F7D104E02021CC
:10A1900040466D1EFEF7B0FBBD42C0D9002DF6D182
:10A1A000BDE74EB13046FCF7AFFA074604E0202188
:10A1B00040466D1EFEF7A0FBBD4206D9002DF6D12C
:10A1C00003E04046761CFEF797FB31780029F8D172
:10A1D000A5E7D9F80000011DC9F800100568302175
:10A1E0004046FEF789FB78214046FEF785FB0820B4
:10A1F0000021CDE90001034610222946B0E7BDE861
:10A20000FC8770B541EA4201DDE904564FF0A044F5
:10A2100041EA830141EA052104EB800041EA06415D
:10A22000C0F8001770BD4FF0A04202EB8000D0F8DC
:10A23000002722F44032C0F80027D0F8002742EA75
:10A240000141C0F8001770474FF0A0420121814042
:10A25000C2F80815704701224FF0A043824011B1A7
:10A26000C3F808257047C3F80C25704718B5084B8C
:10A270006C4601441B68009306E000BF54F8203090
:10A28000D3F81035401C08C28142F7D818BD000031
:10A2900018C30200034908B50844002101600068A2
:10A2A000009008BD0060004002494058012800D0DD
:10A2B000002070470060004030B5154A014600207C
:10A2C000D2F8104423460AE0DB681D79854205D1A7
:10A2D000401C0A28F6DB4FF0FF3030BD1B68002B16
:10A2E000F2D1431CF9D0CB681871D2F8103443B1C5
:10A2F000DB68CC681B682360D2F81024D268116038
:10A3000030BDC2F81014C96800220A6030BD0000D8
:10A31000B83400207047FCF77FBD704708B5034A8A
:10A3200000924023024A00F005F808BDADB60200D5
:10A3300020330020F0B595B01C4615460F46084660
:10A340001A9E00F0F7FA182109A8FCF773FA0E9686
:10A35000CDE909540023082203A9384600F0FFFA8A
:10A3600005980690BDF81000ADF81C00BDF812006D
:10A37000ADF81E0000208DF821000398082600F09B
:10A380000300012802D0022818D032E00398334697
:10A39000850AC0F3C2008DF8200003980FA9C0F30E
:10A3A0008314A200384600F0DAFA09A8009006AB40
:10A3B00022460FA9284600F019FA1AE00398840DE6
:10A3C000C0F3C2008DF82000082C01D2254600E021
:10A3D000082533462A460FA9384600F0C0FA2E4415
:10A3E000641B09AB06AA29460FA800F05BF9002CF4
:10A3F000EAD1384600F0A4FA15B0F0BD0A4A0129A6
:10A4000002EBC00007D0022907D0032907D0042996
:10A4100007D0002070470220704704207047007961
:10A4200070474079704700008CCE020010B5FFF7EE
:10A4300072FF04210348FFF73FFF02490120C9686A
:10A44000487110BD7CCE02002DE9F04F8DB0FEF7B3
:10A450006BFA18B100200DB0BDE8F08F7E4C4FF0C4
:10A46000000BC4F818B4BFF34F8F60680290A56862
:10A47000D846284004EB80000CE000BFD4F8180454
:10A4800070B921680298814201D86160E2E72840F2
:10A4900004EB80000C3002A9FEF7A9FE0028EDD1E4
:10A4A000002005AA029901EA050304EB8303491C75
:10A4B000DB6842F82030401C02910228F2D3059854
:10A4C00000F00300022802D001284DD0AAE0059830
:10A4D0005022810D8946B2EB905F00D850210E4684
:10A4E00066F39F50059008315C4800F0DAF90700E8
:10A4F00078D000F01FFA4346082205A9384600F03C
:10A5000036FA029908F1080A2940681A8000001DED
:10A51000864222D9504D0C3530B1C2B204EB8101D4
:10A52000301A90460C3104E02946F2B200259046DC
:10A530002846C6B25346384600F019FA0AEB08031B
:10A5400025B132462946384600F011FA029909F140
:10A55000030001EB900002903BE004EB81015346C5
:10A56000324638460C31EFE70598C0F383100628D1
:10A5700000D30620059960F38911C1F38310801C74
:10A5800005918100354800F08CF907004AD000F0B1
:10A59000D1F94346082205A9384600F0E8F908F148
:10A5A000080800260FE00298434600EA0501401C17
:10A5B00004EB81010290042238460C3100F0D7F9F7
:10A5C00008F10408761C0598C0F38310B042EAD85D
:10A5D00047B1D4F81054D4F8180478B1384600F0D4
:10A5E000AFF934E01EE0E8684079012804D12A6818
:10A5F0002846394612689047E8680568002DF2D170
:10A60000384600F09DF98DF800B06846FDF724F952
:10A61000D4F8180408B9029860609DF80000FDF7AE
:10A620003FF914E0D4F8104405E021682046896819
:10A630008847E0680468002CF7D109480949401AA6
:10A64000C008022101EB004007A100F017F8FEF757
:10A650006BF980F00100FEE6B834002014CF020050
:10A66000F4CE02008CCE02004261636B656E6473AF
:10A6700020666C75736865640000000000231A464C
:10A6800001F0EAB808B5012300926A4601F0E4F847
:10A6900008BD1CB5CDE9002302236A4601F0DCF8B1
:10A6A0001CBD00002DE9F0470E4680461C46924630
:10A6B000082940D894F80C900020207319461046C1
:10A6C00000F0A4FE0025B54206D218F805201BA113
:10A6D0002046FFF790FC03E01AA12046FFF78BFC11
:10A6E0006D1C082DEFD318A12046FFF784FC002530
:10A6F000B54212D218F805707E2F08D8FBF7D4FEA9
:10A700000068C05D10F03E0F01D03A4600E02E22F6
:10A710000EA12046FFF76FFC03E00DA12046FFF7D6
:10A720006AFC6D1C082DE3D301222146504600F03F
:10A730004FFE84F80C90BDE8F087000020253032F1
:10A7400078000000202020007C000000256300002D
:10A75000200000000B4810B5FF218160002101603E
:10A760004160C0F81814C0F8141480F8201406488A
:10A7700000F0E4F8002803D1044800F039F9002083
:10A7800010BD0000B834002014CF0200F8C402004D
:10A7900002480349401AC0087047000014CF020065
:10A7A0008CCE020013B56846FEF7D6FF08B1002034
:10A7B0001CBD0248009950F831001CBD8CCE02002F
:10A7C00070B509480125D0F8104480F8205407E0FE
:10A7D000E06845712168204649688847E068046858
:10A7E000002CF5D170BD0000B83400202DE9FF47E2
:10A7F00081460C9D00200C462F7B287398461646F8
:10A800002946184600F002FE072E42D2DFE806F085
:10A8100004090F161F2A360049462846FFF7EBFBAE
:10A8200037E0494628462268FFF7E5FB31E0D4E9E6
:10A83000002349462846FFF7DEFB2AE0A068009087
:10A84000D4E9002349462846FFF7D5FB21E0D4E9A7
:10A850000201CDE90001D4E9002349462846FFF76B
:10A86000CAFB16E004F1080007C88DE80700D4E928
:10A87000002349462846FFF7BEFB0AE004F1080022
:10A880000FC88DE80F00D4E9002349462846FFF79A
:10A89000B2FB00222946404600F09AFD2F73BDE826
:10A8A000FF872DE9F041058A80462D1F4819C01CFD
:10A8B000B0FBF5F0C6B24046FFF790F9041E19D080
:10A8C0000020207101206071E58000272546761E5A
:10A8D000C4F800800BE04046FFF780F960B1617971
:10A8E000491C6171286005467F1CC0F80080B74292
:10A8F000F1D32046BDE8F081204600F002F80020A8
:10A90000F8E72DE9F041457901466B1E002201E090
:10A910000968521C9A42FBD30F680146002605E0E5
:10A9200038460C68FFF77CF92146761CAE42F7D317
:10A93000BDE8F0810121001DFFF72EB9FFF788B9AE
:10A9400010B504460121001DFFF742F910F0FF0F7A
:10A9500004D12046BDE81040FFF7D3BF10BD1CB5A1
:10A9600001920122009201AAFEF7B6FE1CBD1CB5A1
:10A9700001920022009201AAFEF7AEFE1CBD00006B
:10A98000064910B500204870091D0860BFF35F8FAD
:10A990000349044800F01AFA002010BD782B00206B
:10A9A00080C302001433002008B500208DF8000099
:10A9B0006846FCF751FFF1EE100A20F09F00E1EE2F
:10A9C000100ABFF35F8F08494020C1F880029DF84C
:10A9D0000000FCF765FF00F0D5F908B141DF08BDC4
:10A9E00020BF40BF20BF08BD04E000E0FCF7CABEA6
:10A9F0008268002191608268116182685161826879
:10AA0000D1608268516080680160704708B500229B
:10AA100042504058009008BD20B1034909680160C8
:10AA2000002070470E2070478CC502002DE9FE43C0
:10AA300007460E460846FFF7EFFF00287CD10024AA
:10AA40000094019406208DF800704FF00108ADF8D5
:10AA5000040002948DF8028069462020326869DF84
:10AA60003649374A891AC908012202EB014530B13B
:10AA700000F01AFA024628463249FFF703FE009416
:10AA80008DF801808DF80240019402948DF8034006
:10AA900069464020326869DF30B100F005FA0246AD
:10AAA00028462949FFF7EEFD00948DF80070F72045
:10AAB000ADF802000194029469462320326869DFF0
:10AAC00030B100F0F1F9024628462049FFF7DAFDDF
:10AAD0000094019402948DF8008069460120326848
:10AAE00069DF30B100F0E0F9024628461849FFF767
:10AAF000C9FD4FF4B0600090019402946946A12012
:10AB0000326869DF30B100F0CFF9024628461149BA
:10AB1000FFF7B8FD0094019402948DF80040694657
:10AB2000A020326869DF30B100F0BEF90246284645
:10AB30000949FFF7A7FD0020BDE8FE8304CF02000E
:10AB40008CCE0200C4CB02000CCC020058CC020018
:10AB500024CB020070CB0200D0CA02002DE9F041E4
:10AB60000546076860DF804619491A482A68081AAE
:10AB7000C608BA4219D9022000EB064416A12046A5
:10AB8000FFF77CFD20463A461FA12B68FFF781FDA9
:10AB90004FF08050D0F80C012968800200F100507D
:10ABA000421A204625A1FFF76DFDB8F100004FF0D5
:10ABB00001040AD000F078F9024604EB06402AA10D
:10ABC000FFF760FD4046BDE8F0812F480470F9E7CB
:10ABD00004CF02008CCE0200496E7375666669630D
:10ABE00069656E742052414D20616C6C6F636174B5
:10ABF000656420666F722074686520536F667444C4
:10AC000065766963652E00004368616E6765207430
:10AC100068652052414D207374617274206C6F63BB
:10AC20006174696F6E2066726F6D203078257820B0
:10AC3000746F20307825782E000000004D6178690F
:10AC40006D756D2052414D2073697A6520666F7273
:10AC5000206170706C69636174696F6E2069732024
:10AC6000307825782E00000073645F626C655F6544
:10AC70006E61626C6528292072657475726E6564F8
:10AC80002025732E00000000EF2B002030B5154862
:10AC9000ADF5017D0078002821D04FF4FA7500BF92
:10ACA000ADF8005280A9684661DF38B1052816D09A
:10ACB0000DF5017DBDE83040FCF764BD6C460A49E6
:10ACC0007DA800F083F806E0D0E9002120469047F7
:10ACD0007DA800F092F87F980028E1D0F4E70DF508
:10ACE000017D30BDEF2B002090C502007CB5194CD2
:10ACF000207808B108207CBD0120A070002000F061
:10AD00009FFC112819D0002000F0B2FC1248002648
:10AD1000006801908DF800606846FCF79DFD0F49C2
:10AD200001A810DF05000AD0002020709DF8000067
:10AD3000FCF7B6FD2DB128467CBD00207CBD01206E
:10AD4000F3E7A670667000F055FD012000F090FC5E
:10AD5000F3E70000EC2B002024C50200017702007D
:10AD60000EB50749684600F031F805E0D0E900105B
:10AD70008847684600F041F802980028F6D10EBDD9
:10AD800040C502000148007870470000EC2B00200D
:10AD90001FB568464BDF30B1052814D004B0BDE8BC
:10ADA0001040FCF7EFBC084901A800F00FF806E0DE
:10ADB000D0E900210098904701A800F01EF8039800
:10ADC0000028E6D0F4E71FBDACC5020001600968A9
:10ADD0004160AFF3008010B5D0E90021536899427B
:10ADE00001D1002104E0D1E90034A34202D0194688
:10ADF000816010BD08314160F0E7816800290BD007
:10AE0000026892680A44826041684B689A4203D1A2
:10AE100008314160FFF7DFBF704770B50D46064649
:10AE2000446804E0B2682946904718B12468206855
:10AE30000028F7D120682860256070BD4068006850
:10AE4000704741680868002801D002680A607047AE
:10AE500002460020526806E08B4203D10868106069
:10AE6000012070471A461368002BF5D17047000087
:10AE70000C4A10B502F594730EE0991AC91001EB53
:10AE8000D171491002EBC1010C68844201D90B4613
:10AE900002E005D201F108029A42EED3002010BD73
:10AEA000486810BDA0C3020000B5FFF7E1FF00280D
:10AEB00000D1014800BD00008CC3020040580028AA
:10AEC00000D00120704708B5002242504058009041
:10AED00008BD000008480068012110F0010F06D1EC
:10AEE0004FF0E020C02280F80024C0F80011034990
:10AEF000012008607047000000E100E018050040F4
:10AF00000649024600200B790BB1852070470A6084
:10AF100001220A7100224A7170470000342B002080
:10AF200004490120086004480168C1F30041002978
:10AF3000FAD170470C00004018040040002802D0ED
:10AF4000014980010847704751C30200002802D020
:10AF50000149800108477047D1C4020038B50D4649
:10AF600000F0A0FA040014D000208DF8000068461C
:10AF7000FCF772FC207928B19DF80000FCF790FCEA
:10AF8000112038BD0120256020719DF80000FCF7DC
:10AF900087FC002038BD00000179064AC1EB011191
:10AFA000006802EB81010522C0F80025022081F82B
:10AFB0002E007047643200202DE9FC4106461746FA
:10AFC00000790D46324AC0EB001102EB810498462D
:10AFD00094F82E1011B10820BDE8FC812D4951F8DC
:10AFE00020103068FFF7BAFF08B11120F4E7C4E978
:10AFF00000780027A76084F82D7084F8317084F8F9
:10B000003070687B84F838004FF00608CDE900877F
:10B0100003233A4639462868FFF7F3F8CDE900875D
:10B020000022032311466868FFF7EBF8D5E9001208
:10B030003068C0F80815C0F80C25A968C0F82415B8
:10B0400020680122F8B1306840F30731287B0029DD
:10B050004FEA401006DA01F00F0101F1E02181F81A
:10B06000140D03E001F1E02181F80004306840F3A1
:10B07000073000F01F0102FA01F14009800000F1E1
:10B08000E020C0F8001184F82E200020A4E7000082
:10B09000643200201CC30200F0B585B015460E4690
:10B0A00007461C46142207496846FBF791FB8DF8BA
:10B0B00001600022694638460395019400F020F8AB
:10B0C00005B0F0BD20C302002DE9F04186B00E4668
:10B0D00080461C461546142168460C9FFBF7AAFBC8
:10B0E0008DF80160039501940FB1202200E0002249
:10B0F0006946404600F004F806B0BDE8F081000063
:10B1000030B40379054CC3EB031304EB83041346FB
:10B110000A460068214630BC00F026BF6432002099
:10B1200038B500248DF80040007800280AD0064D7C
:10B13000287830B105486A464FF4A4714068FCF79E
:10B140006DFB2C7038BD0000D82A0020B0C2020070
:10B15000002801D100F02EBB7047000000780028C5
:10B1600007D104483B21408876DF002801D0FCF756
:10B1700009BB7047D82A0020F0B58BB00026019695
:10B180000D4604468988406901AAFCF7A3FB0AA87A
:10B19000CDE908600227ADF82070ADF82260218962
:10B1A000A88808AAADDF002819D1A069002816D008
:10B1B0000998FDF78BF9002811D0019E0EB10120EE
:10B1C0003070182102A8FBF735FB8DF80870039446
:10B1D000A888ADF810000596A16902A888470BB0B1
:10B1E000F0BD000070B58D88027900EBC5042273B4
:10B1F000C97BA41D012902D0022904D101E00088E5
:10B2000000E04088208021886088814211D928464A
:10B21000A5DF0126B0B1112816D0FFF745FE024682
:10B220000B480C49401AC00806EB00400AA1FFF782
:10B2300029FAA179E079814208D92846BDE8704011
:10B24000FDF710BD6671F4E72671F2E770BD0000EE
:10B250008CCE02008CCE020073645F626C655F6707
:10B26000617474635F65786368616E67655F6D7450
:10B27000755F7265717565737428292072657475C0
:10B28000726E65642025732E000000007CB50646B2
:10B290008D88C88806EBC504A41D172800D2172086
:10B2A0002188814200D808466080002020712188D2
:10B2B0002846B5DF60B1FFF7F7FD02460F48104999
:10B2C000401AC008012101EB00400EA1FFF7DAF996
:10B2D0006079002810D1306900280DD01549D1E9D6
:10B2E0000201CDE90001ADF802506088ADF804001C
:10B2F00032696946304690477CBD00008CCE020022
:10B300008CCE020073645F626C655F6761747473F6
:10B310005F65786368616E67655F6D74755F7265A0
:10B32000706C7928292072657475726E65642025A9
:10B33000732E0000F0C20200F0B587B00C4605463F
:10B340008E1D8988406906AAFCF7C4FA1821684650
:10B35000FBF770FA0195A088069AADF808000392F1
:10B3600031882B89002704F11200994202D1738998
:10B37000022B0DD0AA8991421ED1A96900291BD0A8
:10B380008DF8007004907089ADF81400A96911E07F
:10B39000002A11D0FDF79AF820B106990120087013
:10B3A000022002E00698077003208DF80000A969CA
:10B3B000002901D06846884707B0F0BD0068012821
:10B3C00003D0022801D00020704701207047000000
:10B3D00010B50C46017A052908D0407A38B10848E2
:10B3E00008A102682046FEF706FE00E01AB106A199
:10B3F0002046FEF700FE2046BDE81040FEF708BEDE
:10B40000C82B0020257300000D0A000038B5C38842
:10B410000D46044633B114A0009015A216A128468B
:10B42000FEF7E9FD217A05291CD0607A48B1A08891
:10B43000FEF7E4FF164951F8202016A12846FEF732
:10B44000DAFDA0880021FFF7ADF903461049207A04
:10B45000143951F8202001B02846BDE830400EA133
:10B46000FEF7C9BD38BD00001B5B306D0000000059
:10B470001B5B313B33316D0025734C6F6773206468
:10B48000726F70706564202825642925730D0A0089
:10B49000C82B0020257300003C25733E2025733AFD
:10B4A000200000000349884201D103487047002072
:10B4B00070470000002000403C2B002070B505467E
:10B4C000FDF7F3FC134C40B1D4E904024FF0807156
:10B4D000411842F10000C4E9041000212846FDF79C
:10B4E00035FC30B1606820B1606800F0FDF90020E3
:10B4F000606001212846FDF729FC18B1FDF7C2FD67
:10B50000C4E90601284600F01BFA2846BDE8704051
:10B5100000F034B8482B002070B5054600200C46DA
:10B520000870FDF7AFFDD5E90223101A63EB0103A4
:10B5300000263146361A994112DAB0F5350F03D399
:10B54000FCF72CF90B4942184FF4960300210A48E6
:10B55000FDF7B7FC10B10D2806D009E0012070BD41
:10B5600000210548FDF7E8FB284600F0BDF92070F2
:10B57000002070BDFFFFB400502B0020F8B51A4C1E
:10B58000074600261948FFF759FCD0B1616871B130
:10B59000D0E902106268D2E90232C91A904120D281
:10B5A0006068007F18B161681048FFF736FC00F052
:10B5B0004DF905466946FFF7AFFF98B1606840B1A5
:10B5C0000AE0606800280CD13846BDE8F840FDF775
:10B5D00074BC3846FDF76DFC65609DF800000028DE
:10B5E000D0D1F8BD6660CDE7482B00203CC30200F7
:10B5F00038B50021012548B101280CD0032809D114
:10B60000FFF768FCBDE83840FEF7B6BC4FF0E0201D
:10B61000C0F8805138BD8DF800106846FCF71CF961
:10B62000064C207808B9FEF78BFCE068401CE0600F
:10B63000A5709DF80000FCF733F938BDF431002007
:10B640003EB5044609496846FFF7C0FB08E000BF65
:10B65000D0E900212046904730B16846FFF7CDFB86
:10B6600002980028F4D13EBD11203EBD28C502003D
:10B670003EB5044608496846FFF7A8FB07E000BF4F
:10B68000D0E90021204690476846FFF7B6FB0298B4
:10B690000028F5D13EBD000034C502000249896989
:10B6A000002900D0084770475C3100202DE9F041A7
:10B6B0001400884618D000250E4F032608EB05011C
:10B6C00022460020FBF7C8FB0544241A40B938780D
:10B6D000002809D008494FF47A408847761E05D0E3
:10B6E00001203870002CE9D1BDE8F08100203870CD
:10B6F000FAE70000902B0020F1C402002DE9F04190
:10B700000746806A14468846C8B3002531E000BF6A
:10B71000B96A05EB450001EB8006B088801CFE2865
:10B7200002D90C20BDE8F0812288401C08F80200F4
:10B7300020881622401C80B2208008F80020208833
:10B74000401C80B2208000EB0801308800F05EFCD5
:10B750002188084480B22080B28842B1B16871B1BA
:10B760004044FAF7F0FF2088B188084420806D1C1F
:10B77000EDB297F82C00A842CAD80020D2E7FFE724
:10B780000720CFE70A78062822F0FF020A7010D2BD
:10B79000DFE800F0030507090B0D002008E0112089
:10B7A00006E0212004E0312002E0122000E0222007
:10B7B0000870704710B50020FCF762FF08B1FBF776
:10B7C000E1FFFCF7E3FE08B1FBF7DCFF33DF002805
:10B7D00003D0BDE81040FBF7D5BF10BD002805D150
:10B7E0000349012048700020FDF784B9704700002C
:10B7F000F431002010B51620FBF74CFFA0B1114822
:10B8000090F800044009082811D20121814011F06C
:10B81000EC0F0CD00C4882684FF480016AB10168CB
:10B8200041F48001016010BD42F2010001E042F2EA
:10B830000200BDE81040FBF7A5BF4FF0E020C0F8C4
:10B84000001110BD16E000E0083300200148FFF7AA
:10B85000F8BA00003CC302002DE9F84F204D924693
:10B86000894606469846012269461846AF68FCF7A5
:10B87000FBFF58B3009800210446801C09E000BF7C
:10B8800000EA07035AF8212005EB8303401C491CFA
:10B89000DA604145F4D34FEA164AFDF743FA4AEA23
:10B8A0000041601C384005EB80003C4005EB840201
:10B8B000C160D06866F3C50068F3891069F39F2002
:10B8C00020F00300401C20F00400D06095F8200414
:10B8D00002E000BFFEF7B8FD0028FBD1BDE8F88FFD
:10B8E000B8340020FBF7A6B970B50446124800250D
:10B8F0000078F8B1F4B1207FE0B1FDF7C3FBD4E9E3
:10B900000223801A994110D32069002600B92677B6
:10B91000D4E905108847206960B1217F51B1D4E98D
:10B92000022110187141C4E9020121460348FFF7C2
:10B9300074FA0125284670BD482B00203CC3020044
:10B94000F8B51B4C69462068FEF7EAF80026012787
:10B95000184D29E0017821B101290CD002291BD111
:10B9600014E041680A7FBAB90F774168104808307F
:10B97000FFF753FA10E041686868814201D16E60B8
:10B980000AE00B480830FFF763FA05E0FFF75EFFB7
:10B9900008B10677FAE72F7069462068FEF7B5F818
:10B9A00069462068FEF7BCF80028D3D1F8BD000036
:10B9B00034C30200482B0020F8B50B4C0D46064658
:10B9C00069462068FEF796F858B1067045606946EA
:10B9D0002068FEF7B0F810B10448FDF755FA0020D2
:10B9E000F8BD0420F8BD000034C30200502B002035
:10B9F0002DE9F041044640F20C602168890001F114
:10BA0000A041C1F800076168890001F1A041C1F8B7
:10BA100000072068FEF718FC6068FEF715FC216837
:10BA200040F20D60890001F1A041C1F80007616892
:10BA3000890001F1A041C1F800070420FFF786FA50
:10BA400000274FF0A04601252179D6F81005C840FF
:10BA500010F0010F02D0002F1DD010E0217805FA60
:10BA600001F0C6F80C050420FFF770FA2068FEF715
:10BA7000EBFB0420FFF76AFA7F1C092FE4DB207937
:10BA80008540C6F80C550420FFF760FA6068BDE8F1
:10BA9000F041FEF7D9BBBDE8F08100001FB50A46B2
:10BAA00001788DF8001001798DF8041041798DF836
:10BAB0000510017A8DF80610017B8DF807100169D9
:10BAC000029140690390044850F82210083850F859
:10BAD0002220684690471FBD882B002070B5007853
