:020000040002F8
:1060000098600020C1630200C9630200CB630200F4
:10601000CD630200CF630200D163020000000000E4
:10602000000000000000000000000000D363020038
:10603000D563020000000000D7630200D9630200AC
:10604000F1660200DB630200D96A0200DB63020032
:10605000DB630200DB6302008D650200DB6302008C
:10606000DB630200DB630200DB630200DB63020030
:10607000DB630200DB630200DB630200DB63020020
:10608000DB63020049670200DB630200DB6302009E
:10609000DB630200DB630200B9670200DB6302001E
:1060A000DB630200DB630200DB630200DB630200F0
:1060B000DB630200DB630200000000000000000060
:1060C000DB630200DB630200DB630200DB630200D0
:1060D000DB630200DB630200DB6302000000000000
:1060E00000000000000000000000000000000000B0
:1060F00000000000000000000000000000000000A0
:10610000000000000000000000000000000000008F
:10611000000000000000000000000000000000007F
:10612000000000000000000000000000000000006F
:10613000000000000000000000000000000000005F
:10614000000000000000000000000000000000004F
:10615000000000000000000000000000000000003F
:10616000000000000000000000000000000000002F
:10617000000000000000000000000000000000001F
:10618000000000000000000000000000000000000F
:1061900000000000000000000000000000000000FF
:1061A00000000000000000000000000000000000EF
:1061B00000000000000000000000000000000000DF
:1061C00000000000000000000000000000000000CF
:1061D00000000000000000000000000000000000BF
:1061E00000000000000000000000000000000000AF
:1061F000000000000000000000000000000000009F
:10620000DFF80CD000F084F9004800470D9102003F
:106210009860002030B450E8012F93B2C489234421
:106220008489A34228BF1B1B0489A34202BFBFF37A
:106230002F8F002007E0C3EA020340E80134002C5E
:10624000E9D14FF001000A6030BC704750E8012FDF
:10625000C2EA024240E801210029F7D1704730B478
:1062600050E8022F1FFAA2F3C488A34202BFBFF373
:106270002F8F00200DE0C48923448489A34228BFC6
:106280001B1BC2EA034340E80234002CE8D14FF064
:1062900001000A6030BC704750E8022FC2EA224277
:1062A00040E802210029F7D17047034653E8022F46
:1062B000D988B2EB324F4FF0000017BF92B241EADB
:1062C000014142EA014104E05A68B2EB324F08BF93
:1062D000012043E80212002AE8D1704730B4044696
:1062E00054E8000F0D4644E80053002BF8D1156028
:1062F00030BC704730B4044654E8000F40EA010552
:1063000044E80053002BF7D1156030BC704730B41F
:10631000044654E8000F00EA010544E80053002B4E
:10632000F7D1156030BC704730B4044654E8000F14
:1063300080EA010544E80053002BF7D1156030BC1A
:10634000704730B4044654E8000F00EB010544E800
:106350000053002BF7D1156030BC704730B40446B1
:1063600054E8000FA0EB010544E80053002BF7D1DF
:10637000156030BC704770B404464FF0000054E81C
:10638000006F0D68AE4207BF44E80023012044E8D7
:1063900000630E60002B1CBF0020F0E770BC70474C
:1063A00030B4044654E8000F88422CBF451A054615
:1063B00044E80053002BF5D1156030BC7047000055
:1063C0000648804706480047FEE7FEE7FEE7FEE78F
:1063D000FEE7FEE7FEE7FEE7FEE7FEE7BD67020039
:1063E000016202002DE9F05F0546002092469B46BF
:1063F00088460646814640241BE0284641464746DB
:10640000224600F074F853465A46C01A914110D300
:1064100011461846224600F016F82D1A67EB0108BF
:106420004F4622460120002100F00DF817EB00092D
:106430004E41201EA4F10104DFDC484631462A46C5
:106440004346BDE8F09F202A04DB203A00FA02F11F
:10645000002070479140C2F1200320FA03F3194352
:106460009040704700487047ACD7020040EA0103F3
:106470009B0703D009E008C9121F08C0042AFAD2FA
:1064800003E011F8013B00F8013B521EF9D27047BE
:10649000D2B201E000F8012B491EFBD27047002266
:1064A000F6E710B513460A4604461946FFF7F0FF13
:1064B000204610BD421C10F8011B0029FBD1801A98
:1064C000704730B504460020034600E05B1C934251
:1064D00003D2E05CCD5C401BF8D030BD034611F820
:1064E000012B00F8012B002AF9D118467047202A09
:1064F00004DB203A21FA02F00021704721FA02F36E
:10650000D040C2F120029140084319467047000074
:10651000064C074D06E0E06840F0010394E80700F0
:1065200098471034AC42F6D3FFF76EFE80E00200CD
:10653000A0E0020070B58C1810F8015B15F007039D
:1065400001D110F8013B2A1106D110F8012B03E00C
:1065500010F8016B01F8016B5B1EF9D12B0705D414
:106560000023521E0DD401F8013BFAE710F8013B5D
:10657000CB1A921C03E013F8015B01F8015B521E79
:10658000F9D5A142D8D3002070BD00002DE9F04715
:1065900000268AB0DFF85091B0464FF48075012490
:1065A00037460696284603F079FF38B1D9F8040338
:1065B000204203D0284603F067FF26432D1D6400C8
:1065C0007F1CADB2082FEDD34FF4BE74204603F00C
:1065D00065FF48B1204603F057FF46F0004606AA83
:1065E0000121002003F03CFF404D16F0FF0F15D0B5
:1065F0000127002437420DD009EB8401D1F81005A2
:10660000D1F81015C0F3042055F82420C1F301413E
:1066100002B190477F00641C082CEBD3002E5FDA98
:106620004FF0FF30CDF8108054E0281910F8507F5B
:1066300090F9000027F0C008401C3BD007A9404655
:1066400003F087F910B34FEA9719404601F004FFB1
:1066500055F820701FB1B9F1030F03D006E0B9F16E
:10666000030F27D104A9404603F07BF94FF0A04166
:1066700001EB8800D0F8000706A9C0F3014A4046A4
:1066800003F067F918B1BAF1020F03D012E0BAF1C2
:10669000030F0FD1B9F1030F08D1BAF1020F1DD0CA
:1066A0000221404603F0C0FE761CF6B217B14946FF
:1066B0004046B847641C042CB7D3002E10D06A465D
:1066C0000121002003F0CCFE06990098884207D0F3
:1066D00006900498002634460790A6E70321E0E7D9
:1066E0000AB0BDE8F087000000600040D43600200A
:1066F00070B54FF48076304603F08AFC114CB50536
:1067000060B1304603F08BFC0120C5F808036079C6
:1067100020B9012060712168002088474FF48276FB
:10672000304603F075FC00280AD0304603F077FCB1
:106730000220C5F808032168BDE870400120084721
:1067400070BD00006430002002490248091F09683A
:1067500000680847D430002000F0C4B970B50E4678
:10676000144900EB400001EBC0051446E86A1835F7
:1067700020B101280FD0022805D113E0284600F0EF
:10678000E5F9A04201D2002411E022463146284614
:1067900000F014FA0BE0284600F0D8F9A042F4D239
:1067A0000446F2E73146284600F0DBF9044620466D
:1067B00070BD00000C3E002004F0D6BCF0B5B5481A
:1067C0000023021D0178101D01254FF08054062979
:1067D0000BD11678360708D10678C6F30316032EB8
:1067E00006D0042E04D0052E02D0062907D00EE0D4
:1067F000B4F82463A84FC6F304263E6002E016787E
:10680000360704D10678C6F30316032E02D00629F4
:1068100004D00FE0A24FA14E7E670EE01678360737
:1068200008D10678C6F30316032E06D0042E04D032
:10683000052E02D0062907D00EE0D4F84462994F05
:10684000C6F342363E6002E01678360704D1067879
:10685000C6F30316032E02D0062906D011E0924E8D
:10686000376827F0807737600EE01678360708D152
:106870000678C6F30316032E06D0042E04D0052E88
:1068800002D006290AD011E04FF08046C6F80C313C
:10689000C6F81031834E361F336002E01678360793
:1068A00004D10678C6F30316032E02D0062905D0BC
:1068B0000CE07C4F032664373E600AE0167836070A
:1068C00004D10678C6F30316032E02D006290DD094
:1068D00014E0764F05263E60744E78363560734E70
:1068E000083633603F263F1D3E6002E016783607CB
:1068F00004D10678C6F30316052E02D0062957D018
:1069000062E06B4E36686B4F3E60694E361D3668EE
:106910003F1D3E60664E083636683F1D3E60644E41
:106920000C3636683F1D3E60614E103636683F1D9E
:106930003E605F4E143636683F1D3E605C4E183632
:1069400036685C4F20373E60594E1C3636683F1D16
:106950003E60574E203636683F1D3E60544E24360A
:1069600036683F1D3E60524E283636683F1D3E60F9
:106970004F4E2C3636683F1D3E604D4E30363668E1
:106980004C4F40373E604A4E343636683F1D3E60BD
:10699000474E383636683F1D3E60454E3C363668B9
:1069A0003F1D3E60424E403636683F1D3E6002E06D
:1069B0001678360708D10678C6F30316032E06D0DC
:1069C000042E04D0052E02D0062907D019E0D4F8F1
:1069D0005812394A01F04F01116002E0117809079D
:1069E0000FD10078C0F30310032803D0042801D08E
:1069F000052806D131480168C90702D06FF00101AE
:106A00000160D4F83001062808D1D4F834010628F2
:106A100004D12B48016841F4806101602248743838
:106A2000016841F470010160BFF34F8FBFF36F8FB6
:106A30004FF01021D1F80002002803DBD1F8040246
:106A4000002822DA1F4A15601F480468002CFCD079
:106A50001524C1F800420568002DFCD0C1F804429D
:106A600001680029FCD0136001680029FCD0BFF345
:106A70004F8F0D48F0380168144A01F4E06111436A
:106A80000160BFF34F8F00BFFDE712491048086057
:106A9000F0BD0000E00F00F0403501400DF0ADBA50
:106AA00000C007403C050040FCED00E010560040EF
:106AB0000404001020C50040E40E00400004004023
:106AC0003C17004004E5014000E401400400FA05E1
:106AD0000090D003483100200148006800470000C2
:106AE0006C30002010B5124C02202061606111A0B2
:106AF000A06104F17800E0614FF400702062002092
:106B0000A06260620BA1A164E06204F51E71E16401
:106B10001021A065C4E91410E06509A1E01DFFF78C
:106B2000DDFC08A12046FFF7D9FC2020A07110BD94
:106B30000C3E00205465726D696E616C00000000AF
:106B40005254540053454747455200000269C168FA
:106B50008A4203D88068401A104400E0501A401E50
:106B600070472DE9F047C4681746894606464FF03E
:106B700000083069A04201D9051B02E0B168201A63
:106B80000D1AB0686D1E001BA84200D80546BD4214
:106B900000D33D4670682A4620444946FFF766FC0C
:106BA000B0687F1B2C44A844A944A04200D1002413
:106BB000F460002FDDD14046BDE8F0872DE9F041BB
:106BC00004468846D4E90207C51BE168606816469A
:106BD0000844B54206D94146FFF748FCB819E060C1
:106BE000BDE8F0812A464146FFF740FC761B08EBE2
:106BF000050132466068FFF739FCE660F0E7000007
:106C00000FB4054B10B503A9044A029800F042F8EE
:106C100010BC5DF814FB0000778C0200E43000200B
:106C20000FB41CB50246002007AC00290BD0491E4A
:106C3000CDE90021054B6A462146069800F02AF866
:106C4000009A002111701CBC5DF814FBF770020063
:106C500002E008C8121F08C1002AFAD17047704725
:106C6000002001E001C1121F002AFBD17047000083
:106C70000121202803DA81400548014003E0402833
:106C800002DA2038814009B10120704700207047A6
:106C9000FC06FFBD2DE9FF4F8DB00F4605460026CF
:106CA00006E025280BD0DDE90F1290476D1C761CFD
:106CB00028780028F5D111B03046BDE8F08F0024C7
:106CC000A246A1460122EC4900E0044315F8013F29
:106CD000203B02FA03F00842F7D128782A2810D086
:106CE0006FF02F022878A0F13001092914D80AEB9F
:106CF0008A0102EB410144F0020400EB010A6D1C21
:106D0000F0E701CF5FEA000A03D544F40054CAF16A
:106D1000000A44F002046D1C28782E2817D115F8BB
:106D2000010F44F004042A280ED06FF02F022878B7
:106D3000A0F1300109290AD809EB890102EB4101D0
:106D400000EB01096D1CF2E757F8049B6D1C2878D5
:106D50006C280FD006DC4C2817D068280DD06A2884
:106D600014D104E0742810D07A280FD10DE044F437
:106D700000140AE044F4801401E044F440146978FB
:106D8000814202D104F580146D1C6D1C2A786E2A94
:106D90001FD00CDC632A31D004DC002A8BD0582AA7
:106DA00011D1A3E0642A68D0692A0CD165E0732A66
:106DB0002ED004DC6F2A73D0702A04D19BE0752A90
:106DC0006FD0782A6ED01046DDE90F129047761CFE
:106DD00050E1C4F30250022806D0032809D0042849
:106DE00001CF09D0066045E101CFF117C0E900618C
:106DF00040E101CF06803DE106703BE117F8040B4E
:106E00008DF8000000208DF80100EB46012003E022
:106E100057F804BB4FF0FF3061074FF0000102D478
:106E20000DE008F10101884649450FDA8045F8DB9D
:106E30001BF808100029F4D108E008F10101884688
:106E40008142FADB1BF808100029F6D1DDE90F2397
:106E5000AAEB08008146214600F036F9304400EBE9
:106E6000080604E0DDE90F121BF8010B9047B8F1AA
:106E70000108F7D221464846F7E00A21C4F302533D
:106E80004FF0000B0891022B04D001CFC117032B48
:106E900009D00AE0FF1D27F00707F7E8020108E024
:106EA00032E01FE020E000B2C117042B01D140B254
:106EB000C117031E71F1000307DA4FF0000CD0EB8D
:106EC0000C006CEB01012D2302E0230504D52B23DC
:106ED0008DF82430012303E0E30701D02023F7E7F6
:106EE000984658E00A2110E010210EE010204FF0E3
:106EF000000B08900CE010214FF0000B44F004044C
:106F00004FF00809089103E008214FF0000B0891A9
:106F1000C4F30253022B04D001CF0021032B06D06F
:106F200006E0FF1D27F00707F7E8020103E080B243
:106F3000042B00D1C0B24FF0000823072BD5702AD4
:106F400007D0DDF820C08CF0100C5CEA0B0C05D0EB
:106F50000EE040238DF82430012308E050EA0103BD
:106F600006D030238DF824308DF825200223984652
:106F7000DDF820C08CF0080C5CEA0B0C0BD150EA59
:106F8000010301D1630706D530238DF824304FF07B
:106F90000108A9F10109582A04D038A20B9208AAC5
:106FA0000A920BE03AA2F9E75B46089AFFF71AFA51
:106FB0000B9B9B5C0A9A521E0A92137050EA0102C4
:106FC000F2D10A98ADEB000000F1200B600702D56A
:106FD00024F4803401E04FF00109D94502DDA9EB2A
:106FE0000B0000E0002000EB0B0141440890AAEBED
:106FF000010AE00306D4DDE90F232146504600F0E4
:1070000063F806444FF0000908E009A911F80900E7
:10701000DDE90F12904709F10109761CC145F4DB47
:10702000E0030CD5DDE90F232146504600F04CF873
:10703000064404E0DDE90F1230209047761C0899E1
:10704000481E08900029F5DC08E00A980A990078A3
:10705000491C0A91DDE90F129047761CBBF1000133
:10706000ABF1010BF1DC21465046DDE90F2300F0C6
:1070700019F806446D1C1BE6092801003031323333
:107080003435363738396162636465660000000064
:10709000303132333435363738394142434445464E
:1070A000000000002DE9F041044600251E46174669
:1070B000880404D405E039462020B0476D1C641EC6
:1070C000F9D52846BDE8F0812DE9F04104460025B8
:1070D0001E469046C80301D5302700E020278804CB
:1070E00004D505E041463846B0476D1C641EF9D50D
:1070F0002846BDE8F0814A68002A06D00A68531C79
:107100000B6010704868401E4860704710B501223F
:107110000221002000F08CFF08B1072810D10722BF
:107120000221012000F084FF08B1072808D10021C6
:107130000A22084600F07CFF08B1072800D1002091
:1071400010BD022000F090BE70B50024064D06E090
:107150006868012110F8340004F01CF9641C2878D8
:107160008442F5D3002070BD78300020F8B5164673
:107170000C4605460A2A01D20720F8BD04F004FA9D
:1071800018B904F0CBF90028F7D1134F1021134898
:107190007D603C70BE60FFF782F90020C7E9040003
:1071A0000F4E0DE005EBC4003168009181788DF839
:1071B000011000780B4A694604F03EF90028DCD142
:1071C000641EE4B2EED2BDE8F84005480021064A4C
:1071D000001D00F087B8000078300020A0370020A4
:1071E000A4D40200158E0200D586020072B603F008
:1071F0000FFC00BF03F022FA0028FBD1114812490E
:10720000401AC408012000EB044010A103F030FB39
:1072100011480068C00700D000BE022000EB044007
:107220000EA103F025FBBFF34F8F0B48E438016834
:107230000E4A01F4E06111430160BFF34F8F00BFBC
:10724000FDE7000028E10200B0E002004661746141
:107250006C206572726F7200F0ED00E05379737408
:10726000656D207265736574000000000400FA0506
:107270000EB500210091CDE901106A4644F20100EB
:10728000FFF7B4FF0EBD10B58268C368934203D008
:1072900001F0DEFC002010BD052010BD29B112B1A7
:1072A000531E134203D0092070470E20704701601F
:1072B000838000218160C1600846704710B58268F4
:1072C000C3689A1A83889A4203D801F0CBFC002045
:1072D00010BD042010BD0000014801F03ABB0000C1
:1072E000983000203AB100680129426100D00021A5
:1072F00001610020704707207047000038B5114831
:1073000008235822416800910F49006802F06EFA84
:10731000002815D10D4A69460D4801F01FFB0400F5
:107320000ED101210A4801F090FB0123094A1946B8
:10733000074801F0E6FA064901200839087020469E
:1073400038BD0000ACD40200C037002065C3020085
:1073500098300020FFFF7F0070B50446007F0D4687
:1073600008B1002070BDA26101F028FD401941F173
:107370000001C4E90201206900B125612146BDE890
:107380007040002005F028BB01460020087701204E
:1073900005F022BB70B50A4E01460A48B578FFF7E2
:1073A00072FF04464DB10020B070711C0122C81D4F
:1073B00002F0A6FE08B1FFF75BFF204670BD00009B
:1073C000B430002018380020F0B5244E89B01F4694
:1073D0000D00044672603FD0A888296882B2204818
:1073E000FFF75CFF002835D1A889A96882B21C4844
:1073F0001030FFF753FF00282CD12022194968468E
:10740000FFF734F860690690207C00B101208DF808
:1074100014008DF81C70607C00B10E208DF81500F2
:10742000E0680290A0680390206801906068009076
:107430000A480D4A6946083002F02EFE002809D19C
:10744000B0702068401C05D004490122491CC81DA9
:1074500002F056FE09B0F0BD0720FBE7B430002073
:1074600018380020C0D40200E5CE020010B5014655
:107470001048FFF723FF040019D10F480F4A017885
:10748000515C19B1001D04F00FFB02E00C3004F058
:10749000E5F960B9084907480839FFF7F4FE30B943
:1074A000054901220839044802F03AFE0446204604
:1074B00010BD000028380020BC30002058300020CB
:1074C00030B5EFF3108172B60D4A9468012324B1F0
:1074D0000370002900D162B630BD93604FF0E02305
:1074E000D3F88051074C25401560C3F88041D3F88C
:1074F000844154605A17C3F8842100220270E8E7DF
:1075000038380020FC06FFBD0B498A68002A11D0DC
:1075100000280FD1EFF3108072B60B684FF0E02215
:10752000C2F800314B68C2F8043100228A6000289A
:1075300000D162B670470000383800202DE9F041D4
:10754000064608680C46411C4FF0A0474FF0010565
:1075500006D005FA00F1C7F80815206802F050FFC0
:107560006068411C02D0002102F038FF3168A06938
:10757000C1F82405607D227D31681043C1F86C0597
:10758000D4E900123068C0F81425C0F80C15207D2D
:10759000012815D1A068411C02D0002102F01EFF75
:1075A000E068411C05D08540C7F80855E06802F046
:1075B00027FFD4E902123068C0F80825C0F810157A
:1075C000BDE8F0812DE9F041064608680C46411CF3
:1075D0004FF0A0474FF0010506D005FA00F1C7F8BB
:1075E0000815206802F016FF6068411C02D00021D7
:1075F00002F0FDFE3168A069C1F82405607D217D9F
:1076000032680843C2F86C05D4E900123068C0F84B
:107610000C15C0F81425207D012815D1A068411C47
:1076200002D0002102F0E3FEE068411C05D0854055
:10763000C7F80855E06802F0EDFED4E902123068A0
:10764000C0F80825C0F81015BDE8F08170B5C8B1C4
:10765000C2B10024158803E0065D641C3444A4B262
:10766000A54203D8061976789E4201D08C42F3D306
:107670008C4207D2005DA31C401E9BB280B21C1836
:107680008C4201D9002070BD138070BD2DE9F041FE
:107690008AB006460020ADF8140013461020884634
:1076A0008DF804000D4606AA01A9184664DFA6B3AA
:1076B00098BB9DF80400022804D0042807D01028A5
:1076C00039D10DE003208DF81000022003E00520E1
:1076D0008DF8100004208DF81100002404AF0FE095
:1076E00007208DF810000620F5E73B5D05AA41460E
:1076F0003046FFF7ABFF641CE4B20546022C04D20F
:10770000BDF814000028F0D003E0BDF814000028F4
:1077100012D080B2064400240BE00CE030199DF832
:10772000042006A9FEF7CDFE48B19DF804002044D0
:1077300084B2AC42F2D300200AB0BDE8F08101204F
:10774000FAE7000070B540B10C4D297839B1044614
:1077500004F06EFD28B1002070BD0E2070BD082021
:1077600070BDE868062807D20549226801EB800150
:10777000401C0A60E860EEE7042070BD483000203D
:10778000A836002010B558B103684BB142683AB131
:10779000044900200124C8600C70C1E9013210BD09
:1077A0000E2010BD48300020002827D0002925D009
:1077B000134A1278002A21D00A460188112911D0D3
:1077C000302907D0322909D0332917D1011D10469D
:1077D00004F06ABA011D104604F02ABB011D1046D0
:1077E00004F072B98088B2F8CA12884206D100202B
:1077F00082F8C8024FF6FF70A2F8CA027047000074
:107800004830002048B1084A137843B1D26832B1F9
:1078100090F8C8222AB1112070470E207047082026
:10782000704701F015B800004830002038B50288D4
:10783000011D04461F2A47D016DC102A1ED02B48F3
:107840002B4BC01AC008032303EB0040112A2DD094
:10785000132A33D01B2A44D10979022941D1BDE82A
:10786000384024A103F004B8212A31D03B2A39D072
:10787000562A36D1A088132176DF11E0A188002294
:10788000244800F001F908B1FFF7F2FC072000F0EE
:10789000F1FB08B1FFF7ECFCA1881F48FFF7B2FF2E
:1078A00000281ED0BDE83840FFF7E2BC0B790A88FB
:1078B00001B01AA1BDE8304002F0E5BF0023A08866
:1078C0001A4685217FDFEBE731F8040B75DFE7E728
:1078D00000200090A08869468FDF002801D0FFF7C4
:1078E000C7FC38BDA088132176DFD9E728E1020064
:1078F000B0E00200436F6E6E656374696F6E205274
:107900006571756573742074696D6564206F757435
:107910002E00000040340020302A002044697363A8
:107920006F6E6E65637465642E20636F6E6E5F6844
:10793000616E646C653A20307825782C2072656120
:10794000736F6E3A203078257800000010B51A4C1D
:107950000188606810290ED011292BD1401E60606B
:1079600028D1FFF7D3FB002824D02168002921D09B
:10797000BDE810400847D0B900210122084600F0B8
:1079800057FB08B107280FD107220221012000F080
:107990004FFB08B1072807D104220221002000F084
:1079A00047FB20B1072802D0216801B188476068F1
:1079B000401C606010BD00004030002070B50646DD
:1079C0001A481B4A0D46801AC0080978032202EBA8
:1079D000004459B1012922D0022926D1204615A1FF
:1079E00002F046FFBDE8704004F012BE204615A12B
:1079F00002F03EFF698805F10E02304600F044F8BF
:107A000008B1FFF735FC304600F04AF908B1FFF73E
:107A10002FFC2046BDE870400FA102F029BFA989C4
:107A2000A868BDE8704000F071B970BD28E102009F
:107A3000B0E00200446973636F6E6E6563746564E1
:107A40002E000000446973636F7665727920636F5E
:107A50006D706C6574652E00436F6E6E6563746542
:107A60006420746F20646576696365207769746843
:107A7000204E6F72646963205541525420536572E1
:107A8000766963652E00000050B141802AB15388A9
:107A9000C3801388838092880281406902F030B8E5
:107AA0000E20704730B5144B0D4604000FCB85B047
:107AB0008DE80F001ED0EDB1A868D8B12146684608
:107AC00062DF002814D120788DF812000120ADF873
:107AD00010004FF6FF7060802868E06068682061E1
:107AE0000020A0802081A868606104A8FFF72AFE1A
:107AF00005B030BD0E20FBE788D4020030B5024649
:107B000085B008002DD0002A2BD041884FF6FF7495
:107B1000A14226D09388994223D11588112D14D0E3
:107B2000392D1ED1818800291BD053898B4218D151
:107B3000C168002915D001218DF8001002F1100153
:107B40000291D189ADF80C1008E08B4209D1C168CF
:107B5000002906D002218DF800104480C2686946D1
:107B6000904705B030BD30B585B00C4605461421B0
:107B70006846FEF794FC207804F10E01002830D10D
:107B8000A08801282DD1A0792A78904229D10022FD
:107B900017E002EBC20031F81030022B02D0032BA9
:107BA0000ED105E001EB40000089ADF8120007E0BE
:107BB00001EB40000389ADF80E304089ADF81000AC
:107BC000521C207A9042E4D8E868002809D06088E6
:107BD000ADF8020000208DF80000EA6869462846EA
:107BE000904705B030BD000070B588B015460E4610
:107BF000040012D020216846FEF751FC19481A49AA
:107C0000401AC008022101EB0040F42D07D917A14A
:107C100002F02EFE072008B070BD0E20FBE7628840
:107C2000A2F57F43FF3B18D0154ACDE9022401207D
:107C30008DF800002289ADF812208DF81010ADF8F3
:107C400016500022ADF8142006968DF811006288B7
:107C50006946606901F08CFFDDE70AA102F008FEC9
:107C60000820D8E7D0E00200B0E00200436F6E7455
:107C7000656E7420746F6F206C6F6E672E0000004D
:107C8000858C0200436F6E6E656374696F6E206849
:107C9000616E646C6520696E76616C69642E0000AB
:107CA00010B58AB058B34188A1F57F42FF3A28D079
:107CB000C18831B3044620216846FEF7F0FB01215C
:107CC0008DF8201000208DF821000F4ACDE9022404
:107CD0008DF80010E288ADF812200222ADF81620CF
:107CE000ADF814008DF8101008A88DF8111006904A
:107CF00062886946606901F03BFF0AB010BD0E2042
:107D0000FBE70820F9E70000858C02002DE9F0412F
:107D10000E4605461C481D490024401AC008012192
:107D200001EB00480FE0285DFFF7A0FB070009D03A
:107D3000112FF8D04046224615A102F09DFD38468D
:107D4000FFF796FA641CB442EDD3A81910F8010CA1
:107D50000D2804D10A20FFF789FB1128FAD03246FA
:107D600029461548FFF740FF04000BD0112CF6D030
:107D70004046224611A102F07FFD2046BDE8F041B9
:107D8000FFF776BABDE8F08128E10200B0E002001A
:107D90006170705F756172745F707574206661697F
:107DA0006C656420666F7220696E64657820307837
:107DB000253034782E000000403400204661696C84
:107DC00065642073656E64696E67204E5553206D3F
:107DD0006573736167652E204572726F722030780B
:107DE00025782E20000000000149085C7047000043
:107DF000AAD302000649095C4FF0A040D0F8100554
:107E0000C84010F0010000D0012080F00100704750
:107E1000AAD302002DE9FC410646C0074FF0000539
:107E20000ED0104F00240122385D0095002311462A
:107E3000019502F08BFA641C042CF4D300F046F890
:107E4000B0070DD5074E0024361D0022305D0323F8
:107E500000951146019502F079FA641C042CF4D3C4
:107E6000BDE8FC81A6D3020007490B5C4FF0A0419E
:107E7000D1F804250120984020EA0203C1F8083512
:107E80001040C1F80C057047A6D302000249085CF7
:107E9000012102F0DABA0000A6D302000249085C10
:107EA000002102F0D2BA0000A6D302000649095C04
:107EB0004FF0A040D0F80405C84010F0010000D0F9
:107EC000012080F001007047A6D3020010B5002405
:107ED0002046FFF7DBFF641C042CF9D310BD10B55E
:107EE00000242046FFF7DAFF641C042CF9D310BDF0
:107EF00010B50246064B4FF0FF3000215C5C944207
:107F000001D1084610BD491C0429F7D310BD00005B
:107F1000AAD3020070B50C4E0C004FF00005306083
:107F20000BD0012000F06AF808B1022004E0002024
:107F300000F064F800B10B202070706810B9FFF7F2
:107F4000E5F80546284670BD4030002010B50020F9
:107F500000F0CAF908B1062806D1012000F0C4F9E2
:107F600008B1062800D1002010BD00002DE9F0471F
:107F70000D468146FFF7BCFF0446042836D2DFF8E1
:107F800074801B481C4EA8F10C0725B3012D0ED0A0
:107F9000022D2BD104EB440030444578002D25D030
:107FA000B968002922D02846BDE8F047084704EB0D
:107FB0004401755C0E44717849B10E4A4FF480411A
:107FC000093A8068FFF7C8F908B987F80390B178D3
:107FD00008F80410E2E78068FFF7D6F904EB4401E3
:107FE000314418F804008D78A842D7D0BDE8F08756
:107FF000B0D302003C30002078360020042801D2A3
:10800000FFF7F8BE00207047042804D00A280CD1DE
:10801000002002F013BE05481321408876DF0828AF
:1080200003D0002801D0FFF723B970474034002067
:1080300070B50023042810D20D4D00EB4004012A36
:1080400002D101290CD00022094E00EB400030443F
:1080500061B1012906D0022906D00723184670BD58
:108060000E30C2B22A55F9E74270F7E78270F5E7A1
:1080700078360020044A014600201279D20702D047
:10808000084600F04DB870473030002070B5064605
:108090001E480024C0E90161B00720D50025012257
:1080A00011462846FFF7C4FF6D1C0446042D02D27A
:1080B000002CF4D013E094B940F233320421144878
:1080C000FFF754F804000AD1FFF73EF8040006D188
:1080D0000F48104A0021001FFFF704F90446F0077B
:1080E00012D00120FFF796FE74B909480A4A002110
:1080F0000C38FFF7F7F8040006D10548074A0121BC
:108100000838FFF7EFF80446204670BD30300020F5
:10811000BCD30200ED8302004590020043710200CF
:108120002DE9F05F6E4C054600266078B34618B125
:1081300084F801B000F06EFF6A4F4FF47A694FF493
:10814000C87A4FF00108182D69D2DFE805F00C134A
:1081500013384754696E727B727BC584848484842F
:10816000B3B6B9BCC5C500F055FF3868FFF70CF9C8
:1081700006465CE00020FFF799FE00284FF0000063
:1081800008D0FFF783FE022D02D14FF4E16008E032
:10819000484606E0FFF782FE022D01D1C82000E02C
:1081A0005046410CC0034FF47A72801841F100012F
:1081B000257052000023FEF715F901462AE0002041
:1081C000FFF774FE00284FF0000004D0FFF75EFEBA
:1081D0004FF44870E5E7FFF761FEDFE70020FFF7A7
:1081E00065FE00284FF0000002D0FFF74FFECFE7FA
:1081F000FFF754FED4E70020FFF758FE00284FF0A9
:10820000000002D0FFF742FE01E0FFF747FE2570B5
:1082100040F6CD4100223868FFF79EF8064646E05A
:108220000020FFF721FE257008E0002051E02570B6
:108230003DE084F801800120FFF716FE002240F2A5
:108240006661E8E784F801800120FFF70DFE002257
:108250004FF40051DFE77868FFF796F80646D5F14E
:10826000110000D02EB10220FFF710FE84F802B0FA
:108270001DE0012816D980B2C8214843C117C9039F
:1082800041EA5041C0034FF47A72801841F1000175
:1082900052000023FEF7A6F8014600227868FFF797
:1082A0005BF806460220FFF7F9FD84F802803046AD
:1082B000BDE8F09F00F0AEFEB9E700F0ABFEB4E71A
:1082C00000F0A8FE04E000F0A5FE0020FFF7E6FDA8
:1082D0000120FFF7E3FDAAE7FFF701FEA7E7000093
:1082E00030300020B0D30200012105F013B80000A7
:1082F0002DE9F8430546861C00208DF800009046C5
:108300000F464FF001096846FFF7DAF81B4C20686A
:108310003860D4E90001401AA16804F21C47081A29
:108320000EE00121384601F0A6FA00F0A1FE014658
:10833000384601F0A0FAD4E90001401AA168081AF1
:10834000401C8642EDD8B8F1000F03D0052065F33C
:10835000891002E0062065F39F50A2682168114051
:1083600004EB8101C8602068304420609DF8000063
:10837000FFF7CAF84846BDE8F8830000E839002056
:1083800070B50D4604460A2902D10D21FFF7F8FF0A
:10839000A0682268411CA1601554D4E90101814202
:1083A00004D32046BDE8704001F0D7BE70BD000088
:1083B000034803C8814201D1012070470020704763
:1083C000E8390020034630B50748002104784268A8
:1083D00006E000BF02EBC10005789D4203D0491CB6
:1083E000A142F7DB002030BD783000200078022168
:1083F000FFF7BCBD05494FF0FF32082841F82020A7
:1084000002D3084480F8482070470000D43600208A
:10841000F0B54FF0FF3512B10023082601E0082324
:108420000C260C4C05E000BF54F823707F1C04D0D0
:108430005B1CB342F8D32846F0BD26185DB286F81F
:10844000305044F82310002AF5D1E11881F8480093
:10845000F1E70000D43600200249084490F93000CA
:1084600070470000D436002030B589B00D46044670
:1084700020216846FEF713F894F8C602002300EBAB
:108480008001C1EB801094F8C51204EB400041B1AB
:10849000491EC9B201EBC10100EB4101498A491CE7
:1084A00000E0C188008961F30F0360F31F430320DC
:1084B0008DF800000548CDE90204054804932A46DA
:1084C0006946806801F054FB09B030BD01880200A4
:1084D0004830002070B5084C050009D010342168E0
:1084E000002907D008682060496828468847F6E7D1
:1084F0000834F4E770BD0000C0360020054A0121B1
:1085000020B1012805D19170FFF7E4BF5170002020
:10851000FAE77047C036002010B5D0E90234D1E93F
:108520000220D11AA04101D3012010BD002010BDAE
:1085300010B502460020138806E0546834F8104055
:108540008C4203D0401C80B28342F6D810BD00009C
:1085500070B588B00646002005900690ADF814105E
:10856000ADF816100190029001AA05A9304690DFDF
:10857000050021D002F09CFE034611481149324605
:10858000401AC108012000EB014004460E4902F0E8
:108590007AF9BDF8042012B9BDF8060028B1BDF87B
:1085A0000630204609A102F06EF9BDF808201AB184
:1085B0002046164902F060F908B0284670BD000058
:1085C000B8E00200B0E002009CD8020054686520C8
:1085D0007265717565737465642054582F52582004
:1085E0007061636B6574206C656E67746820697375
:1085F00020746F6F206C6F6E672062792025752F55
:108600002575206F63746574732E0000E8D802002E
:1086100001460148FFF7A7BA403400202DE9F04396
:1086200089B00F460546914620216846FDF737FF81
:1086300095F8C60295F8C54200EB8001C1EB8010A9
:1086400005EB400604EBC40006EB40013279601CE8
:108650000A31904232D108AB0022284600F0A8FC33
:1086600078B310E0401EA04201D1002004E004EBEA
:10867000C40006EB40001C308046024608AB28468A
:1086800000F096FC90B10020387004208DF80000B6
:1086900008984A46CDE903500C4802900C486946B8
:1086A000806801F065FA09B0BDE8F08395F8C5026D
:1086B0004146401C641C85F8C502E4B23079A042F2
:1086C000D0D8012038700020EDE7000001880200BA
:1086D0004830002070B500240F4D10E0686800EBB2
:1086E000C406307802F010FF7178012901D0012111
:1086F00000E000214140307800F030FA641C287816
:108700008442EBDBD5E90401084303D0BDE87040A7
:1087100004F07EB970BD00007830002030B59FB005
:108720000C4605467C216846FDF7B9FEADF80240CF
:1087300003208DF80000044801954168002901D00C
:10874000684688471FB030BD483000202DE9F04111
:10875000044690F8C602884600EB8001C1EB801009
:1087600004EB40061746304603F062FD050042D098
:10877000D4F8CC0206283ED204EBC0107622A0F832
:10878000D272D4F8CC02314604EBC01000F535703B
:10879000FDF76CFE0026B8F1000F06D0D4F8CC022D
:1087A00004EBC01080F8D06206E0D4F8CC120220AE
:1087B00004EBC11181F8D002D4F8CC0204EBC01054
:1087C000C0F84C53D4F8CC020C4D401CC4F8CC0279
:1087D000E96888420FD12746002407E007EBC4115F
:1087E00001F53470D1F84C138847641CE868844262
:1087F000F4D3C7F8CC62BDE8F08100004830002017
:10880000F0B515469FB0002281F8C822074691F8BE
:10881000C6020C4600EB8002C2EB801001EB400068
:1088200003F006FD060009D07C2208496846FDF7E2
:108830001DFEADF8025068460197B0471FB02946AB
:108840002046BDE8F040FFF769BF0000DCD302001E
:10885000F0B50D4689B004464FF4BA61FDF71FFE2E
:1088600020216846FDF71BFE154E2946B06801F031
:1088700047F9002821D1A4F8CA52C4F8CC0284F8E0
:10888000C70284F8C60284F8C5020E4801272A46AA
:108890000068206002208DF80000ADF8107020689C
:1088A000CDF812000848CDE902046946B06801F02D
:1088B0005FF9002801D184F8C87209B0F0BD00004A
:1088C00048300020A83600200188020010B50021A1
:1088D000024800F0DBFF80F3100010BD043E0020D2
:1088E0004FF480328A400168C1F848230068C0F81C
:1088F000082370474FF4A07202EB810189B200F0A7
:108900009DB92DE9F04105460E464FF4A07000EBED
:10891000860081B228684FF48034B440984622F033
:108920007F47C0F808432868C0F84843286802F029
:1089300070FA286800EB8600C0F840752868C0F817
:108940004443B8F1000F02D02868C0F80443BDE8E2
:10895000F0810068D0F804057047000070B54379D5
:10896000224C44F823204279241D04EBC202204B00
:108970001579204A9A1AD3082DB10824022000EB59
:1089800003401DA12EE002680D88C2F8085590F939
:1089900004208978002A4FEA411106DA02F00F021A
:1089A00002F1E02282F8141D03E002F1E02282F8D5
:1089B000001490F90410012201F01F0502FA05F5D8
:1089C0004909890001F1E021C1F80051417904EB26
:1089D000C1010A71417944F831000320002400EB01
:1089E00003400EA101F044FF204670BDD0300020AE
:1089F00010E10200B0E0020052544320696E73742B
:108A0000616E636520616C726561647920696E696D
:108A10007469616C697A65642E0000005254433AAF
:108A200020696E697469616C697A65642E00000062
:108A300090F90400012100F01F02914040098000DC
:108A400000F1E020C0F8001270470A46022100F051
:108A50007BB84FF4827100F0F1B800680121016029
:108A6000704700680121416070472DE9F05F0746BB
:108A70000C464FF4A07000EB84001FFA80FA3868AF
:108A80004FF48036A6409B4622F07F45C0F84863ED
:108A90003868C0F808633868D0F8048500EB8402B1
:108AA000D2F84095C2F840855146386802F0B1F9D5
:108AB000A9EB080020F07F40012806D1102002F029
:108AC00061FC5146386802F0A4F93868D0F8048592
:108AD000C0F84463A5EB080121F07F413868012903
:108AE00000EB840010D0C0F840553868D0F8041569
:108AF0006FF07F4C6A1A521E22F07F42ACEB0B03E0
:108B0000934217D362B118E06D1CC0F84055102095
:108B100002F038FC3868D0F8040540450AD10CE072
:108B200000EB84006D1CC0F840553868D0F804058F
:108B3000884202D00D20BDE8F09F01223146384620
:108B400000F002F80020F6E70368C3F84413002A97
:108B500002D00068C0F80413704700002DE9F84FF8
:108B60000E463449804601EB5001C007097801D018
:108B70000F0901E001F00F074FF000094246012004
:108B80004946FDF760FCDFF8B0A004460D46052F0E
:108B90004ED2DFE807F003161B282C00002E47D02A
:108BA0000121404603F052FE8DF800906846FEF722
:108BB00087FC5046D0E904120C431543CAE904452A
:108BC00032E00EB1022114E0002112E04EB1032187
:108BD000404603F03BFE4046BDE8F84F012104F05B
:108BE00089BB012105E0002E22D1042101E02EB134
:108BF00003214046BDE8F84F03F028BE002140465F
:108C000003F024FE0021404604F074FB8DF8009030
:108C10006846FEF755FC5046E243D0E904341A405A
:108C200024EA0501CAE904219DF80000FEF76CFC66
:108C3000BDE8F88FA03700207830002010B500681C
:108C400042581AB102F0E5F8012010BD002010BD15
:108C5000826883881A4003689A5C0A708168491C9C
:108C600081607047C26883881A4003689954C1685C
:108C7000491CC160704710B50446C0B2FEF7F6FB50
:108C8000204610BD0969002900D008477047000040
:108C900070B508880D46A0F52061773916D10C48CB
:108CA0000C49401AC108032000EB01440AA12046E8
:108CB00001F0DEFDA88810A1C01E82B20D48134647
:108CC00002802046BDE8704001F0DDBD70BD0000AF
:108CD00028E10200B0E00200415454204D545520D8
:108CE00065786368616E676520636F6D706C65742D
:108CF00065642E00282A0020426C65204E555320C2
:108D00006D61782064617461206C656E67746820A1
:108D100073657420746F20307825582825642900E5
:108D200010B50949094800F032FE08B1FEF7A0FA73
:108D3000F721064800F01FFE002803D0BDE81040D0
:108D4000FEF796BA10BD0000918C02005834002046
:108D500070B50D4601F11004C98A102901D9092006
:108D600070BD01F0C6FE686030B1E2880023A168E2
:108D700001F025FF002070BD042070BD70B50D46C8
:108D800001F1100489690988102901D9092070BDF1
:108D9000891C01F0AEFE686068B100230222A16860
:108DA00001F00DFFA068E16802230288686801F005
:108DB00006FF002070BD042070BD000010B50B48F8
:108DC000FFF7C7FD094A083AD2E90434C018D2E9CE
:108DD000063244F10001C31A71EB020204D24FF0D3
:108DE0008072801841F1000110BD00009830002011
:108DF00070B504464FF0A04505EB84010C20C1F886
:108E00000007032002F0AEFAD5F81005E04000F0AC
:108E1000010070BD10B5C0B2FFF7D4FA0446007867
:108E200002F072FB01466078012801D0012000E0C9
:108E3000002090EA010F08D00449D1E90401084359
:108E400003D1BDE8104003F0E3BD10BD7830002031
:108E50002DE9FC5F0E008346DDE90C47C6F10000FA
:108E600098469246814600D40846012503E000BF9B
:108E700090FBFAF06D1C5045FADAA84500D945463A
:108E800024B1002E01DB780700D5641EB80702D597
:108E9000B8F1000F0AD0F80708D13CB1A54205D2BD
:108EA00020215846641EFFF76BFAF6E7002E02DA1F
:108EB0004E462D2102E0780703D52B215846FFF7B7
:108EC0005FFA07F0030002280BD1B8F1000F08D1B8
:108ED0003CB1A54205D230215846641EFFF750FA36
:108EE000F6E7CDE90047434652463146584604F07E
:108EF000A7F9BDE8FC9F000070B50D460446006868
:108F00004FF4887102F0F4F94FF49071206802F088
:108F1000EFF94FF49271206802F0EAF94FF4A27170
:108F2000206802F0E5F94FF4AC71206802F0E0F936
:108F300020681149C0F804132068690740F307301E
:108F4000090E002806DA00F00F0000F1E02080F89A
:108F5000141D03E000F1E02080F8001420680121D6
:108F600040F3073000F01F0291404009800000F1FB
:108F7000E020C0F8001170BD10034200024600203E
:108F80001268530713D502F00300012802D002280B
:108F90000CD105E0C2F383100B68801C184404E078
:108FA0000223086803EB92521044086001207047C6
:108FB00010B509892AB1D088491C814218D10020F6
:108FC00010BD90F8C62202EB8204C4EB821200EBC3
:108FD000420212899142F2D0491C198090F8C612BF
:108FE00001EB8102C2EB811100EB4100008902E03C
:108FF0001980D088401E5880012010BD007DC0F32C
:10900000C100012803D0032801D0002070470120AF
:10901000704700000A4810B5807860B1002401E074
:10902000022C06D02046FEF731FF641C042CF7D337
:1090300010BD0324F6E7BDE81040FEF747BF00006F
:109040003030002003480179C90702D00078FFF7CB
:1090500067B8704730300020F72101801721418028
:10906000002101714171FB2181711B21C171704788
:109070002DE9FF410026234800F0FAFB2148001F9C
:10908000074600F0F5FB204C60680090A56800E002
:1090900000986946284004EB80000C30FFF76EFF13
:1090A0000028F5D101AA009901EA050304EB830326
:1090B000491CDB6842F82030401C00910228F2D3A2
:1090C000019800F0030001280BD0022810D101986C
:1090D000032101EB90500099BDF80A6001EB90006C
:1090E00005E00198BDF80A60C0F3831008440090C1
:1090F000384600F0BAFB08B10098606004B0304612
:10910000BDE8F081003E0020E83900208AB04FF42D
:109110008041002001F046FC08B1FEF7A9F801F0FB
:109120007FFAFEF7EBF808B1FEF7A2F818223F49E4
:109130006846FDF79BF93E4806903E494FF4807023
:10914000CDE90701099007233B4A06A96846FEF7C7
:109150003BF908B1FEF78CF838490120FEF796FF7D
:1091600008B1FEF785F869460020FEF7D3FE08B186
:10917000FEF77EF8334C3248CDE9000400256846FE
:10918000FEF700FB08B1FEF773F801F021FD08B10E
:10919000FEF76EF801F0AEFF08B1FEF769F8694618
:1091A0000120009501F046FE08B1FEF761F868461F
:1091B00001F0D8FE08B1FEF75BF8FFF7B1FD2248D9
:1091C00000902248CDE9010469462148FEF76AFC77
:1091D00008B1FEF74DF803F0EFF900F0F5F8054699
:1091E0001CA0FDF70DFD24482449401AC0080321A6
:1091F00001EB004022A101F03BFB03F009FA294CEE
:1092000040F6CD4655B1FEF767F86168401AB042A6
:1092100004D9FEF761F8606000F0DAF901F00EFAA7
:109220000028EFD101F0E8FCECE7000088D3020051
:109230004032002040330020F9CD020009800200B6
:109240001186020000300020BD790200C5BA02007C
:1092500040340020424C4520554152542063656EF5
:109260007472616C206578616D706C6520737461D7
:10927000727465642E0D0A0028E10200B0E002005D
:10928000424C4520554152542063656E7472616CA6
:10929000206578616D706C652073746172746564AB
:1092A0002E000000282A00202DE9F047C5881E1D49
:1092B000B6FBF5F78946B6FBF5F1044605FB176CDE
:1092C000407916686843DDF820A0F718001F874230
:1092D00000D9C61A166001E02468491E0029FBD196
:1092E000A5EB0C078846B74216D818E004EB0C0033
:1092F000001D09EB0803BAF1000F3A4602D00146FF
:10930000184600E01946FDF7B1F82468F61B4FF047
:10931000000CB844B54201D9374600E02F46002E74
:10932000E4D1BDE8F087000030B5024651B101F04C
:1093300057FB0021074C08E034F821301568AB4298
:1093400002D11160002030BD491C8142F4D30520B8
:1093500030BD000000000000064910B54000087054
:109360000721682000F020F8044600F02DFA204084
:1093700010BD00002C300020F7B50A4C15460E46F3
:10938000002301226946207803F09CFC07462078E0
:10939000012340F001002A46314603F093FC384097
:1093A000FEBD00002C30002008B501238DF8000020
:1093B00004488DF8011002226946007803F082FC0F
:1093C00008BD00002C3000202DE9FE433349344A0B
:1093D000002509270120891AC9084FF47A7800EB83
:1093E000014400BF03F058FC002840D1404601F082
:1093F000B9FF3E46404601F0B5FF761EFAD16D1C1E
:10940000EDB2052DEED3204626A101F031FA4FF042
:10941000A0411822D1F810051923D1F81015C0F376
:109420000060C1F34061CDE90001204623A101F0B5
:109430003BFA1C20FFF7DCFC80461B20FFF7D8FC22
:1094400007461A20FFF7D4FC06461920FFF7D0FC88
:1094500005461820FFF7CCFC8DE8C00102462046E7
:109460002B4623A101F02AFA30A003F03AFE68202F
:1094700000F030F918B9692000F02CF910B1012082
:10948000BDE8FE83204637A101F0F2F940A003F0C9
:1094900028FE03F0C9FA0020F2E7000028E10200EC
:1094A000B0E002007477695F6D61737465725F6923
:1094B0006E6974206661696C65642E005B5457495F
:1094C0005D2070696E732053434C3D50302E2564EF
:1094D000205344413D50302E2564206C6576656CE8
:1094E0002053434C3D2564205344413D25640000F6
:1094F0005B5457495D2072617728505529205030C0
:109500002E32343D25642050302E32353D256420E6
:1095100050302E32363D25642050302E32373D25D6
:10952000642050302E32383D256400005B4D50558C
:10953000363035305D207477695F6D6173746572A4
:109540005F696E6974206661696C65642C20636F65
:109550006E74696E75652070726F62696E670D0A50
:10956000000000006D70753630353020696E69740A
:109570002F72656164206661696C656420666F7234
:10958000203078363820616E6420307836392E00ED
:109590005B4D5055363035305D20696E69742066FC
:1095A00061696C6564206F6E20307836382F3078B2
:1095B00036392028636865636B20776972696E6746
:1095C0002F706F7765722F70696E73290D0A000016
:1095D00070B5ACB0002006900790089009900E225C
:1095E00006A93B20FFF7C8FE60B3BDF81800BDF820
:1095F000246040BA03B2BDF81A0076BA40BA04B289
:10960000BDF81C0036B240BA02B2BDF81E0040BA26
:1096100005B2BDF82000059540BA01B2BDF82200A0
:109620000094CDE9012140BA00B2CDE903060BA2B6
:1096300080210AA8FDF7F4FA0DF1280003F051FD8E
:109640002CB070BD13481449401AC008022101EB28
:10965000004012A101F00CF918A0EFE75B4D505546
:10966000363035305D2041583D25642041593D2537
:109670006420415A3D25642047583D2564204759C0
:109680003D256420475A3D25642054454D503D25D5
:10969000640D0A0028E10200B0E002006D7075362A
:1096A0003035305F72656769737465725F726561CA
:1096B00064206661696C65642E0000005B4D505546
:1096C000363035305D2072656164206661696C6595
:1096D000640D0A0010B59AB0044600208DF86400AD
:1096E0002046FFF739FE38B1234615A230216846DF
:1096F000FDF796FA68461DE0012219A97520FFF7CB
:109700003BFE002819D09DF864000090234613A268
:10971000602101A8FDF784FA1D481E499DF86430B8
:10972000401AC008022101EB004022461AA101F0B4
:10973000AAF801A803F0D5FC01201AB010BD000062
:109740005B4D5055363035305D20696E6974206F41
:109750006B20403078253032580D0A005B4D505553
:10976000363035305D20696E6974206661696C65DC
:109770006420403078253032582C2057484F5F41C4
:109780004D5F493D3078253032580D0A0000000009
:1097900028E10200B0E002005B4D50553630353014
:1097A0005D20696E6974206661696C656420403073
:1097B00078253032782C2057484F5F414D5F493D26
:1097C000307825303278000008B5012269467520CE
:1097D000FFF7D2FD002806D09DF80000682803D0CE
:1097E000702801D0002008BD012008BD10B531B19E
:1097F000B2FBF3F403FB14241CB1092010BD0E20AE
:1098000010BD01600021416081608281C3810846F2
:1098100010BD70B50C460546FCF7FCFC002802D0D4
:1098200021882868084470BD10B50A8849888A4292
:1098300003D1FCF731FD012010BD002010BD70B533
:109840000C460546FCF70BFD002802D0618828680D
:10985000084470BD10B50A8849888A4203D1FCF7D4
:10986000F5FC012010BD002010BD002100F009B85A
:10987000012100F010B808B56A46FCF762FD0098B7
:1098800008BD08B56A46FCF742FD08BD08B56A4642
:10989000FCF724FD08BD08B56A46FCF72BFD0098CF
:1098A00008BD08B56A46FCF759FD009808BD38B5F3
:1098B000044600258DF800506846FDF701FE21683A
:1098C0006268086890420ED9401E08600178238AB9
:1098D000E26801FB0325227A2168101AC0B20A79D6
:1098E000824200D208719DF80000FDF70DFE284667
:1098F00038BD38B5054600208DF800000C46684696
:10990000FDF7DEFDE868298A201AB0FBF1F12A682C
:109910001068431C136001709DF80000FDF7F4FD12
:1099200038BD10B530B1017A42680368891AC9B2EE
:109930001A6006E00E2010BD03681A68541C1C60F3
:109940001170491EC9B2F7D20068002101710846A2
:1099500010BDC20800F007030120895C9840084050
:10996000704710B5C20800F00703885C01249C40D2
:109970002043885410BD28B1A1F11702E12A03D376
:10998000072070470E20704741800020704710B5B7
:1099900060B10161F72120F8021B20F8021BFB21B6
:1099A00000F8021BFFF758FB002010BD0E2010BD71
:1099B000F0B5858893B00C46002D39D1018800267A
:1099C0003F4F24293BD006DC102909D011290CD0A7
:1099D000232958D14FE03A290BD0552953D129E0FA
:1099E0000146204602F00CF94DE0A01DFFF734FBC4
:1099F00049E02246408934F8061F814200D80846D3
:109A00006080172800D217206080106970B16079DB
:109A100060B1D7E90001CDE90301ADF80E506088CF
:109A2000ADF81000136903A91046984766712671B6
:109A300013B0F0BD0146204602F0A4F923E0011D59
:109A40002C2206A8FCF712FDBDF81800BDF81C205A
:109A500004EBC0014A732269AAB1D7E90423CDE916
:109A60000423ADF81200487B8DF8140022692046CB
:109A700004A9904707E0017A207B884200D2014682
:109A80002846FEF765FDA07A0028D1D0E188284657
:109A9000A5DF012580B11128CAD001F009FC0246DA
:109AA0000848094913B0401AC00805EB0040BDE85A
:109AB000F04006A100F0E0BEA672E572B8E7000033
:109AC00058D40200B8E00200B0E0020073645F62A4
:109AD0006C655F67617474635F65786368616E6706
:109AE000655F6D74755F7265717565737428292083
:109AF00072657475726E65642025732E0000000017
:109B00002DE9F0410F4604004FF000050DD002F0A2
:109B100063FB39462046FEF70BFD218881421ED1AA
:109B2000002005464FF6FF7609E00E20BDE8F081E3
:109B3000626832F81020B24206D1401C80B28142E5
:109B4000F6D8206901F022F8002021880BE0626835
:109B500032F81020B24204D1616821F81070284612
:109B6000E4E7401C80B28142F1D80420DEE7000027
:109B70002DE9F04791460D4604004FF0000742D012
:109B8000EDB302F029FB49462046FEF7D1FC2978C7
:109B9000062902D22188814202D10720BDE8F08740
:109BA000A16800EB800601EB860001F0ACF830B153
:109BB0004946284602F07CFB08B13846EEE7297892
:109BC000DFF8488058F821202AB12069B8B1294629
:109BD00090470028E2D1A068294600EB860001F0FA
:109BE000B1F8070006D0297858F8210010B168684C
:109BF00000F0AFFFA068494600EB860000E002E0FD
:109C000002F052FAD9E70E20C8E7000070D4020033
:109C1000F8B505000C4620D0002C1ED0288811284D
:109C200006D0A0F130011F2902D950381F2814D8BE
:109C3000AE8820463146FEF77BFCADF80000218857
:109C400081420AD02988112908D0A16800EB800040
:109C500001EB8000314602F027FAF8BD62684FF64A
:109C6000FF7122F810106946E06801F06BF8F8BD4A
:109C70002DE9F041044600F1140700F10A05867C45
:109C8000007A86B001F10208002814D08BDF14217D
:109C90006846FCF704FC33462A46394640468CDFCA
:109CA00006218DF800100190002804D0616A002977
:109CB00001D06846884706B0BDE8F0814FF4C8710E
:109CC000018206214181182181810021C1817047D3
:109CD000017DA022C2825022028321F018010022BD
:109CE000428341F004010175012141757047F0B5CF
:109CF00020B11AB1032903D00720F0BD0E20F0BD1A
:109D000004790346051D0CB10420F0BD002116881E
:109D1000084633F82170B742F7D0491C11F0FF0113
:109D2000F7D003EB8401641C2C7012680A60F0BD4C
:109D300018B100214171084670470E20704710B5D8
:109D40000B46040002D0980702D009E00E2010BD97
:109D5000580705D4D80603D4180701D4072010BD2E
:109D60002046FFF7E5FF580701D501206071A27179
:109D7000002010BD70B50D46040010D000262660EE
:109D800066606262EDB128792072287BA074296830
:109D900039B10E2204F11400FCF768FB04E00E2038
:109DA00070BD2046FFF794FFA86830B10168C4F881
:109DB0000A104068C4F80E0009E02046FFF77EFF55
:109DC00005E0FFF785FF2046FFF778FF267204F1D4
:109DD0002800A0641F20A4F84C00002070BD2DE9CD
:109DE000F04F044689B000208846074606901421AB
:109DF0006846FCF754FB04F1140004902046FFF77A
:109E0000FDF8010004F14800059011D002208DF802
:109E10000000CDF80480616A6846884700200599F3
:109E20008ADF41462046FFF723FF09B0BDE8F08FE7
:109E3000A079002107916179834621B30121069120
:109E4000824694F804900026B8F81C003546089025
:109E500012E004EB8502D8F818000899FDF716FC0B
:109E600028B1761CF6B2BAF1000F0DD002E0BAF1BB
:109E7000000F06D16D1CEDB24D45EAD3BAF1000FCB
:109E800002D04E4501D009E046B19DF8080040F0EF
:109E900004008DF8080001207F1C0790CDF8048095
:109EA000BBF1000F02D00698874203D0079830EA32
:109EB0000B0007D000208DF8000041462046FFF738
:109EC000D7FE02E003208DF80000616A09B1684600
:109ED0008847002005998ADFA7E770B50D4601463F
:109EE00001F108020C1D28460988143586B0102996
:109EF00035D01B291FD01D2917D0202942D1064655
:109F000014216846241DFCF7CAFA706A002839D06B
:109F100005208DF80000049520680190606802908B
:109F2000207A8DF80C00716A2AE006B01146BDE86F
:109F30007040FFF754BF064614216846241DFCF705
:109F4000AEFA207801281DD1706A00281AD00420AA
:109F50008DF80000049520788DF80400E3E70646AC
:109F600014216846FCF79BFA07208DF80000201D9D
:109F700001902088ADF808000495716A002901D08D
:109F80006846884706B070BD30B585B0040025D05E
:109F900014216846FCF783FA8BDF2046FFF72EF882
:109FA000012528B1616A19B18DF8005068468847CB
:109FB00004F1480104F114008ADF044608280FD098
:109FC00074B1084808492246401AC00805EB004011
:109FD00006A100F051FC204605B030BD0E20FBE785
:109FE0000020F9E7C8E00200B0E0020073645F629D
:109FF0006C655F6761705F7363616E5F73746172DC
:10A00000742072657475726E6564203078257800EE
:10A0100000F180400068002800D00120704708B59A
:10A0200000F18040002101600068009008BD000040
:10A0300070B50B4C207808B185250FE00020A0609A
:10A0400060602061E060074801F06EF9054601F0AC
:10A050009DF808B901F052F901202070284670BD22
:10A06000C0360020FD84020038B500258DF8005070
:10A070006846FDF725FA074CE068401EE060E0689E
:10A0800010B901F061F9A5709DF80000FDF73CFAE8
:10A0900038BD0000C0360020F0B5054604781548EC
:10A0A00089B0164640F82420124A0869121DA2F110
:10A0B000080742F82400487F385520226846FCF7FC
:10A0C000D5F904942878385C48B10EB10A4A00E00A
:10A0D00000226946281D01F0D9FB09B0F0BD0EB180
:10A0E000064A00E00022694605F10C0001F084FAFE
:10A0F000F3E700005C300020FDD0020089CF0200B1
:10A1000030B40378054CE35C1BB130BC001D01F09A
:10A11000F3BB30BC0C3001F0D7BA0000583000203F
:10A1200030B40378054CE35C1BB130BC001D01F07A
:10A1300065BC30BC0C3001F03DBB00005830002045
:10A140000FB408B50399002904D004AA00926A4606
:10A1500000F00FF801B05DF814FB10B582680446FA
:10A16000002A05D0D4E90403216898470020A060A4
:10A1700010BD2DE9FC4791460C00804676D014F8BE
:10A18000011B39B125290ED04046FEF7F9F8207899
:10A190000028F4D198F80C00002867D04046BDE8AC
:10A1A000FC47FFF7DABF0020012221782B291BD0C2
:10A1B0002D2902D0302908D102E040F0010001E051
:10A1C00040F00200641C002AEFD100252A290ED09D
:10A1D0002178A1F130020A2A11D205EB850201EBA8
:10A1E0004205641C303DF1E740F00400EAE7D9F88D
:10A1F00000100B1DC9F800300968641C0D4421785B
:10A2000000232E290BD114F8011FA1F130020A2AD4
:10A2100005D203EB830201EB4203303BF3E76C29E9
:10A220000DD068290BD0692921D00BDC252918D045
:10A23000582931D063290ED0642915D117E014F8BC
:10A24000011FECE7702969D0732932D075291BD022
:10A25000782909D120E0D9F80000011DC9F80010C3
:10A2600001784046FEF78CF8641C90E76CE0D9F862
:10A2700000100A1DC9F800200968CDE900500A2223
:10A280004046FEF7E5FDEFE7D9F800100A1DC9F8D2
:10A29000002009680A2206E0D9F800100A1DC9F852
:10A2A000002009681022CDE90050404602F0C8FFA6
:10A2B000DAE7D9F8001000270A1DC9F800200E6857
:10A2C000C00705D112E04046761C7F1CFEF758F807
:10A2D00031780029F7D104E0202140466D1EFEF7B9
:10A2E0004FF8BD42C0D9002DF6D1BDE74EB1304682
:10A2F000FCF7E0F8074604E0202140466D1EFEF71B
:10A300003FF8BD4206D9002DF6D103E04046761C49
:10A31000FEF736F831780029F8D1A5E7D9F8000022
:10A32000011DC9F80010056830214046FEF728F8E5
:10A3300078214046FEF724F808200021CDE90001ED
:10A34000034610222946B0E7BDE8FC8770B541EA14
:10A350004201DDE904564FF0A04441EA830141EA9D
:10A36000052104EB800041EA0641C0F8001770BDEA
:10A3700070B541EA4201DDE904564FF0A04441EADC
:10A38000830141EA052104EB800041EA0641C0F85F
:10A39000001770BD70B541EA4201DDE904564FF087
:10A3A000A04441EA830141EA052104EB800041EA2F
:10A3B0000641C0F8001770BD70B541EA4201DDE901
:10A3C00004564FF0A04441EA830141EA052104EB21
:10A3D000800041EA0641C0F8001770BD1CB500229C
:10A3E0000B46009211460192FFF7D4FF1CBD1CB52D
:10A3F00000220B46009211460192FFF7DDFF1CBDC3
:10A400001CB5002100910B46012201911146FFF776
:10A41000C1FF1CBD1CB5002100910B46012201911A
:10A420001146FFF7C9FF1CBD4FF0A04202EB8000B0
:10A43000D0F8002722F44032C0F80027D0F80027D7
:10A4400042EA0141C0F80017704701224FF0A043D3
:10A45000824011B1C3F808257047C3F80C25704736
:10A4600018B5084B6C4601441B68009306E000BF1A
:10A4700054F82030D3F81035401C08C28142F7D878
:10A4800018BD000098D40200034908B50844002113
:10A4900001600068009008BD00600040024940581B
:10A4A000012800D0002070470060004030B5154AF8
:10A4B00001460020D2F8104423460AE0DB681D79EB
:10A4C000854205D1401C0A28F6DB4FF0FF3030BD35
:10A4D0001B68002BF2D1431CF9D0CB681871D2F85D
:10A4E000103443B1DB68CC681B682360D2F81024B9
:10A4F000D268116030BDC2F81014C96800220A6029
:10A5000030BD0000E83900207047FCF725B97047DE
:10A5100008B5034A00924023024A00F005F808BD3E
:10A52000E5C6020050380020F0B595B01C4615462F
:10A530000F4608461A9E00F025FB182109A8FBF7D4
:10A54000AEFF0E96CDE909540023082203A9384630
:10A5500000F02DFB05980690BDF81000ADF81C002A
:10A56000BDF81200ADF81E0000208DF82100039800
:10A57000082600F00300012802D0022818D032E09B
:10A5800003983346850AC0F3C2008DF82000039873
:10A590000FA9C0F38314A200384600F008FB09A8F5
:10A5A000009006AB22460FA9284600F047FA1AE0B1
:10A5B0000398840DC0F3C2008DF82000082C01D24E
:10A5C000254600E0082533462A460FA9384600F004
:10A5D000EEFA2E44641B09AB06AA29460FA800F028
:10A5E00089F9002CEAD1384600F0D2FA15B0F0BD56
:10A5F0000A4A012902EBC00007D0022907D003292B
:10A6000007D0042907D0002070470220704704209B
:10A61000704700797047407970470000B0E0020051
:10A6200010B5FFF772FF04210348FFF73FFF02490F
:10A630000120C968487110BDA0E002002DE9F04F6B
:10A640008DB0FDF7B5FE18B100200DB0BDE8F08F5C
:10A650007E4C4FF0000BC4F818B4BFF34F8F606806
:10A660000290A568D846284004EB80000CE000BFAB
:10A67000D4F8180470B921680298814201D8616049
:10A68000E2E7284004EB80000C3002A9FEF776FCDC
:10A690000028EDD1002005AA029901EA050304EB88
:10A6A0008303491CDB6842F82030401C02910228D9
:10A6B000F2D3059800F00300022802D001284DD003
:10A6C000AAE005985022810D8946B2EB905F00D830
:10A6D00050210E4666F39F50059008315C4800F00B
:10A6E00008FA070078D000F04DFA4346082205A981
:10A6F000384600F064FA029908F1080A2940681AFD
:10A700008000001D864222D9504D0C3530B1C2B2B6
:10A7100004EB8101301A90460C3104E02946F2B274
:10A72000002590462846C6B25346384600F047FA00
:10A730000AEB080325B132462946384600F03FFAB5
:10A74000029909F1030001EB900002903BE004EB59
:10A7500081015346324638460C31EFE70598C0F385
:10A760008310062800D30620059960F38911C1F3F0
:10A770008310801C05918100354800F0BAF907006C
:10A780004AD000F0FFF94346082205A9384600F0F8
:10A7900016FA08F1080800260FE00298434600EA7E
:10A7A0000501401C04EB81010290042238460C3163
:10A7B00000F005FA08F10408761C0598C0F3831030
:10A7C000B042EAD847B1D4F81054D4F8180478B19C
:10A7D000384600F0DDF934E01EE0E86840790128F1
:10A7E00004D12A682846394612689047E868056807
:10A7F000002DF2D1384600F0CBF98DF800B0684654
:10A80000FCF75EFED4F8180408B9029860609DF861
:10A810000000FCF779FE14E0D4F8104405E021684C
:10A82000204689688847E0680468002CF7D1094809
:10A830000949401AC008022101EB004007A100F0BD
:10A8400017F8FDF7B5FD80F00100FEE6E8390020BD
:10A850005CE1020028E10200B0E002004261636BAB
:10A86000656E647320666C75736865640000000033
:10A8700000231A4602F002B808B5012300926A4686
:10A8800001F0FCFF08BD1CB5CDE9002302236A4698
:10A8900001F0F4FF1CBD3EB5069C8DE81C000323AF
:10A8A0006A4601F0EBFF3EBD7FB5DDE908458DE866
:10A8B0003C0004236A4601F0E1FF7FBD70B586B01D
:10A8C0000DF1280C9CE870008DE87C0005236A4699
:10A8D00001F0D4FF06B070BDF0B587B00DF1300CBB
:10A8E0009CE8F0008DE8FC0006236A4601F0C6FFF4
:10A8F00007B0F0BD2DE9F0470E4680461C46924653
:10A90000082940D894F80C9000202073194610466E
:10A9100001F072FB0025B54206D218F805201BA1F4
:10A920002046FFF70DFC03E01AA12046FFF708FCC4
:10A930006D1C082DEFD318A12046FFF701FC002560
:10A94000B54212D218F805707E2F08D8FBF78AFDA1
:10A950000068C05D10F03E0F01D03A4600E02E22A4
:10A960000EA12046FFF7ECFB03E00DA12046FFF708
:10A97000E7FB6D1C082DE3D301222146504601F070
:10A980001DFB84F80C90BDE8F087000020253032D4
:10A9900078000000202020007C00000025630000DB
:10A9A000200000000B4810B5FF21816000210160EC
:10A9B0004160C0F81814C0F8141480F82014064838
:10A9C00000F0E4F8002803D1044800F014FA002055
:10A9D00010BD0000E83900205CE1020078D60200DA
:10A9E00002480349401AC0087047000048E10200CD
:10A9F000B0E0020013B56846FEF796FC08B10020EF
:10AA00001CBD0248009950F831001CBDB0E00200A6
:10AA100070B509480125D0F8104480F8205407E0AB
:10AA2000E06845712168204649688847E068046805
:10AA3000002CF5D170BD0000E83900202DE9FF475A
:10AA400081460C9D00200C462F7B287398461646A5
:10AA50002946184601F0D0FA072E42D2DFE806F068
:10AA600004090F161F2A360049462846FFF768FBDF
:10AA700037E0494628462268FFF762FB31E0D4E917
:10AA8000002349462846FFF75BFB2AE0A0680090B8
:10AA9000D4E9002349462846FFF752FB21E0D4E9D8
:10AAA0000201CDE90001D4E9002349462846FFF719
:10AAB00047FB16E004F1080007C88DE80700D4E959
:10AAC000002349462846FFF73BFB0AE004F1080053
:10AAD0000FC88DE80F00D4E9002349462846FFF748
:10AAE0002FFB00222946404601F068FA2F73BDE88B
:10AAF000FF872DE9F041058A80462D1F4819C01CAB
:10AB0000B0FBF5F0C6B24046FEF7D1FE041E19D0E8
:10AB10000020207101206071E58000272546761E07
:10AB2000C4F800800BE04046FEF7C1FE60B16179D9
:10AB3000491C6171286005467F1CC0F80080B7423F
:10AB4000F1D32046BDE8F081204600F002F8002055
:10AB5000F8E72DE9F041457901466B1E002201E03E
:10AB60000968521C9A42FBD30F680146002605E093
:10AB700038460C68FEF7BDFE2146761CAE42F7D380
:10AB8000BDE8F0810121001DFEF775BEFEF7C9BECC
:10AB900010B504460121001DFEF783FE10F0FF0FE3
:10ABA00004D12046BDE81040FFF7D3BF10BD1CB54F
:10ABB00001920122009201AAFEF776FB1CBD1CB592
:10ABC00001920022009201AAFEF76EFB1CBD00005C
:10ABD000064910B500204870091D0860BFF35F8F5B
:10ABE0000349044800F0F6FA002010BDDC300020D4
:10ABF00010D502004438002008B500208DF8000070
:10AC00006846FCF75DFCF1EE100A20F09F00E1EED3
:10AC1000100ABFF35F8F08494020C1F880029DF8F9
:10AC20000000FCF771FC00F0B1FA08B141DF08BD8B
:10AC300020BF40BF20BF08BD04E000E070B504465F
:10AC40000C480121FEF722FEBFF35F8F002500288C
:10AC500009D10120074E042C08D0311F4A781AB1BF
:10AC6000BFF35F8F356070BD0C70487001F072FDEE
:10AC7000F6E70000E03000202DE9F8430446002705
:10AC800090460E468DF800706846FCF719FC204689
:10AC900000F039F838B105279DF80000FCF734FCC6
:10ACA0003846BDE8F88320680568B8F1000F05D183
:10ACB0000168204600F03FF821680860E268012A38
:10ACC0000CD0022A0ED0042A11D06068082A13D0B2
:10ACD00005FB02013046FBF7C9FBDDE76068405D1C
:10ACE0003070D9E7606830F815003080D4E76068CC
:10ACF00050F825003060CFE700EBC501D1E9000135
:10AD0000C6E90001C8E7016808684968884201D1BE
:10AD1000012070470020704701680A684968806810
:10AD2000884201D9491C00E00021914201D1012053
:10AD30007047002070478068884201D9481C7047DE
:10AD4000002070472DE9F84304464FF000080E46F6
:10AD50008DF800806846FCF7B3FB2046FFF7DCFF68
:10AD600007000AD0207C40B14FF004089DF8000095
:10AD7000FCF7CAFB4046BDE8F88320684568416897
:10AD80002046FFF7D8FF2168486037B12068016886
:10AD90002046FFF7D0FF21680860E268012A14D03E
:10ADA000022A16D0042A19D0082A1CD0606831461D
:10ADB00005FB0200FBF75AFB204601F001FA21686F
:10ADC0008A688242D2D28860D0E76168307848557C
:10ADD000F2E76168308821F81500EDE761683068B6
:10ADE00041F82500E8E7D6E90001626802EBC502F8
:10ADF000C2E90001E0E78268002191608268116188
:10AE0000826851618268D1608268516080680160A7
:10AE1000704708B5002242504058009008BD00001D
:10AE200020B1034909680160002070470E20704777
:10AE3000FCD602002DE9FE4307460E460846FFF702
:10AE4000EFFF00287CD100250095019506208DF8A4
:10AE500000704FF00108ADF8040002958DF80280F3
:10AE600069462020326869DF3649374A891AC9089D
:10AE7000012202EB014430B100F01AFA02462046EA
:10AE80003249FFF7F9FC00958DF801508DF80280EA
:10AE9000019502958DF8038069464020326869DF8C
:10AEA00030B100F005FA024620462949FFF7E4FCDC
:10AEB00000958DF80070F720ADF80200019502951D
:10AEC00069462320326869DF30B100F0F1F90246AB
:10AED00020462049FFF7D0FC0095019502958DF89A
:10AEE000008069460120326869DF30B100F0E0F986
:10AEF000024620461849FFF7BFFC4FF4B0600090AF
:10AF0000019502956946A120326869DF30B100F0F1
:10AF1000CFF9024620461149FFF7AEFC0095019596
:10AF200002958DF800506946A020326869DF30B183
:10AF300000F0BEF9024620460949FFF79DFC0020BB
:10AF4000BDE8FE8338E10200B0E00200D4DE02007A
:10AF50001CDF020068DF020034DE020080DE020037
:10AF6000E0DD02002DE9F0410546076860DF80461C
:10AF700019491A482A68081AC608BA4219D902207B
:10AF800000EB064416A12046FFF772FC20463A4625
:10AF90001FA12B68FFF777FC4FF08050D0F80C0111
:10AFA0002968800200F10050421A204625A1FFF7CF
:10AFB00063FCB8F100004FF001040AD000F078F90A
:10AFC000024604EB06402AA1FFF756FC4046BDE8C6
:10AFD000F0812F480470F9E738E10200B0E0020088
:10AFE000496E73756666696369656E742052414D7A
:10AFF00020616C6C6F636174656420666F7220748D
:10B00000686520536F66744465766963652E000039
:10B010004368616E6765207468652052414D2073F6
:10B0200074617274206C6F636174696F6E206672F4
:10B030006F6D203078257820746F20307825782E39
:10B04000000000004D6178696D756D2052414D2002
:10B0500073697A6520666F72206170706C696361D4
:10B0600074696F6E20697320307825782E00000097
:10B0700073645F626C655F656E61626C6528292030
:10B0800072657475726E65642025732E0000000071
:10B090004731002030B51548ADF5017D0078002816
:10B0A00021D04FF4FA7500BFADF8005280A9684670
:10B0B00061DF38B1052816D00DF5017DBDE83040BF
:10B0C000FCF7D6B86C460A497DA800F083F806E084
:10B0D000D0E90021204690477DA800F092F87F98A3
:10B0E0000028E1D0F4E70DF5017D30BD47310020A7
:10B0F00000D702007CB5194C207808B108207CBD2F
:10B100000120A070002001F0BFFA112819D0002002
:10B1100001F0D2FA12480026006801908DF8006014
:10B120006846FCF7CDF90F4901A810DF05000AD0E9
:10B13000002020709DF80000FCF7E6F92DB12846AC
:10B140007CBD00207CBD0120F3E7A670667001F095
:10B150004BFB012001F0B0FAF3E70000443100207E
:10B1600094D60200ED7102000EB50749684600F062
:10B1700031F805E0D0E900108847684600F041F852
:10B1800002980028F6D10EBDB0D602000148007822
:10B1900070470000443100201FB568464BDF30B1D6
:10B1A000052814D004B0BDE81040FCF761B8084988
:10B1B00001A800F00FF806E0D0E9002100989047C0
:10B1C00001A800F01EF803980028E6D0F4E71FBDA0
:10B1D0001CD70200016009684160AFF3008010B520
:10B1E000D0E900215368994201D1002104E0D1E95E
:10B1F0000034A34202D01946816010BD083141607D
:10B20000F0E7816800290BD0026892680A448260E6
:10B2100041684B689A4203D108314160FFF7DFBFB4
:10B22000704770B50D460646446804E0B26829468A
:10B23000904718B1246820680028F7D1206828605A
:10B24000256070BD40680068704741680868002844
:10B2500001D002680A60704702460020526806E08A
:10B260008B4203D108681060012070471A461368AA
:10B27000002BF5D1704700000C4A10B502F594730D
:10B280000EE0991AC91001EBD171491002EBC1010E
:10B290000C68844201D90B4602E005D201F1080294
:10B2A0009A42EED3002010BD486810BD30D5020090
:10B2B00000B5FFF7E1FF002800D1014800BD000004
:10B2C0001CD502004058002800D00120704708B566
:10B2D000002242504058009008BDD0F804030840B6
:10B2E00000D0012070474058002800D0012070474E
:10B2F00008B5002242504058009008BD0848006838
:10B30000012110F0010F06D14FF0E020C02280F89B
:10B310000024C0F8001103490120086070470000B4
:10B3200000E100E0180500400649024600200B79C4
:10B330000BB1852070470A6001220A7100224A7110
:10B340007047000064300020044901200860044870
:10B350000168C1F300410029FAD170470C00004098
:10B3600018040040002802D00149800108477047B6
:10B3700081D30200002802D00149800108477047AC
:10B38000A1D30200002802D001498001084770477C
:10B39000E1D402002DE9F0418846054600F0F6FDB3
:10B3A000234E002828461AD0FDF756F8304490F86E
:10B3B00048008009032802D001280ED007E04FF092
:10B3C000A040D0F81005E84010F0010F05D003218F
:10B3D0002846BDE8F041FFF727B80221F8E700F062
:10B3E000E1FD002822D02846FDF736F804464FF448
:10B3F000807000EB84000F4F81B207EB8400D0F81F
:10B40000102542F00102C0F810250846FFF73CF86D
:10B41000B8F1000F0AD02846FDF71EF856F82000B4
:10B42000002803D00120A040C7F80403BDE8F08144
:10B43000D4360020006000402DE9FC41DFF8BC80DC
:10B44000044608EB0400002790F930001346C017AB
:10B450000E46401C01D008274CE0B0781946C0F3D6
:10B4600040022046FCF7D4FF0546401C41D0B0788E
:10B47000410719D4C0070AD04FF0A04000EB840167
:10B48000D1F8000720F00200C1F8000707E0002112
:10B490007378204600910A460191FEF769FF17492B
:10B4A00020465431FEF75DFAB078800718D514486D
:10B4B000317800EB8500D0F81025124B1A40C0F807
:10B4C00010254FF4F8524FF4403302EA042203EA05
:10B4D00001410A43D0F810150A43C0F8102509E0CD
:10B4E00008EB0500327810F8481F41EA821101701C
:10B4F00000E004273846BDE8FC810000D436002077
:10B5000000600040FFE0FCFF4FF0A041D1F81015B3
:10B51000C14011F0010000D00120704770B5174DF7
:10B5200095F8580008B1082070BD0020411E2A1867
:10B53000401CC0B282F830102028F8D300242046E6
:10B54000FCF758FF641CE4B20C2CF8D300240C491F
:10B55000C0206C6581F8000401264020891FC1F8D5
:10B5600000014FF4BE70FEF78FFF0649F007C1F8E7
:10B57000040385F85860204670BD0000D4360020D2
:10B5800006E000E000600040034890F85800002802
:10B5900000D0012070470000D43600200121B1EB1B
:10B5A000507F01D1012070470020704738B50D460B
:10B5B00000F06EFD040014D000208DF800006846F5
:10B5C000FBF77EFF207928B19DF80000FBF79CFF78
:10B5D000112038BD0120256020719DF80000FBF787
:10B5E00093FF002038BD00000149024801F0E4BC8F
:10B5F00030370020002000402DE9F0410546007959
:10B6000016460F4600EB40012C4A01EBC00102EB4D
:10B61000810494F82A1011B10820BDE8F08128496E
:10B6200051F820102868FFF7C1FF08B11120F4E796
:10B6300039462846FBF782FF666038692060300093
:10B640004FF001062DD03F7F4FF48E712868FFF731
:10B650003EFE4FF4A2712868FFF739FE28681949A9
:10B66000C0F8041328684FEA471140F30730002858
:10B6700006DA00F00F0000F1E02080F8141D03E06E
:10B6800000F1E02080F80014286840F3073000F053
:10B690001F0106FA01F14009800000F1E020C0F826
:10B6A000001128680421C0F800150020A061E061A5
:10B6B00084F8290044F8140FA675AEE7303700204F
:10B6C0009CD40200800002002DE9F05F054600795D
:10B6D0004FF4017600EB400303EBC000344B03EB67
:10B6E00080040020636813B12B68C3F80863A36962
:10B6F0004FF000096BB1E06938B1606810B128689B
:10B70000C0F804631120BDE8F09FE26101202161CF
:10B7100005E0C4F82490A261E160C4F81C9094F89C
:10B720002910014302D1284600F0E5FE6068002898
:10B73000286803D0C0F804630020E4E74FF4A27641
:10B740003146FFF7C4FDB2464FF4927B5946286854
:10B75000FFF7B8FD06464FF484712868FFF7B2FD85
:10B76000804651462868FFF7ADFD074648EA0700C6
:10B770003043EBD056EA070007D12146286800F095
:10B780008BFEA169606A8142E0D8C4F818900EB1BE
:10B790000320B8E70FB10F20B5E794F82910012076
:10B7A0000029296801D00860C6E74860C4E70000A6
:10B7B000303700202DE9F05F054600790B4600EB9D
:10B7C000400101EBC000244901EB8004284600F051
:10B7D00045F810B11120BDE8F09F62614FF00009FB
:10B7E000C4F82090A36084F828904FF48E784E46D9
:10B7F00041462868FFF76BFD28684FF0010AC0F842
:10B8000008A02146286801F0CDFA606808BBD5F889
:10B8100000B067690FE000BF94F8280008B10F2658
:10B8200015E041465846FFF74DFD0028F4D021466B
:10B83000584601F0B7FA206AB842F2D3574641465B
:10B840002868FFF73FFD0028F9D02868C760C4F8D2
:10B8500014903046BFE7000030370020007900EB3D
:10B86000400101EBC000044901EB80004069002861
:10B8700000D0012070470000303700200149024805
:10B8800001F054BC5C370020002000402DE9F0415D
:10B890000546164600790F46154A00EBC00102EB3B
:10B8A000810494F8201011B10820BDE8F0811149FD
:10B8B00051F820102868FFF779FE08B11120F4E74D
:10B8C00039462846FBF77EFE6660386920601EB167
:10B8D000397F2846FDF710FB28680821C0F80015BD
:10B8E0000020A061E0616061012184F82010DCE7A4
:10B8F0005C370020A0D402002DE9F05F04460079F7
:10B900000E4600EBC001DFF8F0A017460AEB8105F8
:10B910003046FFF743FEB0B168684FF000084FF4BF
:10B92000047910B12168C1F80893A8694FF0000BA1
:10B9300080B1E86948B1686810B12068C0F8049324
:10B940001120BDE8F09F1020FBE7EF614FF00108E8
:10B950002E6102E0EE60C5E9067B00254FF4887198
:10B960002068FFF7C5FC4FF4A2712068FFF7C0FC08
:10B970002068C0F83465C0F838752068B8F1000F49
:10B9800012D0D0F8001241F02001C0F80012207946
:10B99000D04600EBC0010AEB8100406838B1206856
:10B9A000C0F804932846CCE701210160EFE74FF48B
:10B9B000887A4FF4A27951462068FFF794FC074635
:10B9C00049462068FFF78FFC06464FF492712068C5
:10B9D000FFF789FC014647EA06000843EBD02279CD
:10B9E00002EBC20308EB8302C2F818B001B10325D1
:10B9F000002ED7D00F25D5E75C3700202DE9F04782
:10BA000004460E460079274900EBC00001EB800593
:10BA100017463046FFF7C2FD30B1204600F044F82B
:10BA200020B11120BDE8F0871020FBE76F61AE6008
:10BA30004FF490774FF0000839462068FFF758FC24
:10BA40004FF4AC7631462068FFF752FC2068AA68B4
:10BA50006969C0F84425C0F8481520684FF001090D
:10BA6000C0F808906868D0B9BA4651462068FFF718
:10BA70003AFC074631462068FFF735FC0743F4D00F
:10BA800010B14FF00F0808E02068C0F80C90314664
:10BA90002068FFF728FC0028F9D0002068614046A4
:10BAA000C0E700005C3700200079054900EBC000CA
:10BAB00001EB80004069002800D0012070470000A1
:10BAC0005C370020FBF7D4BB2DE9F84F05460C4648
:10BAD0000888B5F8CA12884279D195F8C6024FF0A5
